:2000000000802020393D0000F3140000F3140000000000000000000000000000000000009C
:20002000000000000000000000000000F31400000000000000000000F3140000F3140000AB
:20004000F3140000F3140000F3140000F3140000F3140000F3140000F3140000F314000068
:2000600000000000F3140000F31400000000000000000000F5390000F3140000D533000035
:20008000F3140000F3140000F3140000F3140000F3140000F3140000000000000000000036
:2000A000F3140000F31400000000000000000000F314000000000000F3140000F31400001D
:2000C000F0B5FFB08EB0049306920646929802900025E84305908C913468204603F0ECFD77
:2000E00021188B9503918C4200D3BBE00020879087A908738890059889902F46049D207879
:20010000002800D1AFE0252805D0641C34600699A8477F1CF3E78B97601C306087AC204657
:20012000314600F0A7F88CAA2046314600F0BFF8306801787A2925D0682919D06A2908D071
:200140006C290ED0742908D04C2922D1879980221BE087990122D20217E0879901225203EC
:2001600013E0427887996C2A64D10122120205E042788799682A60D101225202114387914B
:20018000801C05E08799012212030A438792401C0178441C346087A8017373291FD06E2992
:2001A00029D1879832490840202850D040283CD001214A03904238D04A02904242D0CA0242
:2001C000904205D00A0390422FD0090288422CD1F8178C9904C98C91176050603BE087A839
:2001E0000078400619D4009587A88CAA8BAB069900F01DF92FE007AD87A98CAA284600F0F8
:200200006DF9024628460699029B9847411C059D00D0C5198B9503991FE0009587A88CAA45
:200220008BAB069900F09FF815E08C9802C88C900F6010E0401C402201E0401C2022114373
:200240008791A5E78C9802C88C900F7003E08C9802C88C900F8003998B9D681C00D042E7B4
:20026000059F00E02F4638467FB00EB0F0BDC046603F000010B50A681378302B0FD0232B7E
:2002800007D02B2B09D02D2B05D0202B0ED1042306E0082304E0012302E0022300E01023A7
:2002A00004681C430460521C0A60E5E710BDFEB516460D460446086802782A2A10D130683B
:2002C000011D316000686060002805D54042606020680121014321602868471C2F6017E01B
:2002E0000021303A092A08D84218531C2B60435C6F467B545278491CF3E76A460023535466
:2003000012784718002A03D0684603F0E7F8606038782E2826D1781C286079782A2908D181
:200320003068011D31600068A0602868401C2860FEBD00203039092908D839188A1C2A60C3
:200340004A786B461A548978401CF3E76A46002111541078002804D0684603F0BFF8A06073
:20036000FEBDA160FEBDF0B587B01E460C9F13681C1D14601D68002D3BD00491069084681F
:20038000002C04D4284603F079FC844203D3284603F074FC044606984068A042039000DC35
:2003A000204601463068019140180296306005940398A0420EDD06980078C0070AD1059890
:2003C00001990E1A0024B44204DA20200499B847641CF8E70026049C069805998E420BDA71
:2003E0002868010A19D12D1DC0B22146B847761CF2E70020B84718E00599039A8A4214DDDC
:200400000078C00711D00198451A0024AC420CDA20200499B847641CF8E70020C0430299D3
:20042000086003F079FC5821016007B0F0BDF0B585B00C4606460A9D1068011D1160006820
:200440000490002844D00393B768002F04D4049803F032FC874203D3049803F02DFC0746AF
:2004600002967268BA42114600DC3946039B18680091401818600192BA420FDD0298007850
:20048000C0070BD10098C01B039000260398864204DA20202146A847761CF7E70026BE4220
:2004A00005DA0498805D2146A847761CF7E70198B84210DD02980078C0070CD00098C61B70
:2004C0000027B74207DA20202146A8477F1CF8E700202146A84705B0F0BDC046F0B589B04F
:2004E00001920F460446FF210846FA30251878680290002607960391FE31202220460092C3
:2005000003F0CCFB7F20800006942118089104952E713D46387B0246613A172A2AD80123DE
:2005200093402C46B44D2B42254608D007A908AA2846019B00F066F900260596B3E0712520
:200540002B42254622D1022A14D1019B1868021D1A600068C2B2534253410593039AFC32A2
:20056000069B9A18089208702868022188432860002698E001464539032907D3252860D02A
:20058000412803D058280596D0D08DE0019A1068C11D0720814308460830106005C9D14343
:2005A0002F7B4900490D0BD17B3F944911400143049C2CD01920C1438F4234D36E2033E098
:2005C000002A01D4114602E00121C9075140D60F002205923A46413A062A0BD9613F062FDE
:2005E00061D8C0467F443F797F00BF440B5C5C5C3B3631007A441279520097440354545489
:20060000332E290008AB2A4600F0ACFC4BE0002311461A46059302F043FB1921C9438F42B1
:2006200025D3662224E04E20E0708F4201D3612100E04121A17008946070002005900226B5
:2006400031E0002006994870252008700120A1E008AB2A4600F096FD25E008AB2A4602F0F3
:20066000BBFC20E008AB2A4600F0E2FF1BE04622E2708F4201D36E2200E04E22A2708F42B2
:2006800001D3692100E0492161703F21C900069A51180891002803D02D202070042602E032
:2006A0002B2020700326287B012701466F39092904D801228A4052490A4201D158286BD10C
:2006C000049B029C04972946069F3D1908980C460978C90707D1191D091A62689142069F22
:2006E00001DC691A4F1C411C0398430000263846324603F02DFA08900599002903D0411C2F
:200700000891067000E00146A94206D8481E691A491C202203F0C2FA2E702078C00605D4C6
:200720000698391A202203F0B9FA2EE0069887422BD00698391A3026324603F0AFFA079876
:200740004142414104980140012905D12078400702D43846069905E03878069A511C1070C3
:20076000781C3E70227B412A0CD0582A05D0612A08D0782A01D0702A07D123781B0701D422
:20078000612A02D142784A704670069803F094FA0599401809B0F0BD002E09D0012E049B81
:2007A000029C8FD10120079029680220084007E0079A296802200840002A09D0049B029CC5
:2007C00008994A1E08922D220A704742474179E70028049B029C08D1480700D472E70898E2
:2007E000411E0891009901706CE70898411E08912B210170002765E708C19000FFFF0F0076
:2008000043020000F8B514460F4605468068002804D4286810218843286001E00120A860E6
:20082000287B1026582808D0782806D0702804D06F2801D1082600E00A262846194600F041
:2008400055F8AA68002A09D102460A4306D12878000749D52B7B0020024612E02B7B642BCF
:2008600003D1642300290BD504E0692B08D1002906D5692301223A60002240428A4100E027
:200880000A4600941146324600F0B0F8A968884206DA401C21684A1E226030220A70F5E7DB
:2008A000287B582803D0782801D070280FD1297809070CD5702800D1782021684A1E226053
:2008C00008702068411E216030210170287B6F280AD12878000707D520684178302903D071
:2008E000411E216030210170F8BDC04610B5037B702B05D10868021D0A60006800226FE015
:200900000068384A024001204403A24222D0402A20D00402A24230D04402A24246D0C40223
:20092000A2422AD00403A24214D0202A12D100221C46643C142C06D8A0402B4C204204D10D
:20094000212420423ED1582B49D10868031D0B60008845E000221C46643C142C06D8A0407A
:20096000214C204204D1212420422BD1582B36D10868031D0B60006832E01A46643A142AF5
:2009800006D89040184A104206D12122104203D10020582B024623D10868C21D072082439B
:2009A0001046083008601068526819E000221C46643C142C0CD8A0400B4C20420AD1212415
:2009C000204205D00868021D0A600068C21707E0582B04D10868031D0B60007800E01046BE
:2009E000114610BD603F000000081200FEB501920D460646582B01D0174800E015480090B5
:200A0000089802903046284305D1029A1068411E116030210170019C3046284313D0304670
:200A20002946224600F01AF807460D46224603F06BF8301A0099085C029B19684A1E1A6038
:200A400008703E46E8E70298006803F035F9401EFEBDC046AC3E0000BD3E000080B5102A35
:200A600006D0082A09D1C0084A078018C90880BD00090A078018090980BD002904D111467F
:200A800002F0ECFC002180BD002303F0D1F880BDF0B597B0F8480390F8480290F8480190A0
:200AA000F8480090F84DF14EF14FF24C284631463A46234600F04CFE2878317814901291CC
:200AC0000843454245413978139108434242424121781591084344424441F8490978F64B7F
:200AE0001E78F44B1B78F24F3F7816971F4633460E4600280BD1002E09D1012B07D1012F77
:200B000005D11698012802D1ED48CE210CE0149800286AD11698002867D11598012864D11D
:200B2000012E62D1E64846210170642002F0F6FCE348002116914556284602F0ADFD014606
:200B4000E048006801F0D3FA0446FE4E314602F0F7F8002800D12646FB4F3046394602F0C3
:200B6000D1F8002800D13746F54807600F20684302F014FF06460C46384602F08FFCF34ADD
:200B8000F34B01F061F93246234600F0EEFB04460E46F04F1698385E281A400002F0FEFE81
:200BA00002460B462046314600F0DFFB01F0C0FD04463D80E84D294602F0C2F8002800D1F7
:200BC0002546E64C2846214602F09CF8002800D12C46204602F0F6FDE149086002B2C82039
:200BE000169901F089FB17B0F0BD711E484248410440012C06D1012B04D1012F02D11698C1
:200C0000012881D011911598411E484248410240012A0BD1012E09D1012B07D1012F05D13D
:200C20001698012802D1C448C4217DE70E91744274411598109343424341012114984840FC
:200C4000129A0D914A400C921043414241411398401E42420A90424109910A4013400B934B
:200C60001C401099012C09D1002907D1002F05D11698002802D1B0483C2155E708947B42CF
:200C80007B414842484111994C424C410F920E994A424A410F9911400F910F990C40204074
:200CA00018400790012805D11698002802D1A248322139E70494784205977841069010985B
:200CC00044424441139A0D984240169F78427841149F0C99394311434F424F41002906D1C4
:200CE00006990C43044302D09348BA211CE716980028059905D11598002802D1012E00D142
:200D000010E7169800280CD10846149A104308D11298002805D11598012802D1012E00D1B0
:200D200000E71698002852D1012950D1109801284DD1139A50425041129C62426241149C24
:200D4000002C0D9C00D01446002C00D10D900D98012800D1E6E61498012812D11298002805
:200D60000FD1139800280CD11598012809D1012E07D11098012804D1012902D116980128B2
:200D80005DD00A9C604260410540012D0CD11598012809D1012E07D11098012804D1012966
:200DA00002D1169801284AD00E9C604260410740012F48D1012E46D11098012843D101299D
:200DC00041D1169801283ED15B48CE2139E048424841284001280CD11698002809D15649A0
:200DE0000020087055490A78012A00D0A0E608709EE6119A504250410B9A0240012A0AD103
:200E00001098012807D1012905D11698012802D14948FF2115E0139A50425041099A024024
:200E2000012A98D11598002895D1012E93D11098012890D101298ED1169801288BD13E48DC
:200E4000FE21017074E6089C704270410F9A02401546012A1AD11098012817D1012915D17C
:200E60001698012812D134480121EAE75F0C2020640C2020650C2020690C2020680C2020D4
:200E8000670C2020660C20205E0C2020109948420A46484129460140012915D105980128B1
:200EA00012D1169801280FD123480221C9E7C046690C2020680C2020670C2020660C202086
:200EC0005C0A2020400A20201698401E4142414107980840012802D117480321B1E7501E65
:200EE00041424141049A0A401346012A05D10599002902D116990029D6D00599491E4A4202
:200F00004A411340012B05D11699002902D10A48322196E7414241410C40012C00D007E6E9
:200F20000598012800D003E61698012800D0FFE50148002185E7C0465C0A2020610A20207A
:200F4000400A20200000FA430000FAC39A9999999999C93F580A202000409C4500409CC50A
:200F6000540A2020F0B5A5B0049308920E46074600240A947E4D22462B4601F0A5FE0028E5
:200F800013D100247B4D3846314622462B4601F091FE002809D1002238463146134601F0D0
:200FA00075FE00283C46354607D10AAA2046294601F060FF0A98401E0A900899087B0BAE71
:200FC000412801D06D4800E06B480990886801903020039030700022079220462946134609
:200FE00001F05EFE01210028029101D0C8074540771C20462946079A134601F047FE0028E2
:201000000DD124AA2046294601F034FF249801210A1A2046294600F0F9FF04460D46204669
:20102000294602F021F906463946059701F0A8FF0690304602F0B2FC02F057FE04460D46A6
:201040000198471C20D3059806994618002220462946134601F01AFE002848D100222046E5
:201060002946474B00F0F0FE04460D4602F0FCF80999095C771C317002F090FC02F035FE30
:2010800004460D463E46E1E70BA806994618002F16D07F1E002220462946394B00F0D4FEC8
:2010A00004460D4602F0E0F80999095C3246761C517002F073FC02F018FE04460D46E6E724
:2010C0003178099C204602F0BDFD001B08280EDB0196741E089D079F099E2178304602F060
:2010E000B1FD801B0E2805DD2770641EF5E7089D079F04E00999081840782070019E37701B
:201100000A98297B4129049C01D0702100E05021069E059F224602F00AF8AA68501C04D1D5
:20112000384602F0C9FD421EAA6038463146234602F01CFCA8680028029A02D12868000769
:20114000C20F38463146234601F0A4FC287B412801D0782000E0582021684A1E2260087017
:201160002068411E21600399017025B0F0BDC0460000F07F0000F0FFAC3E0000BD3E00002F
:2011800000003040F0B5A3B003930F46044604929168002903D0002904D5062100E00121FC
:2011A0000498816007910AA83021089101700025204639462A462B4601F072FD0121002878
:2011C000059101D0C8074740624E20463946604A334601F083FD002809D000222046394621
:2011E0005E4B00F0CFFB04460F466D1CEDE75A4E0022204639460992134601F047FD002890
:2012000011D1002220463946334601F049FD002809D0002220463946504B00F015FE044645
:201220000F466D1EE4E702950AA8451C2046394602F01AF80695294601F0A2FE079988426B
:20124000019004DD481C0AA90A18085C1FE0C9430E180AA90D18681C07902046394602F084
:2012600003F802F09BFB02460B462046394600F077F80022394B00F0E7FD04460F4601F004
:20128000F3FF079A30306870761C1546E3D3C0B23528039E049F029B099D0FD31446501EE0
:2012A0000178491CCAB201703A2A03D330210170401EF5E70AA98842224640D00198C418C3
:2012C00015700220C043844202DBB868844207DD601E397B891EC9B2324601F028FF0124EE
:2012E000069802F0E9FC401E0599A0421ADB0028089A01D4069A125C1346303B5D1EAB41CE
:20130000C9431943C90705D13978090702D40025059905E031684B1E33600A70012500212A
:20132000401EE2E73868082202402A43501E824106982146334601F0ADFB23B0F0BD501ED7
:20134000002101700198C018441C0AA80690B8E70000C0FFFFFFDF410000F03F00002440D3
:20136000FCB40124E407634002E0FCB40124E40708B41D03ED08D60D354356025F007F0DF9
:2013800006D12C00344300D0AEE001B0FCBC7047A408254307242402FF34A74205D10020DE
:2013A000190D090501B0FCBC7047002B03D50024A61BAC4125000B03DB08C20D1343420285
:2013C0004800400D07D11C00144300D08CE00EBC1000F0BC7047012464072343072424026D
:2013E000FF34A04205D10020090D090501B0FCBC7047002903D50024A21A9C412300C11BE1
:2014000008D51C002B0025001400320026000024611A3800362925D502B4393949420C0028
:20142000203C03D22F008F40374301E03700A740002F01D040210E4302BC20290BD5002942
:201440000ED04C42203420B4A5402C0020BC0D41CE40361904E000292E000D4120390E412F
:2014600092196B411C0014433ED00024002B04D5012400218A1A99410B00401E52005B4151
:20148000FBD50121890215000D400CD0521800277B4101D3401C0BE00721C90115000D40D5
:2014A00001D189008A43072109028A4352005B41801C19DD07210902FF31884209D30EBCB1
:2014C0000020C90F0902FF31C900C91D0905F0BC7047190B00050143E40721431805120BC3
:2014E000104301B0FCBC70470021002001B0FCBC7047FEE7F0B587B01D46164630240590AF
:2015000004700027104619463A463B4601F0C8FB0028019402D00120C00745400D98049091
:201520000C9803903F4C304629463D4A234601F0D5FB002809D00022304629463B4B00F0D5
:2015400021FA06460D467F1CEDE70598441C0022304629460692134601F098FB002811D1DF
:20156000002230462946304B01F09AFB002809D00022304629462D4B00F066FC06460D46F2
:201580007F1EE4E70398C01903903046294601F06BFE214601F0F4FC02942418C01904990D
:2015A00008600398471C012F1ADB3046294601F05BFE02F0F3F902460B4630462946FFF71F
:2015C000CFFE0022194B00F03FFC06460D4601F04BFE3030611C20707F1E0C46E5D100E0C2
:2015E0002146481E0278352A0DD3891E019C0A78521CD3B20A703A2B02D30C70491EF6E738
:20160000059A914204D006990170029807B0F0BD0699017004990868401C08600598F5E71C
:201620000000C0FFFFFFDF410000F03F00002440F0B5A1B0049305469068002801D5062046
:2016400090600290039200243D4F2846224606913B4601F039FB06990028264614D1002672
:20166000384F284632463B4601F024FB069900280AD1002228460592134601F007FB069BB6
:2016800000282E461F4622D12F4D02F03BFB01F007FB002809D00022304639462B4B00F041
:2016A000D3FB06460F46641EEFE7284D02F02AFB01F00AFB002807D002F024FB00F062F986
:2016C00006460F46641CF1E735463B46059407A802990091019008A82A46FFF70BFF0446A6
:2016E000079D022D0DD1059D6D1C204602F0E4FA2018401E0021017028460125049E039FD8
:2017000002E0049E039F0598397B324601F00FFDBA6820462946334602F028F9204602F002
:20172000CBFA854203D138680007C20F00E0012220462946334601F0ADF921B0F0BDC04665
:201740000000F07F0000F0FF0000F03F00002440F0B589B00593039201910090119807902B
:20176000109806900F9804900E9802903A4E08A930200870394801252A4601F04BFB3848E9
:2017800001680822914301603068800605D43068800602D430688006F6D5324B324933483A
:2017A0003246083A17681F4024371760371F3C680C4024183C60346864060CD534686406B4
:2017C00009D534686406F6D405E03468A40605D43468A40602D43468A406F6D514681C4052
:2017E0002523234313603A680A4002433A60306840060CD53068400609D530684006F6D4DA
:2018000005E03068800605D43068800602D430688006F6D57068C1B2C909009A1170410690
:20182000C90F019A11708106C90F039A1170C106C90F059A11700107C90F029A1170410733
:20184000C90F049A11708107C90F069A117005400798057009B0F0BD18320F4000200F4049
:2018600028300F4000F8FFFFF8FF00F007000100FEB5002905D03D4C0027072C03D83E46E9
:2018800003E000276FE02646083E8E426BD30197431E08221842074600D01746072800D831
:2018A0001746C81D029007253148006880473148017800290BD10121092C01D2002203E05A
:2018C0002D4A0023936016602C4B1A6001700298A8430290781E7942284C2568002D34D009
:2018E0002C46083406190E40B44210D02A4610323346083B9A4201D9F619F9E72A6801232E
:201900009A43A218029BF3189A42E6D306E02A6801239A43029B9A42DFDB2646284602F07B
:2019200055F9A64216D0301B083829680122D3431940091A286018402F1811430839B960E5
:201940000837284602F06AF805E00D4800688047019F08E02F463846029901F065F9084868
:201960000068804708373846FEBDC046000800004C0A2020600A202000002020600C202086
:20198000500A2020FCB40C005C40E40FE40710B41D032D0B56006D415F007F0D73D0012404
:2019A0006405254307242402FF34A74261D00B031B0B42005B414800400D64D0012464054F
:2019C000234307242402FF34A04252D0C01B002100273624AB4200D1B24204D37F414941C9
:2019E000921BAB4101E07F414941641E06D0002B01D1002A02D052005B41EBE7202C07D2ED
:201A0000162C0AD33900A7402026361BF1400BE0203C3900A140002706E0A1402026361BD9
:201A20003D00F5402943A74001246405214202D17F004941401E00247F1C61410124A40587
:201A4000214202D0401CA14301E06408A14303242402FF34001916DD2419A04209D8CC0781
:201A60004908000501437808204310BC2143FCBC704702BC0020C90F0902FF21C900C91DBA
:201A80000905FCBC70470021002001B0FCBC7047F0B585B00F4606460024E54338480068B9
:201AA0008047384601F05CF8002863D0B8680397F968325D641C002AFBD10095039D6A6919
:201AC000072302931A40671E042A01970CD10024002F47D0286831193A4601F0C7FF002822
:201AE00042D404193F1AF3E70B1A3C46002C39D09C42274600D31F466969029A1140022937
:201B0000049311D1002B07D00021725C0A2A06D0491C8F42F9D107E000252F4605E0721861
:201B200002D04F1C012500E0002531463A4602F0F7F803998868C0198860F619E41B002DDD
:201B40000D46049B01D1DB1BD0D1284601F0C6FA002809D1A868E9680B1A696920220A4322
:201B60006A61C3E7019D05E068690121890201436961009D034800688047284605B0F0BDFA
:201B80004C0A2020500A2020B0B5401E04286BD87844007940008744024522390C00334C76
:201BA000012001F0FBFC6425284601F0B7FC1E2008E02E4C012001F0F1FC6425284601F0FA
:201BC000ADFC282001F02AFD284601F0A7FC0B2001F004FD284601F0A1FC254838E0192023
:201BE0008401032001F0DAFC6425284601F096FC2D2001F013FD284601F090FC0D2001F0A5
:201C0000EDFC284601F08AFC1A4821E0042001F0C5FC642001F082FC302001F0FFFC7D20F1
:201C2000C40017E019208401022001F0B7FC6425284601F073FC142001F0F0FC284601F09E
:201C40006DFC0D2001F0CAFC284601F067FC0A4801F0E2FB6425284601F060FC204601F0BA
:201C60007DFC284601F05AFCB0BDC0466C070000000086420000884200004042F8B5002867
:201C800067D00446334800688047083C324E002231461546306801270246BA43B618083650
:201CA000A1420A46F4D32D4B2B4A072B01D99A18083A964200D90026A14247D1C00745D08F
:201CC000002D0AD029683940284600D00020002E06D100292AD100260BE0002E26D0002017
:201CE0003178C907314600D0002100280BD00E460546284601F06AFF002E08D101F0C6FFDC
:201D0000801808300FE0002500292F460ED0304601F05CFF002F0DD001F0B8FF33680B4007
:201D20008018C018103028602C460CE020680121884307E020680121C943084032680A40CF
:201D4000801808302060204601F068FE044800688047F8BD4C0A2020000020200008000068
:201D6000500A2020F0B581B0002941D04A1E93B2344C5C43630C03245C43121B521C93B2D8
:201D8000032B01D0144600E000242D4A032B009101D10B4629E000250B46214606E09B1E08
:201DA0009761801CAD1CACB2B4421ED006781768FF0705D01768FF0702D01768FF07F6D109
:201DC0009661471C01262E43B4B28EB2B4420AD03F781468E407E2D01468E407DFD0146839
:201DE000E407F6D1DBE75B1E38460099032906D201B0F0BDDB1E9161C01C1904F8D0017858
:201E00001468E40705D01468E40702D01468E407F6D1916141781468E40705D01468E407D1
:201E200002D01468E407F6D1916181781468E407E0D01468E407DDD01468E407F6D1D9E79E
:201E400008111040ABAA0000FCB50C005C40E40FE40710B4DD02540D2543D6025F007F0D5E
:201E600060D00124E407254307242402FF34A74250D0CB02440D2343C2024800400D51D02F
:201E80000124E407234307242402FF34A04241D0C01901B41800290001F076FC0F0001B45F
:201EA0001800310001F070FC03000C001000310001F06AFC06001000290001F065FC05003F
:201EC0007618002202BC01BC55415141A419554151418024A4005B195141FF18514100D5FE
:201EE00064003F19514102D47F00494100E0401C03242402FF34001B14DD2419A04209D8ED
:201F00000305F80A4C0520434900090B194310BC2143FCBD0020FF21C900C91D090510BC98
:201F20002143FCBD0021002001B0FCBDF0B585B01E4614460391054600200490C7432F482D
:201F4000006880472868401C4BD00294042C324601D0002A45D001972B1D68686F6900284D
:201F60000ED0390705D5401E0093FFF787FE009B3246082087430498186058609860D860FC
:201F80000120029C012C00D8044607218F4327436F61FF2A164600D906020398002804D002
:201FA000012A02D0401C18600CE0761C30461C4601F090FE2060002819D0401C686008219D
:201FC0000F436F618119491EA860E96028610C48006880470948006880470A480A490160FB
:201FE000049F074800688047384605B0F0BD0120800207436F61019FF3E7C0464C0A20200D
:20200000500A2020380A202069380000F8B515462A4E0A0D771C3A40294B9A4213D00C46DA
:20202000002A18D10122D2079443044344D00022244BFFF709FF0C4623498D4208DC234AF2
:20204000234B214636E002460B46FFF78EF9F8BD220D3A40363A5119B1420ADD01F05CFE22
:20206000222101600120C00704401D4821180020F8BD012904DB174A144009052143F8BD38
:202080003522D24391420CDC01F046FE2221016012488542E6DA0120C007044000202146AC
:2020A000F8BD0C4A144009051B225205891821430022094BFFF7C8FEF8BDC046FE07000028
:2020C000FF07000000005043AF3CFFFF59F3F8C21F6EA501FFFF0F800000903C51C30000D8
:2020E0000000F07FFCB40127FF07794002E0FCB40127FF070C024D002D0E03D1002C52D161
:20210000FCBC70473C43FF2D50D0A408002900D56442020243001B0E04D1002A43D10800AA
:20212000FCBC70473A43FF2B41D09208002800D552425E1B04D5170022003C0076422B00A3
:20214000192E06D527003741D2191C27F71B7F42BC40002A27D002D55242012700E0002706
:20216000013B5200FCD51500802635400FD01500202635402C43803208D215004026354036
:202180002C4304D101263602B24300E05B1C5200023308DDFF2B0BD2500ADB051843FF0742
:2021A0003843FCBC70470020FCBC70470800C70FFF07FF20C0053843FCBC7047F0B58B4282
:2021C00000D1824204D90B0002000021002040E0002B00D1002A0CD10B00020000210020CE
:2021E000002B00D1002A01D0C943C04300F085FC2FE01C0015000B0002000CB40021260014
:202200002F00FF19764102D2491C4029F9D100201E001700FF19764102D2401C4028F9D1CE
:202220000E1A21002800320001F0A4FC0C0005000CBC00200021A34200D1AA4201D3521B6D
:20224000A341404149416D08E7073D436408761EF1D5059F002F01D03A607B60F0BD002AF6
:2022600049D084468B071CD1830722D1102A08D370B4103A78C978C0103AFBD270BC1032FE
:2022800038D0042A2CD3082A05D30C2A01D308C908C008C908C008C908C092072AD0920FF6
:2022A00022E00B780370491C401C521E22D08B07F7D1C30714D18307D8D0121F12D308C9E1
:2022C00003801B0C4380001D121FF8D20AE008C903701B0A43701B0A83701B0AC370001DE6
:2022E000121FF4D2121D05D00B780370491C401C521EF9D16046704770B5014311432FD0D9
:202300000446104601F0C8F91C4900F015F91C4900F082F80546204601F0BEF90646284626
:202320003146FFF7E4FE01F04DFA044630462946FFF7D8FE01F046FA03461248844200DCA5
:2023400004467D21C9008C4211DA834212DD8B4200DB0B4600202146024600F039FF70BD42
:20236000002001460246034600F032FF70BD0C468342ECDC03468B42EBDAEBE700007A44CD
:2023800000003C4318FCFFFF10B51D491D4C204601F062FC1C49204600F08CFF1B48016851
:2023A0000322D203914301600169194A0A40911C016141690B220A4334218A434261426835
:2023C00001210A4043688B439A184260114A1368112424031C431460CB02136602684B04C0
:2023E00013430360C26870231343C360C2680A4306239A43C26002680A43026010BDC04663
:20240000363F0000000010402A3F0000001110400000FFFF28101040FCB40127FF070600C3
:202420004E4001D4002600E03E00020243001B0E30D03A43FF2B30D00C024D002D0E29D04F
:202440003C43FF2D29D05B194240504042404C4061404C4000B501F097F920BCAE4642408F
:20246000504042404C4061404C4025001400002C01D46400013B803401D3013364087E3BD6
:2024800008DDFF2B09D2BC43200ADB0518433043FCBC70470020FCBC7047FF20C005304326
:2024A000FCBC70470A46002180B500F052FC80BD024670B50A4392072AD11E4DEE0104C818
:2024C00008C9541B9443344017D0D0B2D9B2401A2106014310D190B299B2401A2104014387
:2024E0000AD110021902000A090A401A2102014302D1100E190E401A70BD9A42DFD010BA02
:2025000019BA884201D9012070BD0020C04370BD02780B7801300131002A09D09A4207D18F
:2025200002780B7801300131002A01D09A42EFD0D01A70BD01010101FCB40127FF070600A6
:202540004E40F60FF607020243001B0E2DD03A43FF2B2DD00C024D002D0E26D03C43FF2DA3
:2025600026D05B1B0020202164085208A2424041A24200D3121B013904D0002A01D0520024
:20258000F4D18840384201D14000013B803001D3013300E040007F3307DDFF2B08D2400A2A
:2025A000DB0518433043FCBC70470020FCBC7047FF20C0053043FCBC70477047FEB50446F5
:2025C0000025EF430168481C06D002916669204600F084FD002802D03D462846FEBD012001
:2025E000000306400196207D000707D56068401EFFF744FB60690821884360616560A560D8
:20260000E560206800F0BCFD0546276001980028E3D0064800688047029800010449081879
:2026200001F086FB034800688047D6E74C0A2020840B2020500A2020F8B5451C0078002349
:20264000082B32D02F78C2070CD16A780F241440E41C122C0BD102242E57F4B2002E08D41A
:20266000EE1C0EE06D1C4A1C0F7011461AE0AE1C08E02E1DED7800957F252C40009DED0111
:202680002C1912343D0112095219094DAA420ED0D243002C05D08D5C4F1C0D70641E3946E3
:2026A000F7E7354640085B1CCAE72846C5E7F8BDFF0F0000FEB502930F46194D0024E14329
:2026C000184E00973740019043422B46BB4101D20C4623E0084602990E405342B54101D246
:2026E00004461BE0134601990B433E431E43029D009E13D02B46334004D401998B1A3346DE
:20270000AB4103E00199531A2B46B341044605DB51406E400E43701E864134462046FEBDD4
:202720000000F07FFFFFFF7F80B501F05DFA80BD0CB41B4B4A00D21A1BD2000D0A0310433E
:2027400001221202801802D3400812038918400A002902D50122D20710434900490D382245
:202760001201891A0CD4FF290DD2C90508430CBC7047DB431A40024305D0D8430CBC7047F8
:2027800000200CBC7047C90FC907FF20C00508430CBC7047C046C046C046C046C046C04620
:2027A0000000E0FF10B51549154C204601F054FA1449204600F07EFD134801680322D20325
:2027C000914301600169114A0A40911C016141690B220A4334218A434261416801221140A0
:2027E000436893435918416009490B6894021C430C6001681143016010BDC046343F0000BC
:2028000000801040203F0000009110400000FFFF28901040F8B515460E4607461548006834
:202820008047154C2770380A6070A670300AE070300C2071300E6071A571280AE071F4209E
:20284000002521462A462B4601F042F82046294601F024F82078617809020818A17809043C
:202860004018E178090644180448006880472046F8BDC0464C0A2020560C2020500A2020CE
:2028800070B59AB00D46064615480068804701AC2046314601F009FA304601F014FA06465F
:2028A0002018401C294601F000FA284601F00BFA3018831C0B4DF7202946224601F008F8A8
:2028C0000021284600F0EAFF287869780902081804B205480068804720461AB070BDC0464F
:2028E0004C0A2020560C2020500A202070B514460D4606461648006880473068401C1FD078
:20290000012C08D1307DC00605D5B068002802D031694019451A304600F0E0FB70690521C0
:2029200049028843706130682946224601F08AF80446084800688047601C06D0002404E0AB
:202940000448006880470020C443204670BDC0464C0A2020500A2020FEB504460068002186
:20296000425C002A17D03A2A01D0491CF8E74618134D22D008290F4600DB0827002912D0E4
:202980006A46394603781370002B06D0521C401C491EF7D107E00A4D0FE0022903D3501C76
:2029A000491EFFF77FFD68460021C15500F0C4FF002802D0711C216005462846FEBDC04624
:2029C00070092020F8B50446164F174D0E462E400120009464423C46B4411AD31D4054420A
:2029E000AF4116D31046009C20433543054311D00020C0431C460C400ED4009CA41A0C46A9
:202A00009C4106DB0098504059400143481E81410846F8BD0020F8BD009C141B1C468C41F9
:202A2000F0DAF6E70000F07FFFFFFF7FF0B585B014460F4600F032FD04900E46384600F006
:202A40002DFD07460D46204600F028FD00970195029003910D4C0E492046049A334600F0C1
:202A6000CDFE0020215C00290AD021184A78002A05D08978C01C0029F4D1401E00E0401C8C
:202A800081B20248FFF76EF905B0F0BD240C2020843E0000F8B51C4617460E46054601F0CC
:202AA0000BF90021012E03DBB04201DBA919491E002F04D02268531E23602E231370324620
:202AC000824206DD23685F1E276030271F70521EF6E7B04200DB3046012808DBA9420BD375
:202AE00008782268531E23601070491EF6E72068411E216030210170F8BD704714481549C4
:202B000041600160416801225206114341600168114301600146403982220A6001463C39F2
:202B20000D4B0B60014638390A60014634390B6081218160021F11600246083A11600C383D
:202B40000160272000030549086008647047C0469480424084000C008200040090120A4053
:202B600010B5044601680020491C25D06269D10623D4100605D500210222204601F0D4F872
:202B80006269900604D4500602D52020024362616168012000290DD1042111400AD1032022
:202BA00002400120030200212046FFF7BFF9014640424841E168216110BD012189020A4394
:202BC000626110BD00F0F4FF0F4800F0AFFF012040030E4908600E490A68022313430B60BB
:202BE0000C4908600520FEF7CFFF0B480B490C4AFFF71CFF0B4800F099FFFDF749FFFDF717
:202C000047FFFDF745FFF8E7DF3E000080E200E000B2424000E100E03333F33FCDCC4C3E48
:202C2000CDCC4C3F6C3E0000F8B50446026801251046A843401A102821D366180838B060AA
:202C40000836A843371808370E4A0F48072A01D910180838009187420DD23878C0070AD110
:202C6000384600F0B3FF3068E94308403A680A40801808303060304600F0D0FE009A2A43A1
:202C80002260F8BD000800000000202010B5FFF799FE002801D0002010BD012010BDC04689
:202CA00010B5FFF78FFE002801DB002010BD012010BDC04610B5FFF785FE002801DD002083
:202CC00010BD012010BDC04610B5FFF7F3FC002801DA002010BD012010BDC04610B5FFF7EA
:202CE000E9FC002801DC002010BD012010BD704710B500F02BFD002801D0002010BD012074
:202D000010BDC04610B500F021FD002801DB002010BD012010BDC04610B500F017FD002837
:202D200001DD002010BD012010BDC04610B500F0D1FC002801DA002010BD012010BDC0466E
:202D400010B500F0C7FC002801DC002010BD012010BD8446830706D0002A29D0017001302C
:202D6000013A8307F8D1042A1CD30906090E0B0219430B041943082A10D30B00102A09D378
:202D800070B40F24161B22400C000D003AC0103EFCD870BC082A01D30AC0083A042A01D3D4
:202DA00002C0043A002A03D0013A8154013AFCD260467047F8B514460F4606461248006836
:202DC0008047124D2C70200A6870AF70380AE8700023F05C5B1C0028FBD1F02029463246A5
:202DE00000F076FD0021284600F058FD287869780902081805B2064800688047002D00D4BB
:202E000025462846F8BDC0464C0A2020560C2020500A2020F0B581B0002A22D091235B014A
:202E2000C3180F200402901E0090561E0020DF6927421BD00F5C1F60864210D0DF692742D1
:202E400011D00F187D781D60009D854207D0DD6925420AD0BD781D60C01C8242E7D11046D6
:202E600004E0002002E0401C00E0801C80B201B0F0BD000070B514460F4D0B462B4000224B
:202E800022600E4EB34215D81E46064312D01E0D07D100220A4BFEF7D7FF0D403522D243E5
:202EA0002B461B0D9A18074BD2182260064A0A400649511870BDC046FFFFFF7FFFFFEF7F9C
:202EC0000000504302FCFFFFFFFF0F800000E03FF8B516460C460746104800688047FF2E5B
:202EE00001D9012006020E4D2F70380A6870AE70300AE870F22000222946134600F0E8FC3B
:202F00002846214600F0CAFC287869780902081804B20448006880472046F8BD4C0A202098
:202F2000560C2020500A2020F8B515460C460746104800688047FF2D01D9012005020E4E9D
:202F40003770380A7070B570280AF070F320314622462B4600F0BCFC0021304600F09EFCC5
:202F6000307871780902081804B20448006880472046F8BD4C0A2020560C2020500A202077
:202F8000F0B587B00191064602AD0020E874123537460A243846214600F04AF84443391B68
:202FA000CA175140891A3031297009376D1E122F0746EED8002E01D46D1C01E02D20287091
:202FC00002A8441B224614320198294600F0A8FE1334204607B0F0BDF0B5FFB086B01C469F
:202FE00015460246A868002801D50620A8602368039304AB0090019305A80B46FEF77AFA97
:203000000646049FAA683946234600F0AFFC20680399814201D0012202E028680007C20F07
:20302000304639462346FFF735FD7FB006B0F0BD1CB5002922D04C08002900D5494242105D
:203040005440002800D5404200230A00904201D95200FBE790425B41904200D3801A9142D0
:2030600001D25208F6E71900002C00D54042640000D549420200080011001CBD01000020D1
:20308000FFF79BFA1CBD000080B51149114800F015FD11480168032252020A43026002688E
:2030A00001210B02134303600022426107224262836B93438363836B120293438363826A42
:2030C000042313438362826A0A43826280BDC046513E000000200F4000320F4070B5044640
:2030E0000025EE430068411C18D06168626993060BD5002909D0A3688B4206D05A1A00F0AC
:20310000B5FC00280DD4616862692161A160500605D5302082430025626100E035462846E8
:2031200070BD606901218A0202433546F4E77CB515460C460646C01731464140081A0092A3
:2031400000210A226423FDF751FC30460930122808D8DF202040502804D02868411E29606E
:2031600030210170002E01D42B2000E02D2029684A1E2A6008702868411E296004707CBDF2
:2031800070B50026F44300281AD40546092817D80C4800688047E8000B4A115800290CD0FE
:2031A00015180969686888470446401C05D0286841890122914341812E600448006880473A
:2031C000204670BD4C0A2020E8092020500A202070B582B00D460646009201930D4C0E492F
:2031E000204632462B4600F009FB0020215C00290AD021184A78002A05D08978C01C0029EC
:20320000F4D1401E00E0401C81B2024800F012FB02B070BD240C20209A3E0000F0B581B0D8
:203220000646536894689589D0890090176950691C432C433C43009B1843000120430B0198
:20324000F3180924640218511078527889007118024304480B58BF24A34322409A180A50D8
:2032600001B0F0BD101100000CB54A00520D03231B02FF33D21A13D31F239A1A12D98E4669
:20328000C9020123DB071943D1400B2A02D21532D04001437346002B00D5494208000CBD37
:2032A00000200CBD0B000120C007002B00D401380CBD000070B511221302C218C4580125A8
:2032C000AC43C4500C888D7825438C882C43C558084E2E40084D2540AC19C4508879CB79AE
:2032E0000343087A184351687E23994318400818506070BDE798FDFF18670000B0B5054676
:203300000D48006880470D4C2570280A6070F120002521462A462B4600F0DAFA2046294622
:2033200000F0BCFA207861780902081804B20448006880472046B0BD4C0A2020560C20200F
:20334000500A2020B0B504460D48006880470023E05C5B1C0028FBD10A4DF5202946224693
:2033600000F0B6FA0021284600F098FA287869780902081804B20448006880472046B0BDEC
:203380004C0A2020560C2020500A2020B0B50A480A4941600A4A51600A4B59600A4C616086
:2033A0000A4D69600A4901601160196021602960102000F095FCB0BD00080A40030000B121
:2033C00000280A4000280F400088104000081040010000260B480068C0B20B2810D10A481A
:2033E00000680A490A887E2A05D80A88531C0B800749885401E000200880064801210170D9
:203400007047C04620901040249110405A0A2020F00820205F0A202010B500F03FF8024631
:203420000B460C4C0C49204600F0E8F90020215C00290AD021184A78002A05D08978C01CE0
:203440000029F4D1401E00E0401C81B20148FEF789FC10BD240C2020CE3E00001CB50A00CA
:2034600017D000230124E407A04200D20400944201D95200FBE790425B41904200D3801AE9
:20348000914201D25208F6E719000200080011001CBD01000020FFF790F81CBD08B44300CB
:2034A0001B0E0FD0FF2B11D00721C9015B18C10FC9020B43010048074902090B1B05194380
:2034C00008BC70470021002008BC704701004002C90DC900C91D090508BC704710B50E4948
:2034E00002788B185B78401CDB06F9D400212D2A04D02B2A02D0401E134600E00378303BE2
:20350000092B04D80A244C431919401CF6E72D2A00D14942084610BD503D0000B0B50E495C
:203520007D22120242430B68262006E00D1F2D68E41A6419201890420DD21C460B68A342D5
:2035400005D10B68A34202D10B68A342F6D09C42ECD9E41AEEE7B0BD18E000E010B5024684
:203560000C4C0D49204600F049F90020215C00290AD021184A78002A05D08978C01C002965
:20358000F4D1401E00E0401C81B20248FEF7EAFB10BDC046240C2020EF3E000010B50246F8
:2035A0000C4C0D49204600F029F90020215C00290AD021184A78002A05D08978C01C002945
:2035C000F4D1401E00E0401C81B20248FEF7CAFB10BDC046240C2020093F000010B50246BD
:2035E0000C4C0D49204600F009F90020215C00290AD021184A78002A05D08978C01C002925
:20360000F4D1401E00E0401C81B20248FEF7AAFB10BDC046240C2020143F000010B5024691
:203620000C4C0D49204600F0E9F80020215C00290AD021184A78002A05D08978C01C002905
:20364000F4D1401E00E0401C81B20248FEF78AFB10BDC046240C2020FD3E00000C48002121
:2036600001600C48014608390A680323DB4313400B6001680122914301600168130299437E
:203680000160001F016812030A4302607047C04608030B4008010B4006B49E22002802D49E
:2036A00004D106BC7047414204D400E00100013A4900FCD5803101D3013200E04900490AF7
:2036C000D2051143002802D50122D2071143080006BC704740B542004B005E08164301D0DD
:2036E00006004E4000D4D01A04D20120C90F06D1404204E003D90120C90F00D04042FF2620
:203700003606B24200D8B34201D90120404240BD70B50A480A4C84420CD00A4D0A4EB5421D
:2037200008D02A686968501C12789200A25890470835F4E700BF00BF70BDC046B43F000039
:20374000A83F0000BC3F0000CC3F000040B542004B005E08164301D006004E4000D4D01A18
:2037600004D20120C90F06D1404204E003D90120C90F00D04042FF263606B24200D8B342F4
:2037800000D9012040BD0000FCB4020C0B0CFF242402FF34204021400C00444315005D43D8
:2037A00006005E430F005743320C3B0CA818C01832043B040025A1186841C9186841FCBC5E
:2037C0007047000006B54100090E7F390DD41F22511A0CD9864600020122D2071043C840D0
:2037E0007246002A00D5404206BD002006BD02000120C007002A00D4401E06BD82B0F8B502
:20380000069207930291019006A9039107480090074B02A801AAFCF753FC019900220A7011
:2038200004B080BC02BC02B00847C046013C00000F3D0000084A1378002B0CD0074B58605C
:2038400007489860D9601868022101431960002010700449087070475E0A202000B2424090
:20386000201110405D0A202070B50A4C2046FEF7A5FE1834084D28680126864209DA21681B
:20388000002903D42046FEF799FE2868761C1834F3E770BD00082020440A2020B0B50B4A31
:2038A00013680024082C04D015192D790555641CF8E7002909D00C32002B06D010784C1CA3
:2038C00008705B1E521C2146F6E7B0BD640A202070B50B4C236020710020082804D00D5C0D
:2038E00026187571401CF8E70D34002B06D0501C117821705B1E641C0246F6E700BF70BD97
:20390000640A20200446094800688047084D6968002901D0204688472868002800D080478B
:2039200004480068804700F00BFAC0464C0A2020380A2020500A2020F8B5044600780025CB
:2039400000280ED000952827074E782F08D0F51928462146FEF7ACFD002802D02837F4E7F4
:20396000009D2846F8BDC04670092020F8B51C4615460646571800F09FF9711E012D0CDB77
:203980003022012F02DB874200DCCA5D23685E1E26601A707F1E6D1EF0E7F8BD04B4042253
:2039A000002802D1002104BC704701D50832404212021F320100521E4900FCD30805090BD3
:2039C0001205114304BC70471CB5019007480068804701A8FEF7C0FF016A019888470446AB
:2039E00003480068804720461CBDC0464C0A2020500A202006480068C0B20D2803D011286F
:203A000004D1054800E00348012101707047C046201010405E0A20205D0A2020B0B501686C
:203A200001229143064B1C68002C06D0256895438D4202D208342346F5E784601860B0BD66
:203A4000600C2020B0B503460020C043002B0AD4092B08D8DB00044CE558002D03D0ED690E
:203A6000E0184068A847B0BDE8092020B0B503460020C043002B0AD4092B08D8DB00044C00
:203A8000E558002D03D0AD69E0184068A847B0BDE8092020084880F3088800BF00BF00F0E5
:203AA0004DF9002801D0FFF733FE0020FFF78AF80120FFF727FFC0460080202070B50122BD
:203AC000120383180C785D680C26B54334402C195C60497883580724A343214059188150FE
:203AE00070BD80B5FFF752FCFFF708F8FFF7B6FDFFF7CAFAFEF756FEFEF746FCFEF714FE40
:203B000000F048F880BD000030B514004C4325001C0044436419050010002900FFF734FE05
:203B2000001904000D002100280030BDB0B5064C18342146FDF7ACFF054604482146FDF72A
:203B4000A7FF4019B0BDC04600082020383F0000B0B504460020002B08D0D2B20D782570C4
:203B6000954204D0641C491C5B1EF7D1B0BD601CB0BD000018B520239B1A04D8010000205C
:203B80005B42994004E004009140DC402143904018BD00000548042101601F2141600021FC
:203BA0008160016805220A430260704710E000E080B5FFF796FF0120C003024908600249BC
:203BC000086080BD80E200E000E100E0054A1368002B06D011461A4608328342F7D180680C
:203BE00008607047600C202080B5034A03480021FFF714FB80BDC046543E000000A0424010
:203C0000B0B514460D460146286800F089F82868001928602046B0BD03228058002805D04C
:203C2000401E4A1C00230B701146F7E77047000040B584B002AE0096FEF7C0FA029A039BDE
:203C400004B040BDC9B202788A4204D0002A01D0401CF8E70020704710B501221203831879
:203C60000C789C604978815010BD80B50B4603214258C11D184600F053F880BD00214258B2
:203C8000091D002AFBD1081F8010704728680121C943084022680A40704700000B46114661
:203CA0001A4680B5FFF755F880BD00228B5C8354521C002BFAD170470021425C491C002AA6
:203CC000FBD1481E70470021425C491C002AFBD1481E704780B501460820FDF7C9FD80BD29
:203CE000811E091F00BFFCD2704702460B4620462946FFE782B00094014C019410BD00BF31
:203D0000611300000022304639462B4670470A68531C0B601070704700487047480A2020DC
:203D200080B5FEF79CFA80BD80B5FEF7DFFD80BD80B5FFF749FE80BDACE670470120704773
:103D400000BFFEE7000000000000000000000000CF
:203D5000008080808080808080809090909090808080808080808080808080808080808083
:203D7000801804040404040404040404040404040402020202020202020202040404040437
:203D9000040443434343434341414141414141414141414141414141414141410404040455
:203DB000040423232323232321212121212121212121212121212121212121210404040475
:203DD000800000000000000000000000000000000000000000000000000000000000000053
:203DF0000000000000000000000000000000000000000000000000000000000000000000B3
:203E1000000000000000000000000000000000000000000000000000000000000000000092
:203E3000000000000000000000000000000000000000000000000000000000000000000072
:203E500000080000140000000000000000000000000000000000030000000000496E69749F
:203E700069616C697A6174696F6E20537563636565640D00246D7069643A252E33662C25D0
:203E90002E33662C252E33662300247370643A25642C25642C25642C2564230030313233DA
:203EB000343536373839414243444546003031323334353637383961626364656600247719
:203ED0006469616D657465723A252E33662300706C6561736520776169742E2E2E0D002434
:203EF000646561647A6F6E653A25642300246D70686173653A25642300246D747970653A6D
:203F100025642300246D6C696E653A25642300000000180000000030000000001800000066
:103F300000300000040004000A000000000000003F
:203F4000005500000F0112014001018F012202C01502030F01240440FF000004BF02017F5D
:203F60007EFE013F780200B52D0000FDFF320000D12E000029FF2F00001528000045CF3321
:203F800000008100700BBF3E700983202000751DB100F11CBF02133F2203062444EF2C00DB
:203FA0003325372451FFF000392600006B3C0000193C00000200000006020000403F00002A
:103FC00000082020B43F0000640A20200000000008
:00000001FF
