:020000040800F2
:1000000068750024AD020008E1470008913F000830
:10001000D9470008C9030008E96000080000000093
:10002000000000000000000000000000494E000831
:10003000D103000800000000A14A0008A94E0008F2
:10004000C7020008C7020008C7020008C70200086C
:10005000C7020008C7020008C7020008C70200085C
:10006000C7020008C7020008C7020008C70200084C
:10007000C7020008C7020008C7020008C70200083C
:10008000C7020008C7020008C7020008C70200082C
:10009000C7020008C7020008C7020008C70200081C
:1000A000C7020008C7020008C7020008C70200080C
:1000B000C7020008C7020008C7020008C7020008FC
:1000C000C7020008C7020008C7020008C7020008EC
:1000D000C7020008C7020008C7020008C7020008DC
:1000E000C7020008C702000800000000C70200089D
:1000F000C7020008C7020008C7020008C7020008BC
:10010000C7020008C7020008C7020008C7020008AB
:10011000C7020008C7020008C7020008C70200089B
:10012000C7020008C7020008C7020008C70200088B
:10013000C7020008C7020008C7020008C70200087B
:1001400000000000000000000000000000000000AF
:10015000C7020008C7020008C7020008C70200085B
:10016000C7020008C7020008C7020008C70200084B
:10017000C7020008C7020008C7020008000000000C
:10018000C7020008C7020008C7020008C70200082B
:10019000C7020008C7020008C7020008C70200081B
:1001A000C7020008C7020008C7020008C70200080B
:1001B000C7020008C7020008C7020008C7020008FB
:1001C000C7020008C7020008C7020008C7020008EB
:1001D000C7020008C7020008C7020008C7020008DB
:1001E000C7020008C7020008C7020008C7020008CB
:1001F000C7020008C7020008C7020008C7020008BB
:10020000C7020008C7020008C7020008C7020008AA
:10021000C7020008C7020008C7020008C70200089A
:10022000C7020008C7020008C7020008000000005B
:10023000C7020008C702000800000000C70200084B
:10024000C7020008C7020008C7020008C70200086A
:10025000C7020008C7020008C7020008C70200085A
:10026000C7020008C7020008C7020008C70200084A
:10027000C7020008C7020008C7020008000000000B
:10028000C7020008C7020008C702000800000000FB
:1002900000000000C7020008DFF80CD000F07AF878
:1002A00000480047E161000868750024064880475F
:1002B00006480047FEE7FEE7FEE7FEE7FEE7FEE74B
:1002C000FEE7FEE7FEE7FEE7095000089902000896
:1002D0002DE9F05F0546002092469B46884606467B
:1002E000814640241BE0284641464746224600F00E
:1002F00041F853465A46C01A914110D31146184648
:10030000224600F028F82D1A67EB01084F462246D6
:100310000120002100F01FF817EB00094E41201EBC
:10032000A4F10104DFDC484631462A464346BDE8D5
:10033000F09FD2B201E000F8012B491EFBD27047BA
:100340000022F6E710B513460A4604461946FFF7A1
:10035000F0FF204610BD202A04DB203A00FA02F10B
:10036000002070479140C2F1200320FA03F31943A3
:1003700090407047202A04DB203A21FA02F0002145
:10038000704721FA02F3D040C2F1200291400843A5
:10039000194670471CB50948009009480190054668
:1003A000009C06E0E06840F0010394E807009847ED
:1003B0001034AC42F6D3FFF773FF0000646B000803
:1003C000846B000800000000FFE7FEE7000000006B
:1003D000704700000000000081B0EFF3108072B69B
:1003E0000090FFE7FEE7000080B584B0039000F0C6
:1003F0000BFA0290039801900198013048B1FFE791
:1004000040F22400C2F200400178019808440190B3
:10041000FFE7FFE700F0F8F90299401A01998842D6
:1004200001D2FFE7F6E704B080BD00000000000045
:1004300090B00F900E9100200D908020C5F6000026
:100440000A90FFE70E9800680D99C840002800F058
:10045000CF81FFE70E9800680D9A01219140084076
:100460000C900C98002800F0BF81FFE70E984068C0
:1004700000F00300012807D0FFE70E98406800F065
:10048000030002282FD1FFE70F9880680B900D988A
:100490004100032000FA01F10B9888430B900E985D
:1004A000C0680D99490000FA01F10B9808430B90C0
:1004B0000B980F9988600F9840680B900D99012058
:1004C00000FA01F10B9888430B900E984068C0F336
:1004D00000100D9900FA01F10B9808430B900B984E
:1004E0000F994860FFE70E98406800F0030003286A
:1004F00018D0FFE70F98C0680B900D9841000320BB
:1005000000FA01F10B9888430B900E9880680D99C2
:10051000490000FA01F10B9808430B900B980F99D2
:10052000C860FFE70E98406800F00300022826D15B
:10053000FFE70F980D996FF0030202EA510108449A
:10054000006A0B900D9800F0070081000F2000FA60
:1005500001F10B9888430B900E9800690D9901F0FA
:100560000701890000FA01F10B9808430B900B98E2
:100570000F990D9B02EA530211440862FFE70F989E
:1005800000680B900D984100032000FA01F10B98D0
:1005900088430B900E98406800F003000D994900C5
:1005A00000FA01F10B9808430B900B980F99086023
:1005B0000E9880798007002800F01581FFE7FFE79B
:1005C00044F2F440C5F60200016841F00201016006
:1005D000006800F0020009900998FFE70D9820F0EC
:1005E000030040F20841C5F6000140580B900D98F9
:1005F00000F0030081000F2000FA01F10B988843FE
:100600000B900F980021C5F60201884203D1FFE745
:10061000002008907AE00F9840F20041C5F60201F0
:10062000884203D1FFE7012007906CE00F9840F665
:100630000001C5F60201884203D1FFE702200690BF
:100640005EE00F9840F60041C5F60201884203D1F2
:10065000FFE70320059050E00F9841F20001C5F636
:100660000201884203D1FFE70420049042E00F9882
:1006700041F20041C5F60201884203D1FFE705209F
:10068000039034E00F9841F60001C5F6020188425C
:1006900003D1FFE70620029026E00F9841F60041C3
:1006A000C5F60201884203D1FFE70720019018E058
:1006B0000F9842F20001C5F60201884203D1FFE71C
:1006C000082000900AE00F9942F20042C5F60202AB
:1006D0000A20914208BF09200090FFE7009801908E
:1006E000FFE701980290FFE702980390FFE7039865
:1006F0000490FFE704980590FFE705980690FFE750
:1007000006980790FFE707980890FFE708980D996B
:1007100001F00301890000FA01F10B9808430B90E6
:100720000B980D9921F0030140F20842C5F6000232
:1007300088504FF0B04000680B900C990B9888439C
:100740000B900E988079C006002805D5FFE70C991C
:100750000B9808430B90FFE70B984FF0B0410860EF
:100760000420C5F6000000680B900C990B98884394
:100770000B900E9880798006002805D5FFE70C992C
:100780000B9808430B90FFE70B980421C5F6000176
:1007900008600A9840680B900C990B9888430B905E
:1007A0000E9880798007002805D5FFE70C990B98F3
:1007B00008430B90FFE70B980A9948600A98006875
:1007C0000B900C990B9888430B900E988079C0077A
:1007D00028B1FFE70C990B9808430B90FFE70B98A3
:1007E0000A990860FFE7FFE70D9801300D9029E6B0
:1007F00010B070470000000041F20000C5F6004054
:100800000068000C7047000040F26410C2F2004023
:10081000006870470000000083B0019000910198CB
:1008200090F8410020283BD1FFE7FFE7019890F8BE
:100830004000012804D1FFE702208DF80B0033E0CF
:100840000199012081F84000FFE7FFE7019924208A
:1008500081F8410001980168086820F001000860F3
:1008600001980168086820F480500860009A019897
:10087000016808681043086001980168086840F042
:10088000010008600199202081F84100FFE70199EB
:10089000002081F84000FFE700208DF80B0003E006
:1008A00002208DF80B00FFE79DF80B0003B07047A6
:1008B00084B002900191029890F84100202840D124
:1008C000FFE7FFE7029890F84000012804D1FFE716
:1008D00002208DF80F0038E00299012081F84000D5
:1008E000FFE7FFE70299242081F8410002980168A0
:1008F000086820F001000860029800680068009015
:10090000009820F4706000900199009840EA01205E
:1009100000900098029909680860029801680868C8
:1009200040F0010008600299202081F84100FFE7B3
:100930000299002081F84000FFE700208DF80F00A9
:1009400003E002208DF80F00FFE79DF80F0004B0D0
:10095000704700000000000080B582B00090009851
:1009600020B9FFE701208DF8070073E0009890F8A8
:10097000410040B9FFE70099002081F8400000984D
:1009800000F0AAF9FFE70099242081F841000098BF
:100990000168086820F0010008600098016840685C
:1009A00020F07060086100980168886820F40040B9
:1009B00088600098C068012807D1FFE700980168A7
:1009C000806840F40040886006E000980168806814
:1009D00040F404408860FFE70098C068022806D110
:1009E000FFE7009801684FF400604860FFE7009857
:1009F0000168486848F20002C0F2002210434860D3
:100A000000980168C86820F40040C860009A116826
:100A1000106953699269184340EA0220C860009A3D
:100A20001168D069126A104308600098016808686C
:100A300040F001000860009900204864009A2021DD
:100A400082F8411000990863009981F842008DF8FE
:100A50000700FFE79DF8070002B080BD000000001E
:100A600010B588B084460C980B98DDF828E0CDF8D6
:100A700018C0ADF81610ADF81420ADF81230ADF86E
:100A80001000069890F84100202840F01B81FFE7F5
:100A90000A9820B1FFE7BDF8100040B9FFE70699BA
:100AA0004FF40070486401208DF81F000EE1FFE74D
:100AB000069890F84000012804D1FFE702208DF845
:100AC0001F0003E10699012081F84000FFE7FFE7DE
:100AD000FFF79AFE0390069803996A4611604FF457
:100AE00000410122192303F003FC20B1FFE701209C
:100AF0008DF81F00EAE00699212081F8410006994F
:100B0000402081F842000699002048640A99069A1C
:100B10005162BDF81010069A5185069948630698EF
:100B2000BDF81610BDF81420BDF81230DDF830C045
:100B3000039CEE46CEF80440CEF800C003F04CFB18
:100B400050B1FFE7FFE70699002081F84000FFE77A
:100B500001208DF81F00B9E00698408DB0F5807F28
:100B600011D3FFE70699FF2008850698BDF81610F7
:100B700090F82820EC460023CCF800304FF080732A
:100B800003F08AFB11E00698408D069908850698C7
:100B9000BDF8161090F82820EC460023CCF8003061
:100BA0004FF0007303F078FBFFE7FFE706980C991E
:100BB000039A03F049FC20B1FFE701208DF81F00E4
:100BC00084E006980168406A007888620699486A5D
:100BD000013048620699488D013848850699088D8C
:100BE000013808850698408DE8B3FFE70698008D28
:100BF000C8BBFFE706980C9B03996A4611608021E9
:100C0000002203F075FB20B1FFE701208DF81F00E3
:100C10005CE00698408DB0F5807F11D3FFE7069920
:100C2000FF2008850698BDF8161090F82820EC469D
:100C30000023CCF800304FF0807303F02DFB11E05F
:100C40000698408D069908850698BDF8161090F80C
:100C50002820EC460023CCF800304FF0007303F05E
:100C60001BFBFFE7FFE7FFE70698408D00289DD1BB
:100C7000FFE706980C99039A03F092FB20B1FFE777
:100C800001208DF81F0021E0069801682020C8612E
:100C900006990A6851684EF60003CFF600631940C2
:100CA0005160069981F841000699002081F84200C0
:100CB000FFE70699002081F84000FFE700208DF84B
:100CC0001F0003E002208DF81F00FFE79DF81F00C2
:100CD00008B010BD0000000080B5B8B0379000200B
:100CE0003690359034903390329002A8C021FFF7AF
:100CF00027FB3798006845F60001C4F200018842DE
:100D00003DD1FFE70020039008210291239002A823
:100D100000F07EFC18B1FFE7FFF75EFBFFE7FFE79F
:100D200044F2E040C5F60200016841F002010160B2
:100D3000006800F0020001900198FFE74FF4406066
:100D40003290122033900020349035900420369059
:100D500040F20040C5F6020032A9FFF769FBFFE749
:100D600044F2E840C5F60200016841F480010160E8
:100D7000006800F4800000900098FFE7FFE738B0BB
:100D800080BD00000000000040F22400C2F20040DC
:100D9000027840F26411C2F2004108681044086011
:100DA000704700000000000080B582B0032000F012
:100DB00027F901F01DFF44F21842C5F6020211683E
:100DC000C1F3032346F21231C0F60001CB5C03F0FD
:100DD0001F03D84000900098126802F00F02895C4F
:100DE00001F01F01C84040F22001C2F2004108603A
:100DF000009840F21C01C2F200410860002000F09F
:100E000013F820B1FFE701208DF8070005E000F09E
:100E1000CBF800208DF80700FFE79DF8070002B02F
:100E200080BD00000000000080B582B0009040F25C
:100E30002400C2F20040007820B9FFE701208DF8BD
:100E4000070030E040F21C00C2F20040006840F2AF
:100E50002401C2F200410A784FF47A71B1FBF2F139
:100E6000B0FBF1F002F0F0FD20B1FFE701208DF8BA
:100E7000070018E000980F280DD8FFE700994FF001
:100E8000FF30002200F0A4F8009840F22801C2F2DE
:100E90000041086003E001208DF8070003E0002016
:100EA0008DF80700FFE79DF8070002B080BD000045
:100EB00080B582B00190019840784EF69851CEF2FC
:100EC000000108600198007898B3FFE70198406836
:100ED0004EF69C51CEF200010860DDF804C0CDF85A
:100EE00000C09CF80C0000079CF80B1040EA016061
:100EF0009CF800109CF808209CF809309CF80AE047
:100F000040EACE409CF80DE040EA8E409CF80EE0AE
:100F100040EA4E409CF80FC040EA0C4040EA0320F3
:100F200040EA420008434EF6A051CEF200010860AC
:100F30000BE04EF69C51CEF20001002008604EF608
:100F4000A051CEF200010860FFE702B080BD0000B2
:100F5000BFF35F8F4EF62451CEF20001086820F4F3
:100F6000803008604EF69451CEF2000100200860F7
:100F7000704700000000000081B00090009840F031
:100F800001004EF69451CEF2000108604EF6245155
:100F9000CEF20001086840F480300860BFF34F8F44
:100FA000BFF36F8F01B0704781B0FFE744F2F440A8
:100FB000C5F60200016841F002010160006800F01E
:100FC000020000900098FFE701B0704700000000A9
:100FD00080B586B0ADF816000491039205F0B4F820
:100FE0000290BDF91600019002980499039A03F04B
:100FF000FBFB0146019805F0AFF806B080BD00008C
:1010000080B582B00190019805F0CAF802B080BDA9
:1010100080B584B0029044F60C00C5F6020000686A
:1010200000F004010020B0EB910F13D1FFE744F66C
:101030000C00C5F60200006800F007000299884223
:1010400004D0FFE701208DF80F002EE000208DF87E
:101050000F002AE044F60C01C5F60201086820F0F2
:101060000700029A10430860FFF7CEFB0190FFE7EC
:1010700044F60400C5F60200006800F400510020A8
:10108000B0EB513F0DD1FFE7FFF7BEFB0199401ACE
:10109000B0F57A7F04D9FFE701208DF80F0004E056
:1010A000E6E700208DF80F00FFE79DF80F0004B081
:1010B00080BD00000000000080B501F045FD44F255
:1010C0002041C5F602010968C1F3021246F212314D
:1010D000C0F60001895C01F01F01C84080BD00001E
:1010E00088B0079044F22840C5F60200016801F07C
:1010F000030106910068C0F30530059044F22C40CE
:10110000C5F602000068C0F300100490049844F291
:101110003C41C5F60201096889B2C908484300EE9E
:10112000100AB8EE400A8DED020A0598002800F07A
:101130001181FFE70698009048B1FFE70098012869
:1011400065D0FFE70098022800F08380A3E044F216
:101150000040C5F60200006800F020010020B0EB5E
:10116000511F31D0FFE744F20040C5F6020000688D
:10117000C0F3C10149F20000C0F2D030C840039072
:101180009DED030AB8EE400A9DED051AB8EE411A2E
:1011900080EE010A44F23840C5F6020000686FF3A1
:1011A0005F2001EE100AB8EE411A9DED022A9FED74
:1011B0006F3A02EE031AB7EE002A31EE021A20EE61
:1011C000010A8DED010A21E09DED050AB8EE401AF5
:1011D0009FED680A80EE010A44F23840C5F602002D
:1011E00000686FF35F2001EE100AB8EE411A9DED22
:1011F000022A9FED5E3A02EE031AB7EE002A31EEA4
:10120000021A20EE010A8DED010AFFE765E09DED6F
:10121000050AB8EE401A9FED560A80EE010A44F224
:101220003840C5F6020000686FF35F2001EE100A37
:10123000B8EE411A9DED022A9FED4C3A02EE031AD8
:10124000B7EE002A31EE021A20EE010A8DED010AF6
:1012500043E09DED050AB8EE401A9FED430A80EE8B
:10126000010A44F23840C5F6020000686FF35F20BF
:1012700001EE100AB8EE411A9DED022A9FED3B3AAD
:1012800002EE031AB7EE002A31EE021A20EE010A2E
:101290008DED010A21E09DED050AB8EE401A9FEDA3
:1012A000340A80EE010A44F23840C5F602000068B4
:1012B0006FF35F2001EE100AB8EE411A9DED022A8D
:1012C0009FED2A3A02EE031AB7EE002A31EE021A17
:1012D00020EE010A8DED010AFFE79DED010A44F2BF
:1012E0003840C5F60200016889B2490A01EE101AB9
:1012F000B8EE411AB7EE002A31EE021A80EE010A6A
:101300000799BCEEC00A81ED000A9DED010A016853
:10131000C1F3064101EE101AB8EE411A31EE021A7D
:1013200080EE010A0799BCEEC00A81ED010A9DED2D
:10133000010A0068C0F3066001EE100AB8EE411A17
:1013400031EE021A80EE010A0798BCEEC00A80ED69
:10135000020A07E00799002008600799486007998A
:101360008860FFE708B0704720BCBE4B0000003922
:101370000024744A0024744C88B0079044F228403A
:10138000C5F60200016801F0030106910068C0F390
:101390000550059044F22C40C5F602000068C0F3E9
:1013A00000200490049844F24441C5F60201096803
:1013B00089B2C908484300EE100AB8EE400A8DED24
:1013C000020A0598002800F01181FFE706980090B6
:1013D00048B1FFE70098012865D0FFE70098022890
:1013E00000F08380A3E044F20040C5F602000068EC
:1013F00000F020010020B0EB511F31D0FFE744F294
:101400000040C5F602000068C0F3C10149F20000C7
:10141000C0F2D030C84003909DED030AB8EE400AF8
:101420009DED051AB8EE411A80EE010A44F24040E3
:10143000C5F6020000686FF35F2001EE100AB8EEF7
:10144000411A9DED022A9FED6F3A02EE031AB7EEA4
:10145000002A31EE021A20EE010A8DED010A21E088
:101460009DED050AB8EE401A9FED680A80EE010A6C
:1014700044F24040C5F6020000686FF35F2001EEC1
:10148000100AB8EE411A9DED022A9FED5E3A02EE77
:10149000031AB7EE002A31EE021A20EE010A8DED92
:1014A000010AFFE765E09DED050AB8EE401A9FEDE1
:1014B000560A80EE010A44F24040C5F60200006878
:1014C0006FF35F2001EE100AB8EE411A9DED022A7B
:1014D0009FED4C3A02EE031AB7EE002A31EE021AE3
:1014E00020EE010A8DED010A43E09DED050AB8EEFC
:1014F000401A9FED430A80EE010A44F24040C5F6CF
:10150000020000686FF35F2001EE100AB8EE411A86
:101510009DED022A9FED3B3A02EE031AB7EE002A38
:1015200031EE021A20EE010A8DED010A21E09DED57
:10153000050AB8EE401A9FED340A80EE010A44F223
:101540004040C5F6020000686FF35F2001EE100A0C
:10155000B8EE411A9DED022A9FED2A3A02EE031AD7
:10156000B7EE002A31EE021A20EE010A8DED010AD3
:10157000FFE79DED010A44F24040C5F60200016814
:1015800089B2490A01EE101AB8EE411AB7EE002AE4
:1015900031EE021A80EE010A0799BCEEC00A81ED15
:1015A000000A9DED010A0168C1F3064101EE101A1F
:1015B000B8EE411A31EE021A80EE010A0799BCEE2C
:1015C000C00A81ED010A9DED010A0068C0F30660C2
:1015D00001EE100AB8EE411A31EE021A80EE010A4D
:1015E0000798BCEEC00A80ED020A07E007990020C8
:1015F00008600799486007998860FFE708B070475E
:1016000020BCBE4B000000390024744A0024744CF6
:1016100080B59AB0189000208DF857008DF85600CC
:101620001898C0780007002848D5FFE71898806E02
:10163000149078B1FFE71498B0F5801F13D0FFE73E
:101640001498B0F5001F16D0FFE71498B0F5401FAE
:1016500019D019E044F22C41C5F60201086840F4A3
:101660000030086014E018980830022103F01CFADA
:101670008DF857000CE018982830022103F0FCFA8E
:101680008DF8570004E003E001208DF85700FFE7D4
:101690009DF8570060B9FFE744F25041C5F60201DA
:1016A000086820F44010189A926E1043086004E015
:1016B0009DF857008DF85600FFE7FFE7189840782F
:1016C000C007002840D0FFE71898806D13900428C9
:1016D00020D81399DFE801F0030C141C1D0044F21C
:1016E0002C41C5F60201086840F40030086015E09E
:1016F00018980830002103F0D7F98DF857000DE055
:1017000018982830002103F0B7FA8DF8570005E04B
:1017100004E003E001208DF85700FFE79DF8570033
:1017200060B9FFE744F25041C5F60201086820F0B5
:101730000700189A926D1043086004E09DF8570066
:101740008DF85600FFE7FFE71898407880070028DB
:101750004BD5FFE71898C06D129088B1FFE712983B
:10176000402816D0FFE7129880281AD0FFE7129879
:10177000C0281ED0FFE71298B0F5807F1AD01AE07B
:1017800044F22C41C5F60201086840F400300860BC
:1017900015E018980830002103F086F98DF85700FD
:1017A0000DE018982830002103F066FA8DF85700F4
:1017B00005E004E003E001208DF85700FFE79DF805
:1017C000570060B9FFE744F25041C5F602010868CE
:1017D00020F4E070189AD26D1043086004E09DF880
:1017E00057008DF85600FFE7FFE71898407840074C
:1017F000002850D5FFE71898D0F8A8001190A0B1A4
:10180000FFE71198B0F5001F18D0FFE71198B0F569
:10181000800F1BD0FFE71198B0F5C00F1ED0FFE777
:101820001198B0F5000F1AD01AE044F22C41C5F619
:101830000201086840F40030086015E0189808308C
:10184000002103F031F98DF857000DE01898283089
:10185000002103F011FA8DF8570005E004E003E0E1
:1018600001208DF85700FFE79DF8570068B9FFE7A2
:1018700044F25841C5F60201086820F46000189A45
:10188000D2F8A8201043086004E09DF857008DF8B6
:101890005600FFE7FFE7189840780007002850D56A
:1018A000FFE71898D0F8AC001090A0B1FFE71098AF
:1018B000B0F1807F18D0FFE71098B0F1007F1BD007
:1018C000FFE71098B0F1407F1ED0FFE71098B0F10D
:1018D000806F1AD01AE044F22C41C5F60201086864
:1018E00040F40030086015E018980830002103F03B
:1018F000DBF88DF857000DE018982830002103F030
:10190000BBF98DF8570005E004E003E001208DF8F5
:101910005700FFE79DF8570068B9FFE744F25841C8
:10192000C5F60201086820F0E060189AD2F8AC20F1
:101930001043086004E09DF857008DF85600FFE75B
:10194000FFE71898C078800700283ED5FFE7189871
:10195000C06C0F90F0B1FFE70F98102808D0FFE798
:101960000F9820280DD0FFE70F98302811D012E0F3
:1019700044F22C41C5F60201086840F400300860CA
:101980000DE018980830022103F08EF88DF857000A
:1019900005E004E003E001208DF85700FFE79DF823
:1019A000570060B9FFE744F24C41C5F602010868F0
:1019B00020F03000189AD26C1043086004E09DF8C3
:1019C00057008DF85600FFE7FFE718984078C006EB
:1019D00000284ED5FFE71898006E0E90A0B1FFE7E3
:1019E0000E98B0F5805F18D0FFE70E98B0F5005F55
:1019F0001BD0FFE70E98B0F5405F1ED0FFE70E98B2
:101A0000B0F5804F1AD01AE044F22C41C5F602011D
:101A1000086840F40030086015E01898083000218C
:101A200003F042F88DF857000DE018982830002197
:101A300003F022F98DF8570005E004E003E00120EF
:101A40008DF85700FFE79DF8570060B9FFE744F2B3
:101A50005041C5F60201086820F4E040189A126E61
:101A60001043086004E09DF857008DF85600FFE72A
:101A7000FFE718984078800600284CD5FFE71898B3
:101A8000406E0D90C8B1FFE70D98B0F5803F15D0BE
:101A9000FFE70D98B0F5003F18D0FFE70D98B0F5BF
:101AA000403F1BD0FFE70D98B0F5802F17D0FFE720
:101AB0000D98B0F5A02F13D013E016E01898083059
:101AC000012102F0F1FF8DF857000EE01898283040
:101AD000012103F0D1F88DF8570006E005E004E09D
:101AE00003E001208DF85700FFE79DF8570060B92B
:101AF000FFE744F25041C5F60201086820F4E020F7
:101B0000189A526E1043086004E09DF857008DF853
:101B10005600FFE7FFE718984078400600284ED5AA
:101B2000FFE71898D0F8B0000C90C8B1FFE70C9808
:101B3000B0F1805F15D0FFE70C98B0F1005F18D0CE
:101B4000FFE70C98B0F1405F1BD0FFE70C98B0F1B5
:101B5000804F17D0FFE70C98B0F1A04F13D013E0DF
:101B600016E018980830012102F09EFF8DF857000A
:101B70000EE018982830012103F07EF88DF8570008
:101B800006E005E004E003E001208DF85700FFE7E0
:101B90009DF8570068B9FFE744F25841C5F60201C5
:101BA000086820F0E040189AD2F8B020104308608E
:101BB00004E09DF857008DF85600FFE7FFE71898FE
:101BC0004078000600283BD5FFE71898006F0B907F
:101BD000D8B1FFE70B98B0F1805F05D0FFE70B9815
:101BE000B0F1005F09D011E044F22C41C5F60201CA
:101BF000086840F4003008600CE0189808300121B3
:101C000002F052FF8DF8570004E003E001208DF848
:101C10005700FFE79DF8570060B9FFE744F25041D5
:101C2000C5F60201086820F04050189A126F104360
:101C3000086004E09DF857008DF85600FFE7FFE7C5
:101C40001898C078C007002837D0FFE71898806C34
:101C50000A90032817D80A99DFE801F014020B1341
:101C600044F22C41C5F60201086840F400300860D7
:101C70000DE018980830022102F016FF8DF8570089
:101C800005E004E003E001208DF85700FFE79DF830
:101C9000570060B9FFE744F24C41C5F602010868FD
:101CA00020F00300189A926C1043086004E09DF83D
:101CB00057008DF85600FFE7FFE718988078400638
:101CC000002840F1B480FFE744F60001C5F60201A8
:101CD000086840F480700860FEF796FD1690FFE7F4
:101CE00044F60000C5F602000068C00500280CD4C8
:101CF000FFE7FEF789FD1699401A652804D3FFE730
:101D000003208DF8570000E0EAE79DF8570000280F
:101D100040F08780FFE744F27040C5F6020000689B
:101D200000F440701899D1F8B41001F44071884261
:101D300013D0FFE744F27041C5F60201086820F4B1
:101D400040701790086840F480300860086820F4FC
:101D50008030086017980860FFE71898D0F8B40042
:101D6000B0F5807F1FD1FFE7FEF74EFD1690FFE72D
:101D700044F27040C5F60200006800F00201002045
:101D8000B0EB510F0ED1FFE7FEF73EFD1699401A5A
:101D900041F28931884204D3FFE703208DF85700D0
:101DA00000E0E5E7FFE79DF85700A0BBFFE7FFE78E
:101DB0001898D0F8B40000F44070B0F5407F13D10B
:101DC000FFE744F21041C5F60201086820F47C5098
:101DD000189AD2F8B4204FF6F043C0F6FF731A40B9
:101DE00040EA1210086008E044F21041C5F6020112
:101DF000086820F47C500860FFE71898D0F8B420F9
:101E00006FF31F3244F27041C5F6020108681043B7
:101E10000860FFE704E09DF857008DF85600FFE7E3
:101E200004E09DF857008DF85600FFE7FFE718988B
:101E30000068C007002800F04C80FFE71898C06FCA
:101E4000099028282BD80999DFE801F015292929BC
:101E50002929292916292929292929291E29292910
:101E600029292929262929292929292927292929E7
:101E700029292929280016E018980830012102F0A4
:101E800013FE8DF857000EE018982830012102F05B
:101E9000F3FE8DF8570006E005E004E003E00120C2
:101EA0008DF85700FFE79DF8570060B9FFE744F24F
:101EB0005441C5F60201086820F03800189AD26F24
:101EC0001043086004E09DF857008DF85600FFE7C6
:101ED000FFE7189800788007002839D5FFE71898A1
:101EE000806F0890052819D80899DFE801F00304ED
:101EF0000C14151616E018980830012102F0D4FDD4
:101F00008DF857000EE018982830012102F0B4FE39
:101F10008DF8570006E005E004E003E001208DF8AD
:101F20005700FFE79DF8570060B9FFE744F25441BE
:101F3000C5F60201086820F00700189A926F104356
:101F4000086004E09DF857008DF85600FFE7FFE7B2
:101F500018980078400700283BD5FFE71898D0F87C
:101F600094000790052819D80799DFE801F00304C9
:101F70000C14151616E018980830012102F094FD93
:101F80008DF857000EE018982830012102F074FEF9
:101F90008DF8570006E005E004E003E001208DF82D
:101FA0005700FFE79DF8570068B9FFE744F2584132
:101FB000C5F60201086820F00700189AD2F89420AC
:101FC0001043086004E09DF857008DF85600FFE7C5
:101FD000FFE718980078800600284ED5FFE718988C
:101FE000D0F890000690C8B1FFE70698B0F1805F86
:101FF00015D0FFE70698B0F1005F18D0FFE706980C
:10200000B0F1405F1BD0FFE70698B0F1804F17D0CA
:10201000FFE70698B0F1A04F13D013E016E0189830
:102020000830002102F040FD8DF857000EE01898AE
:102030002830022102F020FE8DF8570006E005E06E
:1020400004E003E001208DF85700FFE79DF85700FA
:1020500068B9FFE744F25441C5F60201086820F070
:10206000E040189AD2F890201043086004E09DF8F0
:1020700057008DF85600FFE7FFE7189800784006F4
:1020800000284ED5FFE71898D0F89C000590C8B1FD
:10209000FFE70598B0F5806F15D0FFE70598B0F51C
:1020A000006F18D0FFE70598B0F5406F1BD0FFE731
:1020B0000598B0F5805F17D0FFE70598B0F5A05FF1
:1020C00013D013E016E018980830002102F0ECFC61
:1020D0008DF857000EE018982830022102F0CCFD50
:1020E0008DF8570006E005E004E003E001208DF8DC
:1020F0005700FFE79DF8570068B9FFE744F25841E1
:10210000C5F60201086820F4E050189AD2F89C2025
:102110001043086004E09DF857008DF85600FFE773
:10212000FFE718980078000600284ED5FFE71898BA
:10213000D0F8A0000490C8B1FFE70498B0F5005FA4
:1021400015D0FFE70498B0F5804F18D0FFE704984A
:10215000B0F5C04F1BD0FFE70498B0F5004F17D083
:10216000FFE70498B0F5204F13D013E016E018985D
:102170000830002102F098FC8DF857000EE0189806
:102180002830022102F078FD8DF8570006E005E0C6
:1021900004E003E001208DF85700FFE79DF85700A9
:1021A00068B9FFE744F25841C5F60201086820F417
:1021B0006040189AD2F8A0201043086004E09DF80F
:1021C00057008DF85600FFE7FFE7189800780007E2
:1021D000002820D5FFE71898D0F88400B0F5805F7C
:1021E0000CD1FFE718982830022102F045FD20B1FC
:1021F000FFE701208DF85600FFE7FFE744F2544166
:10220000C5F60201086820F44050189AD2F88420DC
:1022100010430860FFE718980078C006002820D512
:10222000FFE71898D0F89800B0F5807F0CD1FFE751
:1022300018982830022102F01FFD20B1FFE701208D
:102240008DF85600FFE7FFE744F25841C5F602015A
:10225000086820F44070189AD2F89820104308605B
:10226000FFE718988078000700283CD5FFE718980A
:10227000D0F8A400039050B1FFE70398B0F5803F79
:102280000DD0FFE70398B0F5003F10D010E018988C
:102290000830002102F008FC8DF857000CE0189877
:1022A0002830022102F0E8FC8DF8570004E003E03A
:1022B00001208DF85700FFE79DF8570068B9FFE748
:1022C00044F25841C5F60201086820F44030189ADB
:1022D000D2F8A4201043086004E09DF857008DF860
:1022E0005600FFE7FFE718988078400700283FD5A1
:1022F000FFE71898D0F888000290B0F5801F0AD048
:10230000FFE70298B0F5001F0ED0FFE70298B0F586
:10231000401F11D011E044F22C41C5F602010868BB
:1023200040F4003008600CE018982830012102F0D9
:10233000A3FC8DF8570004E003E001208DF857005E
:10234000FFE79DF8570068B9FFE744F25441C5F62E
:102350000201086820F44010189AD2F8882010432F
:10236000086004E09DF857008DF85600FFE7FFE78E
:1023700018988078C007A8B3FFE71898006D0190FF
:1023800028B1FFE70198B0F5803F09D010E044F292
:102390002C41C5F60201086840F4003008600BE0EB
:1023A00018980830022102F07FFB8DF8570003E0F7
:1023B00001208DF85700FFE79DF8570060B9FFE74F
:1023C00044F24C41C5F60201086820F48030189AA6
:1023D000126D1043086004E09DF857008DF8560018
:1023E000FFE7FFE71898C078800600280CD5FFE7C4
:1023F00018982830022102F03FFC20B1FFE70120AD
:102400008DF85600FFE7FFE71898807880070028CE
:102410003CD5FFE71898D0F880000090D0B1FFE7D6
:102420000098B0F5807F0AD0FFE70098B0F5007FF4
:102430000ED0FFE70098B0F5407F0AD00BE044F2E1
:102440002C41C5F60201086840F40030086006E03F
:1024500005E004E003E001208DF85700FFE79DF858
:10246000570068B9FFE744F25441C5F60201086815
:1024700020F44070189AD2F880201043086004E0DD
:102480009DF857008DF85600FFE7FFE71898807811
:10249000C00600280CD5FFE744F25041C5F6020102
:1024A000086820F00040189A526F10430860FFE758
:1024B0001898C078C00600280DD5FFE744F21041F7
:1024C000C5F60201086820F48040189AD2F8B820B6
:1024D00010430860FFE718988078800600280CD524
:1024E000FFE744F25041C5F60201086820F0807011
:1024F000189AD26E10430860FFE71898C07840061B
:10250000002811D5FFE7FFE744F21041C5F60201AC
:10251000086820F4004008601898D0F8BC200868CB
:1025200010430860FFE7FFE71898C078000600280E
:102530000CD5FFE744F24C41C5F60201086820F0D3
:102540004050189A526D10430860FFE71898807841
:10255000000600280DD5FFE744F25441C5F60201FC
:10256000086820F44000189AD2F88C2010430860C4
:10257000FFE718980079C00790B1FFE71898083076
:10258000002102F091FA8DF857009DF8570008B924
:10259000FFE704E09DF857008DF85600FFE7FFE7DE
:1025A000189800798007002812D5FFE7189808309E
:1025B000012102F079FA8DF857009DF8570008B90B
:1025C000FFE704E09DF857008DF85600FFE7FFE7AE
:1025D000189800794007002812D5FFE718980830AE
:1025E000022102F061FA8DF857009DF8570008B9F2
:1025F000FFE704E09DF857008DF85600FFE7FFE77E
:10260000189800790007002812D5FFE7189828309D
:10261000002102F031FB8DF857009DF8570008B9F2
:10262000FFE704E09DF857008DF85600FFE7FFE74D
:1026300018980079C006002812D5FFE718982830AE
:10264000012102F019FB8DF857009DF8570008B9D9
:10265000FFE704E09DF857008DF85600FFE7FFE71D
:10266000189800798006002812D5FFE718982830BE
:10267000022102F001FB8DF857009DF8570008B9C0
:10268000FFE704E09DF857008DF85600FFE7FFE7ED
:102690009DF8560020B9FFE700208DF8670003E0A1
:1026A00001208DF86700FFE79DF867001AB080BD34
:1026B00080B586B004900391049820B9FFE701200B
:1026C0008DF817003CE2039842F20001C5F20021A8
:1026D000096801F00F01884216D9FFE742F20000B5
:1026E000C5F20020016821F00F01039A1143016037
:1026F000006800F00F000399884204D0FFE7012032
:102700008DF817001CE2FFE70498007840070028C6
:1027100019D5FFE70498006944F21841C5F6020193
:10272000096801F0700188420CD9FFE744F21841B2
:10273000C5F60201086820F07000049A126910437F
:102740000860FFE7FFE7049800780007002819D524
:10275000FFE70498406944F21C41C5F6020109688C
:1027600001F0700188420CD9FFE744F21C41C5F624
:102770000201086820F07000049A52691043086052
:10278000FFE7FFE704980078C006002819D5FFE7A7
:102790000498806944F21C41C5F60201096801F4FD
:1027A000E06188420CD9FFE744F21C41C5F6020102
:1027B000086820F4E060049A926910430860FFE71B
:1027C000FFE7049800788006002819D5FFE70498F1
:1027D000C06944F22041C5F60201096801F07001A8
:1027E00088420CD9FFE744F22041C5F6020108688F
:1027F00020F07000049AD26910430860FFE7FFE7F9
:10280000049800788007002819D5FFE70498C0686D
:1028100044F21841C5F60201096801F00F0188422F
:102820000CD9FFE744F21841C5F60201086820F010
:102830000F00049AD26810430860FFE7FFE704988E
:102840000078C007002800F08C80FFE744F21841B0
:10285000C5F60201086820F47060049A926810437B
:10286000086004984068022811D1FFE744F2004054
:10287000C5F60200006800F400310020B0EB514FB3
:1028800004D1FFE701208DF8170059E13EE00498DC
:102890004068032811D1FFE744F20040C5F602006A
:1028A000006800F000710020B0EB516F04D1FFE729
:1028B00001208DF8170043E127E0049840680128C3
:1028C00011D1FFE744F20040C5F60200006800F4B1
:1028D00080710020B0EB112F04D1FFE701208DF8AB
:1028E00017002DE110E044F20040C5F60200006838
:1028F00000F004010020B0EB910F04D1FFE70120AC
:102900008DF817001CE1FFE7FFE7FFE744F21041F5
:10291000C5F60201086820F00700049A52681043C7
:102920000860FDF771FF0190FFE744F21040C5F623
:102930000200006800F0380004994968B0EBC10F4C
:102940000ED0FFE7FDF760FF0199401A41F289318F
:10295000884204D3FFE703208DF81700F0E0E4E796
:10296000FFE7049800788007002819D5FFE704984E
:10297000C06844F21841C5F60201096801F00F0170
:1029800088420CD2FFE744F21841C5F602010868FC
:1029900020F00F00049AD26810430860FFE7FFE7B9
:1029A000039842F20001C5F20021096801F00F010D
:1029B000884216D2FFE742F20000C5F2002001680B
:1029C00021F00F01039A11430160006800F00F002D
:1029D0000399884204D0FFE701208DF81700AFE08B
:1029E000FFE7049800784007002819D5FFE704980E
:1029F000006944F21841C5F60201096801F070014E
:102A000088420CD2FFE744F21841C5F6020108687B
:102A100020F07000049A126910430860FFE7FFE796
:102A2000049800780007002819D5FFE7049840694A
:102A300044F21C41C5F60201096801F070018842A8
:102A40000CD2FFE744F21C41C5F60201086820F0F1
:102A50007000049A526910430860FFE7FFE704988A
:102A60000078C006002819D5FFE70498806944F271
:102A70001C41C5F60201096801F4E06188420CD2EC
:102A8000FFE744F21C41C5F60201086820F4E0604B
:102A9000049A926910430860FFE7FFE70498007802
:102AA0008006002819D5FFE70498C06944F2204148
:102AB000C5F60201096801F0700188420CD2FFE7F7
:102AC00044F22041C5F60201086820F07000049A23
:102AD000D26910430860FFE7FFE700F089F844F28D
:102AE0001842C5F602021168C1F3032346F21231FF
:102AF000C0F60001CB5C03F01F03D84000900098A3
:102B0000126802F00F02895C01F01F01C84040F218
:102B10002001C2F200410860009840F21C01C2F29C
:102B20000041086040F22800C2F200400068FEF751
:102B30007BF98DF80B009DF80B008DF81700FFE76F
:102B40009DF8170006B080BD80B582B000F050F847
:102B500044F21842C5F602021168C1F3032346F29B
:102B60001231C0F60001CB5C03F01F03D840019086
:102B70000198126802F00F02895C01F01F0120FA2F
:102B800001F140F22000C2F200400160019940F2E0
:102B90001C02C2F200421160006802B080BD000059
:102BA00080B5FFF7D1FF44F21C41C5F60201096868
:102BB000C1F3021246F21231C0F60001895C01F045
:102BC0001F01C84080BD000080B5FFF7BDFF44F283
:102BD0001C41C5F602010968C1F3022246F2123116
:102BE000C0F60001895C01F01F01C84080BD0000F3
:102BF0008AB044F21040C5F60200006800F03800C8
:102C000001460191182800F25F810199DFE811F077
:102C100019005C015C015C015C015C015C015C0110
:102C20003A005C015C015C015C015C015C015C01DF
:102C300040005C015C015C015C015C015C015C01C9
:102C4000460044F20040C5F60200006800F0200192
:102C50000020B0EB511F0ED0FFE744F20040C5F654
:102C600002000068C0F3C10149F20000C0F2D03098
:102C7000C840029005E049F20000C0F2D030029056
:102C8000FFE727E140F60010C0F23D00029021E18D
:102C900047F64000C0F27D1002901BE144F228404C
:102CA000C5F60200016801F0030108910068C0F355
:102CB0000510079044F22C40C5F60200006800F0B1
:102CC00001000690069844F23441C5F602010968F5
:102CD00089B2C908484300EE100AB8EE400A8DEDEB
:102CE000040A0798002800F0EB80FFE7089800909E
:102CF00048B1FFE70098012865D0FFE70098022857
:102D000000F08380A3E044F20040C5F602000068B2
:102D100000F020010020B0EB511F31D0FFE744F25A
:102D20000040C5F602000068C0F3C10149F200008E
:102D3000C0F2D030C84005909DED050AB8EE400ABB
:102D40009DED071AB8EE411A80EE010A44F23040B8
:102D5000C5F6020000686FF35F2001EE100AB8EEBE
:102D6000411A9DED042A9FED5E3A02EE031AB7EE7A
:102D7000002A31EE021A20EE010A8DED030A21E04D
:102D80009DED070AB8EE401A9FED570A80EE010A42
:102D900044F23040C5F6020000686FF35F2001EE98
:102DA000100AB8EE411A9DED042A9FED4D3A02EE4D
:102DB000031AB7EE002A31EE021A20EE010A8DED59
:102DC000030AFFE765E09DED070AB8EE401A9FEDA4
:102DD000450A80EE010A44F23040C5F60200006860
:102DE0006FF35F2001EE100AB8EE411A9DED042A40
:102DF0009FED3B3A02EE031AB7EE002A31EE021ABB
:102E000020EE010A8DED030A43E09DED070AB8EEBE
:102E1000401A9FED320A80EE010A44F23040C5F6B6
:102E2000020000686FF35F2001EE100AB8EE411A4D
:102E30009DED042A9FED2A3A02EE031AB7EE002A0E
:102E400031EE021A20EE010A8DED030A21E09DED1C
:102E5000070AB8EE401A9FED230A80EE010A44F2F9
:102E60003040C5F6020000686FF35F2001EE100AE3
:102E7000B8EE411A9DED042A9FED193A02EE031AAD
:102E8000B7EE002A31EE021A20EE010A8DED030A98
:102E9000FFE744F23040C5F60200006881B201202D
:102EA00000EB512009909DED030A9DED091AB8EE43
:102EB000411A80EE010ABCEEC00A8DED020A02E062
:102EC00000200290FFE705E040F60010C0F23D0050
:102ED0000290FFE702980AB0704700BF20BCBE4BCB
:102EE000000000390024744A0024744C00000000E3
:102EF00080B58CB00A900A9828B9FFE701208DF8B8
:102F00002F0000F09DBD0A980078C007002800F04F
:102F1000B980FFE744F21040C5F60200006800F0F7
:102F20003800069044F22840C5F60200006805907B
:102F3000069810280AD0FFE7069818281CD1FFE74A
:102F4000059800F00300022816D1FFE744F2004084
:102F5000C5F60200006800F400310020B0EB514FCC
:102F600009D0FFE70A98406828B9FFE701208DF8EB
:102F70002F0000F065BD84E0FFE70A984068B0F5D7
:102F8000803F09D1FFE744F20041C5F6020108681D
:102F900040F48030086032E00A98406868B9FFE782
:102FA00044F20041C5F60201086820F48030086050
:102FB000086820F48020086020E00A984068B0F596
:102FC000A02F0DD1FFE744F20041C5F602010868C9
:102FD00040F480200860086840F4803008600CE00D
:102FE00044F20041C5F60201086820F48030086010
:102FF000086820F480200860FFE7FFE7FFE7FFE7AD
:103000000A984068F0B1FFE7FDF7FEFB0990FFE783
:1030100044F20040C5F60200006800F400310020D0
:10302000B0EB514F0DD1FFE7FDF7EEFB0999401AC8
:10303000652805D3FFE703208DF82F0000F000BDC1
:10304000E6E71DE0FDF7E0FB0990FFE744F20040F2
:10305000C5F60200006800F400310020B0EB514FCB
:103060000DD0FFE7FDF7D0FB0999401A652805D37D
:10307000FFE703208DF82F0000F0E2BCE6E7FFE752
:10308000FFE7FFE70A9800788007002840F11681E3
:10309000FFE744F21040C5F60200006800F0380077
:1030A000049044F22840C5F602000068039004989A
:1030B00050B1FFE70498182878D1FFE79DF80C007D
:1030C0008007002872D1FFE744F20040C5F60200F5
:1030D000006800F004010020B0EB910F09D0FFE779
:1030E0000A98C06828B9FFE701208DF82F0000F08A
:1030F000A7BC44F20041C5F60201086820F019009F
:103100000A9AD26810430860FDF77EFB0990FFE73A
:1031100044F20040C5F60200006800F004010020FF
:10312000B0EB910F0DD1FFE7FDF76EFB0999401A47
:10313000032805D3FFE703208DF82F0000F080BCA3
:10314000E6E7FFE7FDF758FB41F2030188421DD88F
:10315000FFE70A98006940280AD1FFE744F20441DA
:10316000C5F602010868202262F3113008600CE005
:1031700044F20441C5F60201086820F47C300A9A42
:10318000126940EA02300860FFE70CE044F20441B3
:10319000C5F60201086820F0FE400A9A126940EA6A
:1031A00002600860FFE7FFE7FFE786E00A98C06873
:1031B00000285CD0FFE744F20041C5F60201086830
:1031C00020F019000A9AD26810430860FDF71CFB32
:1031D0000990FFE744F20040C5F60200006800F0E5
:1031E00004010020B0EB910F0DD1FFE7FDF70CFBC0
:1031F0000999401A032805D3FFE703208DF82F0013
:1032000000F01EBCE6E7FFE7FDF7F6FA41F2030126
:1032100088421DD8FFE70A98006940280AD1FFE7D5
:1032200044F20441C5F602010868202262F311301D
:1032300008600CE044F20441C5F60201086820F47D
:103240007C300A9A126940EA02300860FFE70CE01D
:1032500044F20441C5F60201086820F0FE400A9AD3
:10326000126940EA02600860FFE7FFE724E044F2E9
:103270000041C5F60201086820F001000860FDF772
:10328000C3FA0990FFE744F20040C5F60200006867
:1032900000F004010020B0EB910F0CD0FFE7FDF728
:1032A000B3FA0999401A032804D3FFE703208DF8E5
:1032B0002F00C5E3E7E7FFE7FFE7FFE70A9800789D
:1032C000C006002840F1EB80FFE744F21040C5F64D
:1032D0000200006800F03800029044F22840C5F671
:1032E000020000680190029808280AD0FFE70298BF
:1032F000182850D1FFE7019800F0030001284AD1B7
:10330000FFE744F20040C5F60200006800F4807157
:103310000020B0EB112F09D0FFE70A98C069802880
:1033200004D0FFE701208DF82F0089E3FFE7FDF7C8
:1033300063FA41F2030188421DD8FFE70A98006A48
:1033400020280AD1FFE744F20441C5F602010868CB
:10335000102262F39E6008600CE044F20441C5F65E
:103360000201086820F0F8400A9A126A40EA826076
:103370000860FFE70CE044F20C41C5F60201086862
:1033800020F07C500A9A126A40EA02600860FFE767
:10339000FFE7FFE782E00A98C069002858D0FFE7FE
:1033A00044F20041C5F60201086840F08000086060
:1033B000FDF72AFA0990FFE744F20040C5F6020043
:1033C000006800F480710020B0EB112F0CD1FFE7F2
:1033D000FDF71AFA0999401A032804D3FFE70320DE
:1033E0008DF82F002CE3E7E7FFE7FDF705FA41F240
:1033F000030188421DD8FFE70A98006A20280AD1F5
:10340000FFE744F20441C5F602010868102262F3A6
:103410009E6008600CE044F20441C5F602010868B1
:1034200020F0F8400A9A126A40EA82600860FFE7DA
:103430000CE044F20C41C5F60201086820F07C5013
:103440000A9A126A40EA02600860FFE7FFE724E098
:1034500044F20041C5F60201086820F080000860CF
:10346000FDF7D2F90990FFE744F20040C5F60200EB
:10347000006800F480710020B0EB112F0CD0FFE742
:10348000FDF7C2F90999401A032804D3FFE7032086
:103490008DF82F00D4E2E7E7FFE7FFE7FFE70A98A0
:1034A0000078000700284FD5FFE70A98406928B345
:1034B000FFE744F27441C5F60201086840F00100DC
:1034C0000860FDF7A1F90990FFE744F27440C5F6E2
:1034D0000200006800F002010020B0EB510F0CD197
:1034E000FFE7FDF791F90999401A032804D3FFE794
:1034F00003208DF82F00A3E2E7E724E044F27441B3
:10350000C5F60201086820F001000860FDF77CF9AB
:103510000990FFE744F27440C5F60200006800F02D
:1035200002010020B0EB510F0CD0FFE7FDF76CF962
:103530000999401A032804D3FFE703208DF82F00D0
:103540007EE2E7E7FFE7FFE70A98007880060028B9
:103550004FD5FFE70A98806928B3FFE744F200419E
:10356000C5F60201086840F480500860FDF74CF988
:103570000990FFE744F20040C5F60200006800F43D
:1035800000510020B0EB513F0CD1FFE7FDF73CF9B3
:103590000999401A032804D3FFE703208DF82F0070
:1035A0004EE2E7E724E044F20041C5F60201086874
:1035B00020F480500860FDF727F90990FFE744F2F6
:1035C0000040C5F60200006800F400510020B0EB96
:1035D000513F0CD0FFE7FDF717F90999401A03286E
:1035E00004D3FFE703208DF82F0029E2E7E7FFE788
:1035F000FFE70A9800784007002840F1A780FFE71E
:1036000044F60001C5F60201086840F480700860C5
:10361000FDF7FAF80990FFE744F60000C5F602004E
:103620000068C00500280CD4FFE7FDF7EDF8099904
:10363000401A652804D3FFE703208DF82F00FFE12F
:10364000EAE7FFE70A988068012809D1FFE744F21A
:103650007041C5F60201086840F00100086031E0E1
:103660000A98806868B9FFE744F27041C5F6020124
:10367000086820F001000860086820F00400086075
:103680001FE00A98806805280DD1FFE744F27041D9
:10369000C5F60201086840F004000860086840F0C0
:1036A000010008600CE044F27041C5F602010868B0
:1036B00020F001000860086820F004000860FFE7BF
:1036C000FFE7FFE7FFE70A988068F8B1FFE7FDF73B
:1036D0009BF80990FFE744F27040C5F602000068CD
:1036E00000F002010020B0EB510F0ED1FFE7FDF713
:1036F0008BF80999401A41F28931884204D3FFE7D7
:1037000003208DF82F009BE1E5E71EE0FDF77CF834
:103710000990FFE744F27040C5F60200006800F02F
:1037200002010020B0EB510F0ED0FFE7FDF76CF85F
:103730000999401A41F28931884204D3FFE70320F6
:103740008DF82F007CE1E5E7FFE7FFE70A98406A84
:10375000002800F07181FFE744F21040C5F6020036
:10376000006800F03800182800F0E080FFE70A98B1
:10377000406A022840F0B480FFE744F20041C5F6F9
:103780000201086820F080700860FDF73DF809909C
:10379000FFE744F20040C5F60200006800F0007147
:1037A0000020B0EB516F0CD0FFE7FDF72DF8099921
:1037B000401A032804D3FFE703208DF82F003FE1D0
:1037C000E7E7FFE744F22841C5F60201086840F246
:1037D000F33290430A9B9A6ADB6A42EA031210436F
:1037E00008600A99086BD1F834C08B6BCA6B01383A
:1037F0006FF35F204FF60061CFF6FF7101EB4C21B4
:1038000089B208440021CFF6FF7101EB034101F4B6
:10381000FE0108444FF07F4101EB026101F0FE41DF
:10382000084444F23041C5F602010860FFE744F263
:103830002C41C5F602010091086820F001000860E3
:1038400044F23442C5F6020210684FF6F87398430A
:103850000A9B9B6C40EAC3001060086820F00C00D3
:103860000A9A126C10430860086820F002000A9A55
:10387000526C10430860086840F4803008600868A3
:1038800040F400300860086840F480200860086850
:1038900040F00100086044F20041C5F602010868EA
:1038A00040F080700860FCF7AFFF0990FFE744F23A
:1038B0000040C5F60200006800F000710020B0EB87
:1038C000516F0CD1FFE7FCF79FFF0999401A0328BD
:1038D00004D3FFE703208DF82F00B1E0E7E724E0F1
:1038E00044F20041C5F60201086820F080700860CB
:1038F000FCF78AFF0990FFE744F20040C5F602009A
:10390000006800F000710020B0EB516F0CD0FFE7B1
:10391000FCF77AFF0999401A032804D3FFE7032034
:103920008DF82F008CE0E7E7FFE784E044F22840C1
:10393000C5F602000068089044F23040C5F6020067
:10394000006807900A98406A012837D0FFE7089876
:1039500000F003000A99896A88422FD1FFE708988E
:1039600000F47C710A98C06AB0EB111F26D1FFE702
:1039700007986FF35F200A99096B013988421DD1BE
:10398000FFE7BDF81C100A98406B0138B0EB512FCF
:1039900014D1FFE7079800F4FE010A98806B013804
:1039A000B0EB114F0AD1FFE7079800F0FE410A98EB
:1039B000C06B0138B0EB116F04D0FFE701208DF828
:1039C0002F003DE044F23440C5F60200006880B2AA
:1039D000C00808900A98806C0899884229D0FFE7AF
:1039E00044F22C41C5F60201086820F0010008608D
:1039F000FCF70AFF0990FFE7FCF706FF0999401A58
:103A000008B9FFE7F8E744F23441C5F60201086857
:103A10004FF6F87290430A9A926C40EAC20008602E
:103A200044F22C41C5F60201086840F0010008602C
:103A3000FFE7FFE7FFE7FFE700208DF82F00FFE734
:103A40009DF82F000CB080BD80B582B00190019828
:103A500001F0FEF902B080BD85B003900291FFE74E
:103A6000039890F83C00012804D1FFE702208DF86C
:103A7000130099E00399012081F83C00FFE7FFE77C
:103A80000399022081F83D00039800684068019086
:103A90000398006880680090039800680021C4F2D1
:103AA0000101884209D0FFE70398006840F2004115
:103AB000C4F2010188420AD1FFE7019820F47000A6
:103AC000019002984168019808430190FFE701982E
:103AD00020F070000190029801680198084301905D
:103AE0000198039909684860039800680021C4F2AE
:103AF000010188423CD0FFE703980068B0F1804F95
:103B000036D0FFE70398006840F20041C4F200019C
:103B100088422DD0FFE70398006840F60001C4F208
:103B20000001884224D0FFE70398006840F6004176
:103B3000C4F2000188421BD0FFE70398006840F2FE
:103B40000041C4F20101884212D0FFE703980068E7
:103B500041F60001C4F20001884209D0FFE7039852
:103B6000006844F20001C4F2010188420ED1FFE76F
:103B7000009820F080000090029881680098084327
:103B800000900098039909688860FFE70399012075
:103B900081F83D00FFE70399002081F83C00FFE732
:103BA00000208DF81300FFE79DF8130005B0704763
:103BB00080B582B00090009820B9FFE701208DF811
:103BC000070045E0009890F83D0040B9FFE70099F4
:103BD000002081F83C00009800F03EF8FFE70099D3
:103BE000022081F83D00009951F8040B01F0BCFA65
:103BF0000099012081F84800FFE70099012081F831
:103C00003E00009981F83F00009981F8400000993A
:103C100081F84100009981F84200009981F8430041
:103C2000FFE7FFE70099012081F84400009981F83F
:103C30004500009981F84600009981F84700FFE7A8
:103C40000099012081F83D0000208DF80700FFE772
:103C50009DF8070002B080BD82B001900198006815
:103C600041F20041C4F20001884210D1FFE7FFE7B2
:103C700044F2E840C5F60200016841F0200101600D
:103C8000006800F0200000900098FFE7FFE702B016
:103C9000704700000000000083B00190FFE701982A
:103CA00090F88400012804D1FFE702208DF80B0072
:103CB0002CE00199012081F88400FFE7FFE70199DA
:103CC0002420C1F8880001980068006800900198DD
:103CD0000168086820F001000860009820F000509A
:103CE00000900199002048660098019909680860D1
:103CF00001992020C1F88800FFE70199002081F890
:103D00008400FFE700208DF80B00FFE79DF80B0013
:103D100003B070470000000080B584B002900191AC
:103D2000FFE7029890F88400012804D1FFE7022001
:103D30008DF80F0032E00299012081F88400FFE73E
:103D4000FFE702992420C1F8880002980068006803
:103D5000009002980168086820F00100086002984D
:103D60000068806820F06060019908430299096842
:103D70008860029801F0C8FA009802990968086002
:103D800002992020C1F88800FFE70299002081F8FD
:103D90008400FFE700208DF80F00FFE79DF80F007B
:103DA00004B080BD0000000080B584B00290019195
:103DB000FFE7029890F88400012804D1FFE7022071
:103DC0008DF80F0032E00299012081F88400FFE7AE
:103DD000FFE702992420C1F8880002980068006873
:103DE000009002980168086820F0010008600298BD
:103DF0000068806820F060400199084302990968D2
:103E00008860029801F080FA0098029909680860B9
:103E100002992020C1F88800FFE70299002081F86C
:103E20008400FFE700208DF80F00FFE79DF80F00EA
:103E300004B080BD0000000080B582B00090009802
:103E400020B9FFE701208DF8070046E0009880695F
:103E500008B1FFE700E0FFE70098D0F8880040B91C
:103E6000FFE70099002081F88400009800F03CF8FA
:103E7000FFE700992420C1F88800009801680868CD
:103E800020F001000860009801F01AFC012804D11C
:103E9000FFE701208DF807001FE00098806A20B13D
:103EA000FFE7009801F074FAFFE70098016848689E
:103EB00020F49040486000980168886820F02A004B
:103EC000886000980168086840F001000860009868
:103ED00001F002FB8DF80700FFE79DF8070002B034
:103EE00080BD00000000000080B5B8B03790002011
:103EF0003690359034903390329002A8C021FCF770
:103F00001FFA3798006841F20001C4F201018842AB
:103F10003CD1FFE70020039001210291219002A8EB
:103F2000FDF776FB18B1FFE7FCF756FAFFE7FFE76E
:103F300044F2F040C5F60200016841F01001016052
:103F4000006800F0100001900198FFE7FFE744F2DD
:103F5000E040C5F60200016841F00101016000681F
:103F600000F0010000900098FFE74FF4C06032902D
:103F700002203390002034903590072036900020A6
:103F8000C5F6020032A9FCF753FAFFE738B080BD4E
:103F9000FFE7FEE70000000081B000900098006895
:103FA000806900F002010020B0EB510F05D0FFE75F
:103FB0000098016800208862FFE700980068806927
:103FC000C00738B9FFE700980168886940F0010030
:103FD0008861FFE701B0704780B58AB00990089109
:103FE000079200208DF81B000999096889690591DD
:103FF0000490079803909DF81400C006002840F133
:104000008680FFE7099801681020C861FFE70998DA
:104010000068806900F0200200210846B1EB521FC1
:10402000009007D1FFE79DF81B00B0FA80F040092F
:104030000090FFE70098C007002857D0FFE70898D6
:104040000130002851D0FFE7FCF7DEFB0399401A4E
:104050000899884204D8FFE70898002844D1FFE770
:1040600009980068406800F480400290099890F830
:1040700042008DF8070009980068806981B200202D
:10408000B0EBD13F14D0FFE70298B0F5804F0FD0CE
:10409000FFE79DF8070020280AD0FFE7099801688C
:1040A000486840F480404860FCF7AEFB0390FFE7AF
:1040B000FFE709980068806900F020010020B0EB5C
:1040C000511F10D1FFE7FCF79FFB0399401A1A28F4
:1040D00008D3FFE7049840F02000049001208DF8F9
:1040E0001B0000E0E5E7FFE7FFE790E79DF81B0016
:1040F00028B9FFE7099801682020C861FFE7049804
:1041000040F00400049001208DF81B00FFE709989F
:104110000068806905909DF81500C00768B1FFE749
:10412000049840F001000490099801684FF48070F1
:10413000C86101208DF81B00FFE79DF815004007BE
:1041400000280DD5FFE7049840F008000490099876
:1041500001684FF48060C86101208DF81B00FFE703
:104160009DF81500800700280DD5FFE7049840F062
:1041700002000490099801684FF40070C8610120A2
:104180008DF81B00FFE79DF81B0000B3FFE70998BF
:10419000FFF702FF0998016848684EF60002CFF663
:1041A000006210404860049A0999486C10434864C2
:1041B0000999202081F841000999002081F84200E6
:1041C000FFE70999002081F84000FFE7FFE79DF82D
:1041D0001B000AB080BD000080B586B0DDF824C0A9
:1041E000DDF820C00490ADF80E10ADF80C20ADF84D
:1041F0000A300498BDF80E109DF80A20EC4642F2F1
:104200000003C8F20003CCF800304FF0807300F0D8
:1042100043F804980899099A00F016F920B1FFE7CD
:1042200001208DF8170033E0BDF80A00012806D1FF
:10423000FFE79DF80C0004990968886215E09DF875
:104240000D0004990968886204980899099A00F099
:10425000FBF820B1FFE701208DF8170018E09DF86A
:104260000C00049909688862FFE70498089B099983
:104270006A4611608021002200F03AF820B1FFE781
:1042800001208DF8170003E000208DF81700FFE7EC
:104290009DF8170006B080BD84B0DDF810C0039013
:1042A000ADF80A108DF809200193BDF80A006FF3EC
:1042B0009F209DF8091040EA0140019908430499A4
:1042C000084320F00040009003980068406804997B
:1042D00020EA515049F60041CFF6004108400099CC
:1042E000084303990968486004B070470000000063
:1042F00080B586B0DDF820C0049003918DF80B20C6
:104300000193FFE704980068806903990840401A08
:10431000B0FA80F040099DF80B10884237D1FFE7D2
:104320000198013090B3FFE7FCF76EFA0899401A44
:104330000199884203D8FFE7019830BBFFE7049852
:104340000068806903990840401AB0FA80F040097B
:104350009DF80B10884217D1FFE70499486C40F094
:10436000200048640499202081F84100049900202D
:1043700081F84200FFE70499002081F84000FFE740
:1043800001208DF8170006E0FFE7FFE7BAE70020FD
:104390008DF81700FFE79DF8170006B080BD0000FC
:1043A00080B584B0029001910092FFE70298006806
:1043B000806900F020010020B0EB511F39D1FFE7E8
:1043C00002980199009AFFF707FE20B1FFE701204C
:1043D0008DF80F0031E0FCF717FA0099401A0199A7
:1043E000884203D8FFE7019810BBFFE702980068F6
:1043F000806900F020010020B0EB511F17D1FFE7CA
:104400000299486C40F0200048640299202081F80D
:1044100041000299002081F84200FFE70299002044
:1044200081F84000FFE701208DF80F0005E0FFE76D
:10443000BCE700208DF80F00FFE79DF80F0004B0E7
:1044400080BD00000000000080B584B002900191A2
:104450000092FFE702980068806900F002010020E6
:10446000B0EB510F3ED1FFE702980199009AFFF798
:10447000B3FD20B1FFE701208DF80F0036E0019871
:10448000013070B3FFE7FCF7BFF90099401A0199BA
:10449000884203D8FFE7019810BBFFE70298006845
:1044A000806900F002010020B0EB510F17D1FFE747
:1044B0000299486C40F0200048640299202081F85D
:1044C00041000299002081F84200FFE70299002094
:1044D00081F84000FFE701208DF80F0006E0FFE7BC
:1044E000FFE7B7E700208DF80F00FFE79DF80F000A
:1044F00004B080BD0000000080B58AB000200290AA
:104500000990089007900690FCF722FD029901207F
:1045100001908DF818008DF819104FF01052079285
:1045200012228DF820208DF821108DF82200032210
:1045300003928DF823208DF824108DF825108DF826
:1045400026008DF8270006A80490FCF7B1FC019A1C
:10455000029904988DF819204FF0405207921022CA
:104560008DF820208DF826108DF82710FCF7A0FC80
:10457000049802218DF819100021C3F2020107915D
:10458000FCF796FC039904988DF819100021C3F2EA
:10459000040107910E218DF82010FCF789FC049886
:1045A000042105918DF819104FF0605107910F21EA
:1045B0008DF82010FCF77CFC0598FCF7DDFC0AB0B8
:1045C00080BD00000000000080B58AB00020099086
:1045D0000890079006900590FFE744F2E040C5F68A
:1045E0000200016841F080010160006800F0800075
:1045F00004900498FFE7FFE744F2E040C5F60200AC
:10460000016841F004010160006800F004000390BB
:104610000398FFE7FFE744F2E040C5F602000168B7
:1046200041F002010160006800F00200029002986F
:10463000FFE7FFE744F2E040C5F60200016841F001
:1046400001010160006800F0010001900198FFE79E
:104650000C200590002006900120079040F60000F5
:10466000C5F6020005A9FBF7E3FE0AB080BD000015
:1046700080B582B040F23000C2F20040019045F6B1
:104680000001C4F20001016043F6DB71C0F2B00129
:104690004160002181600122C2600161416181614C
:1046A000C1610162FCF758F918B1FFE7FBF794FE0E
:1046B000FFE740F23000C2F200400021FCF7ACF806
:1046C00018B1FFE7FBF788FEFFE740F23000C2F2C7
:1046D00000400021FCF7ECF818B1FFE7FBF77CFE87
:1046E000FFE702B080BD000080B584B000210391D7
:1046F0000291019140F28400C2F2004041F2004276
:10470000C4F200020260EF22426081604FF6FF7245
:10471000C2608161FFF74CFA18B1FFE7FBF75CFE5E
:10472000FFE700200190039040F28400C2F20040B5
:1047300001A9FFF791F918B1FFE7FBF74DFEFFE77D
:1047400004B080BD0000000080B582B040F2D0000F
:10475000C2F20040009041F20001C4F20101016088
:104760004FF4E1314160002101918160C16001613C
:104770000C2242618161C161016241628162FFF785
:104780005BFB18B1FFE7FBF727FEFFE740F2D00025
:10479000C2F200400021FFF707FB18B1FFE7FBF76B
:1047A0001BFEFFE740F2D000C2F200400021FFF7FD
:1047B000B3FA18B1FFE7FBF70FFEFFE740F2D000B6
:1047C000C2F20040FFF768FA18B1FFE7FBF704FEFA
:1047D000FFE702B080BD0000FFE7FEE70000000039
:1047E000FFE7FEE70000000088B007900691059201
:1047F000079800F0070004900498C0F1070005280E
:1048000003D3FFE70420019004E00498C0F10700FF
:104810000190FFE70198039004980430062803D81C
:10482000FFE70020009003E0049803380090FFE7C2
:104830000098029006980399012202FA01F10139C9
:104840000840029B984005999A40013A114008435C
:1048500008B070470000000080B582B000208DF8DD
:104860000700FFE79DF80700072827DCFFE79DF812
:104870000700B030C0B200F0E3F80020009000F074
:10488000DFF8102000F0DCF800988DF80600FFE754
:104890009DF806007F280ADCFFE7002000F0E8F81A
:1048A000FFE79DF8060001308DF80600F0E7FFE70E
:1048B0009DF8070001308DF80700D3E702B080BDF6
:1048C00080B5C820FBF790FD01F012FC80BD000010
:1048D00080B582B08DF807008DF806109DF80600AF
:1048E000B030C0B200F0ACF89DF8070000091030FD
:1048F00000F0A6F89DF8070000F00F0000F0A0F807
:1049000002B080BD0000000080B582B08DF80700C5
:104910008DF806108DF805208DF8043000208DF8F4
:1049200003008DF802009DF8050020388DF8030083
:104930009DF80700802809DBFFE700208DF80700BD
:104940009DF8060002308DF80600FFE79DF8040090
:1049500010284AD1FFE79DF807009DF80610FFF7E1
:10496000B7FF00208DF80200FFE79DF8020007283E
:1049700014DCFFE79DF803109DF8020000EB011125
:1049800046F24A50C0F60000405C00F071F8FFE7C4
:104990009DF8020001308DF80200E6E79DF807005F
:1049A0009DF806100131C9B2FFF792FF00208DF883
:1049B0000200FFE79DF80200072815DCFFE79DF8DD
:1049C00003109DF8020000EB011046F24A51C0F6B8
:1049D00000010844007A00F04BF8FFE79DF8020060
:1049E00001308DF80200E5E725E09DF807009DF80D
:1049F0000610FFF76DFF00208DF80200FFE79DF81D
:104A00000200052816DCFFE79DF8030000EB4001DB
:104A100046F22230C0F6000000EB41009DF8021083
:104A2000405C00F025F8FFE79DF8020001308DF8AA
:104A30000200E4E7FFE702B080BD000000000000D4
:104A400080B584B08DF80F0069464FF4807088609F
:104A500001234B600DF10F00086040F23000C2F2FC
:104A6000004078210022FBF7FBFF04B080BD00006E
:104A700080B584B08DF80F0069464FF4807088606F
:104A800001234B600DF10F00086040F23000C2F2CC
:104A9000004078214022FBF7E3FF04B080BD000016
:104AA000704700000000000080B586B004900391BC
:104AB00000208DF8070044F22840C5F60200006887
:104AC00000F00300032804D1FFE701208DF8170050
:104AD000CBE044F20041C5F60201086820F0806096
:104AE0000860FBF791FE0290FFE744F20040C5F634
:104AF0000200006800F000610020B0EBD16F0CD024
:104B0000FFE7FBF781FE0299401A032804D3FFE771
:104B100003208DF81700A8E0E7E7FFE744F22841FB
:104B2000C5F60201086820F47C30049A126840EA55
:104B30000230086004994868D1F808C0CB680A6957
:104B400001386FF35F204FF60061CFF6FF7101EB84
:104B50004C2189B208440021CFF6FF7101EB0341DB
:104B600001F4FE0108444FF07F4101EB026101F0C6
:104B7000FE41084444F23841C5F602010860FFE7EF
:104B800044F22C41C5F602010091086820F0C000F3
:104B9000049A526910430860086820F02000049AC3
:104BA000926910430860086820F01000086044F221
:104BB0003C42C5F6020210684FF6F8739843049B16
:104BC000DB6940EAC3001060086840F0100008602C
:104BD000039848B9FFE744F22C41C5F60201086882
:104BE00040F40020086016E00398012809D1FFE78F
:104BF00044F22C41C5F60201086840F480100860B8
:104C000008E044F22C41C5F60201086840F40010A7
:104C10000860FFE7FFE744F20041C5F602010868BB
:104C200040F080600860FBF7EFFD0290FFE744F280
:104C30000040C5F60200006800F000610020B0EB03
:104C4000D16F0CD1FFE7FBF7DFFD0299401A032873
:104C500004D3FFE703208DF8170006E0E7E7FFE73E
:104C60009DF807008DF81700FFE79DF8170006B0C4
:104C700080BD00000000000080B586B00490039164
:104C800000208DF8070044F22840C5F602000068B5
:104C900000F00300032804D1FFE701208DF817007E
:104CA000CBE044F20041C5F60201086820F08050D4
:104CB0000860FBF7A9FD0290FFE744F20040C5F64B
:104CC0000200006800F000510020B0EB517F0CD0D2
:104CD000FFE7FBF799FD0299401A032804D3FFE789
:104CE00003208DF81700A8E0E7E7FFE744F228412A
:104CF000C5F60201086820F07C70049A126840EA48
:104D00000250086004994868D1F808C0CB680A6965
:104D100001386FF35F204FF60061CFF6FF7101EBB2
:104D20004C2189B208440021CFF6FF7101EB034109
:104D300001F4FE0108444FF07F4101EB026101F0F4
:104D4000FE41084444F24041C5F602010860FFE715
:104D500044F22C41C5F602010091086820F440603D
:104D6000049A526910430860086820F40070049A9D
:104D7000926910430860086820F48070086044F26B
:104D80004442C5F6020210684FF6F8739843049B3C
:104D9000DB6940EAC3001060086840F48070086076
:104DA000039848B9FFE744F22C41C5F602010868B0
:104DB00040F48000086016E00398012809D1FFE75D
:104DC00044F22C41C5F60201086840F40000086076
:104DD00008E044F22C41C5F60201086840F08070FA
:104DE0000860FFE7FFE744F20041C5F602010868EA
:104DF00040F080500860FBF707FD0290FFE744F2A7
:104E00000040C5F60200006800F000510020B0EB41
:104E1000517F0CD1FFE7FBF7F7FC0299401A0328FA
:104E200004D3FFE703208DF8170006E0E7E7FFE76C
:104E30009DF807008DF81700FFE79DF8170006B0F2
:104E400080BD00000000000070470000000000006E
:104E500080B582B0009000980138B0F1807F03D314
:104E6000FFE70120019019E0009801384EF214018B
:104E7000CEF2000108604FF0FF300F2101F06CF915
:104E80004EF21801CEF20001002008604EF210022E
:104E9000CEF20002072111600190FFE7019802B0F5
:104EA00080BD00000000000080B5FBF76DFF80BDF5
:104EB00080B5A0B00DA84C21FBF742FA002001906C
:104EC0000C900B900A90099008900790069005901E
:104ED0000220FCF79DF8FFE70020049040F22C40F0
:104EE000C5F60000016821F001010160006800F0D2
:104EF0000100049044F61800C5F60200016841F470
:104F000040410160006800F4404004900498FFE7CD
:104F1000FFE744F61800C5F60200006800F40050F0
:104F2000B0F5005F01D0FFE7F3E7FFE744F2F4409C
:104F3000C5F60200016841F002010160006800F05E
:104F4000020003900398FFE7FFE70020029044F679
:104F50001800C5F60200016841F440410160006894
:104F600000F44040029040F22C40C5F60000016879
:104F700041F001010160006800F001000290029818
:104F8000FFE7FFE744F61800C5F60200006800F4EA
:104F90000050B0F5005F01D0FFE7F3E701200D906E
:104FA0004FF480300E900220169017900521189132
:104FB000C02119911A901B901C9008201D90002070
:104FC0001E901F900DA8FDF793FF18B1FFE7FBF7A8
:104FD00003FAFFE73F20059003200690002007908A
:104FE00008200890402009900A904FF480610B91AE
:104FF0000C9005A80421FDF75BFB18B1FFE7FBF758
:10500000EBF9FFE720B080BD81B04EF68851CEF2BB
:105010000001086840F47000086042F20000C5F228
:105020000020006800F00F0006280AD8FFE742F2CF
:105030000001C5F200210868072262F3030008603E
:10504000FFE744F20041C5F60201086840F00100A4
:10505000086044F21042C5F60202002010600868A1
:105060004EF67F52CEF6F6221040086042F2000063
:10507000C5F20020006800F00F0008280AD3FFE7FF
:1050800042F20001C5F200210868072262F3030022
:105090000860FFE744F21841C5F6020100200090C5
:1050A000086044F21C41C5F60201086044F2204148
:1050B000C5F60201086044F22842C5F6020240F239
:1050C0000021C0F20221116044F22C42C5F6020216
:1050D0000021C0F2FF11116044F23042C5F6020215
:1050E00040F28021C0F20111116044F23442C5F651
:1050F0000202106044F23842C5F60202116044F226
:105100003C42C5F60202106044F24042C5F602027B
:10511000116044F24441C5F60201086044F20042C5
:10512000C5F60202116821F48021116044F2604149
:10513000C5F60201086041F20001C5F600410968A8
:10514000B0EB517F07D1FFE748F20811C5F200111B
:1051500001200860FFE744F20001C5F2002143F29C
:10516000D200086001B0704783B0029001910298AC
:105170000068009002980021C4F20101884225D005
:10518000FFE70298B0F1804F20D0FFE7029840F28D
:105190000041C4F20001884218D0FFE7029840F6AF
:1051A0000001C4F20001884210D0FFE7029840F6E7
:1051B0000041C4F20001884208D0FFE7029840F2A3
:1051C0000041C4F2010188420AD1FFE7009820F0B3
:1051D0007000009001984168009808430090FFE734
:1051E00002980021C4F2010188423DD0FFE70298F5
:1051F000B0F1804F38D0FFE7029840F20041C4F28E
:105200000001884230D0FFE7029840F60001C4F266
:105210000001884228D0FFE7029840F60041C4F21E
:105220000001884220D0FFE7029840F20041C4F21A
:105230000101884218D0FFE7029844F20001C4F24D
:105240000101884210D0FFE7029844F20041C4F205
:105250000101884208D0FFE7029844F60001C4F239
:10526000010188420AD1FFE7009820F440700090C5
:105270000198C168009808430090FFE7009820F06B
:1052800080000199496908430090009802990860DC
:10529000019880680299C862019800680299886242
:1052A00002980021C4F20101884220D0FFE7029851
:1052B00040F20041C4F20101884218D0FFE7029891
:1052C00044F20001C4F20101884210D0FFE70298C5
:1052D00044F20041C4F20101884208D0FFE702987D
:1052E00044F60001C4F20101884205D1FFE70198AC
:1052F000006902990863FFE702990120486103B041
:10530000704700000000000082B001900198406EDC
:1053100040B9FFE701990120A1F86A000199A1F8BD
:10532000680032E010208DF803008DF8020001982B
:1053300000688068C0F342608DF801000198006841
:105340008068400F8DF800009DF802009DF8002055
:1053500046F64233C0F60003995C484346F63A31BC
:10536000C0F600018A5CB0FBF2F0019AA2F86A0074
:105370009DF803009DF801209B5C5843895CB0FBBD
:10538000F1F00199A1F86800FFE702B07047000052
:1053900081B00090009890F82800C00758B1FFE74E
:1053A00000980068406820F40030009A1168D26AC2
:1053B00010434860FFE7009890F828008007002815
:1053C0000BD5FFE700980068406820F48030009A11
:1053D0001168126B10434860FFE7009890F82800AE
:1053E000400700280BD5FFE700980068406820F4CC
:1053F0008020009A1168526B10434860FFE70098C4
:1054000090F82800000700280BD5FFE700980068F7
:10541000406820F40040009A1168926B1043486085
:10542000FFE7009890F82800C00600280BD5FFE79A
:1054300000980068806820F48050009A1168D26B50
:1054400010438860FFE7009890F828008006002845
:105450000BD5FFE700980068806820F40050009AA0
:105460001168126C10438860FFE7009890F82800DC
:10547000400600281CD5FFE700980068406820F42B
:105480008010009A1168526C104348600098406C7C
:10549000B0F5801F0BD1FFE700980068406820F44A
:1054A000C000009A1168926C10434860FFE7FFE764
:1054B000009890F82800000600280BD5FFE7009818
:1054C0000068406820F40020009A1168D26C1043F4
:1054D0004860FFE701B0704780B588B00690069934
:1054E0000020C1F89000FBF78FF90590069800683E
:1054F0000068000700282FD5FFE70698059B6A463D
:105500006FF07E4111604FF40011002200F06CFD3D
:1055100008B3FFE7FFE7FFE70698006850E8000FD1
:1055200020F080000490FFE704990698026842E8A2
:1055300000100028F0D1FFE7FFE706992020C1F80E
:105540008800FFE70699002081F88400FFE7032028
:105550008DF81F005FE0FFE70698006800684007CD
:10556000002842D5FFE70698059B6A466FF07E410A
:1055700011604FF48001002200F036FDA0B3FFE778
:10558000FFE7FFE70698006850E8000F20F49070EE
:105590000390FFE703990698026842E8001000288C
:1055A000F0D1FFE7FFE7FFE7FFE70698006850E864
:1055B000020F20F001000290FFE7029906980268AE
:1055C00042E802100028F0D1FFE7FFE7069920200B
:1055D000C1F88C00FFE70699002081F88400FFE7FE
:1055E00003208DF81F0016E0FFE706992020C1F880
:1055F00088000699C1F88C0006990020C8660699B3
:105600000867FFE70699002081F88400FFE7002083
:105610008DF81F00FFE79DF81F0008B080BD000057
:1056200084B00390FFE7FFE70398006850E8000F9D
:1056300020F490700290FFE702990398026842E814
:1056400000100028F0D1FFE7FFE7FFE7FFE703982E
:10565000006850E8020F4FF6FE71CEF6FF71084069
:105660000190FFE701990398026842E802100028C0
:10567000EDD1FFE7FFE70398C06E012814D1FFE7E3
:10568000FFE7FFE70398006850E8000F20F01000E4
:105690000090FFE700990398026842E80010002894
:1056A000F0D1FFE7FFE7FFE703992020C1F88C0066
:1056B00003990020C8660399486704B0704700004A
:1056C00080B59CB01B9000208DF85F001B9800688F
:1056D00040F60041C5F60001884201D1FFE700E035
:1056E000FFE71B9988680B694A69C9691843104329
:1056F00008431A901B980068006846F6F311CCF630
:10570000FF7108401A9908431B99096808601B98A3
:105710000068406820F440501B9A1168D26810431A
:1057200048601B9880691A901B98006840F60041F9
:10573000C5F60001884206D0FFE71B98016A1A9857
:1057400008431A90FFE71B98006880684FF2FF41FA
:10575000C1F2FF1108401A9908431B990968886033
:105760001B980068C06A20F00F001B9A1168526AEB
:105770001043C862FFE71B98006841F20001C4F2C1
:105780000101884240F04180FFE744F25440C5F6F1
:105790000200006800F0380001460E9128282FD83A
:1057A0000E99DFE801F0152D2D2D2D2D2D2D192D04
:1057B0002D2D2D2D2D2D1D2D2D2D2D2D2D2D212D35
:1057C0002D2D2D2D2D2D252D2D2D2D2D2D2D290042
:1057D00001208DF8650017E004208DF8650013E0C6
:1057E00008208DF865000FE010208DF865000BE0B3
:1057F00020208DF8650007E040208DF8650003E06B
:1058000080208DF86500FFE7D6E11B98006844F220
:105810000041C4F2000188422ED1FFE744F2544017
:10582000C5F60200006800F0070001460D9105284A
:105830001DD80D99DFE801F003070B0F13170020A7
:105840008DF8650017E004208DF8650013E008204E
:105850008DF865000FE010208DF865000BE020202A
:105860008DF8650007E040208DF8650003E080209A
:105870008DF86500FFE79EE11B98006844F6000183
:10588000C4F2000188422ED1FFE744F25440C5F62D
:105890000200006800F0070001460C9105281DD8A1
:1058A0000C99DFE801F003070B0F131700208DF8A8
:1058B000650017E004208DF8650013E008208DF8DE
:1058C00065000FE010208DF865000BE020208DF8BA
:1058D000650007E040208DF8650003E080208DF82A
:1058E0006500FFE766E11B98006844F60041C4F2DA
:1058F000000188422ED1FFE744F25440C5F6020071
:10590000006800F0070001460B9105281DD80B998F
:10591000DFE801F003070B0F131700208DF8650077
:1059200017E004208DF8650013E008208DF865006D
:105930000FE010208DF865000BE020208DF8650049
:1059400007E040208DF8650003E080208DF86500B9
:10595000FFE72EE11B98006845F20001C4F2000148
:1059600088422ED1FFE744F25440C5F60200006899
:1059700000F0070001460A9105281DD80A99DFE8C2
:1059800001F003070B0F131700208DF8650017E0D7
:1059900004208DF8650013E008208DF865000FE005
:1059A00010208DF865000BE020208DF8650007E0E1
:1059B00040208DF8650003E080208DF86500FFE74A
:1059C000F6E01B98006841F20041C4F201018842F0
:1059D00040F04180FFE744F25440C5F60200006801
:1059E00000F038000146099128282FD80999DFE8EE
:1059F00001F0152D2D2D2D2D2D2D192D2D2D2D2D6C
:105A00002D2D1D2D2D2D2D2D2D2D212D2D2D2D2DE2
:105A10002D2D252D2D2D2D2D2D2D290001208DF8FD
:105A2000650017E004208DF8650013E008208DF86C
:105A300065000FE010208DF865000BE020208DF848
:105A4000650007E040208DF8650003E080208DF8B8
:105A50006500FFE7ABE01B98006847F60001C4F261
:105A6000000188422ED1FFE744F25440C5F60200FF
:105A7000006800F007000146089105281DD8089924
:105A8000DFE801F003070B0F131700208DF8650006
:105A900017E004208DF8650013E008208DF86500FC
:105AA0000FE010208DF865000BE020208DF86500D8
:105AB00007E040208DF8650003E080208DF8650048
:105AC000FFE773E01B98006847F60041C4F200014D
:105AD00088422ED1FFE744F25440C5F60200006828
