:020000040800F2
:10000000D8760024AD020008532B0008F729000819
:10001000512B000819040008953C0008000000005E
:10002000000000000000000000000000592D000842
:10003000BD04000800000000552B00085B2D0008DF
:10004000C7020008C7020008C7020008C70200086C
:10005000C7020008C7020008C7020008C70200085C
:10006000C7020008C7020008C7020008C70200084C
:10007000C7020008C7020008C7020008C70200083C
:10008000C7020008C7020008C7020008C70200082C
:10009000C7020008C7020008C7020008C70200081C
:1000A000C7020008C7020008C7020008C70200080C
:1000B000C7020008C7020008C7020008C7020008FC
:1000C000C7020008C7020008C7020008C7020008EC
:1000D000C7020008853C0008C70200088D3C0008E4
:1000E000C7020008C702000800000000C70200089D
:1000F000C7020008C7020008C7020008C7020008BC
:10010000C7020008C7020008C7020008C7020008AB
:10011000C7020008C7020008C7020008C70200089B
:10012000C7020008C7020008C7020008C70200088B
:10013000C7020008C7020008C7020008C70200087B
:1001400000000000000000000000000000000000AF
:10015000C7020008C7020008C7020008C70200085B
:10016000C7020008C7020008C7020008C70200084B
:10017000C7020008C7020008C7020008000000000C
:10018000C7020008C7020008C7020008C70200082B
:10019000C7020008C7020008C7020008C70200081B
:1001A000C7020008C7020008C7020008C70200080B
:1001B000C7020008C7020008C7020008C7020008FB
:1001C000C7020008C7020008C7020008C7020008EB
:1001D000C7020008C7020008C7020008C7020008DB
:1001E000C7020008C7020008C7020008C7020008CB
:1001F000C7020008C7020008C7020008C7020008BB
:10020000C7020008C7020008C7020008C7020008AA
:10021000C7020008C7020008C7020008C70200089A
:10022000C7020008C7020008C7020008000000005B
:10023000C7020008C702000800000000C70200084B
:10024000C7020008C7020008C7020008C70200086A
:10025000C7020008C7020008C7020008C70200085A
:10026000C7020008C7020008C7020008C70200084A
:10027000C7020008C7020008C7020008000000000B
:10028000C7020008C7020008C702000800000000FB
:1002900000000000C7020008DFF80CD000F0AAF848
:1002A00000480047B93C0008D8760024064880473B
:1002B00006480047FEE7FEE7FEE7FEE7FEE7FEE74B
:1002C000FEE7FEE7FEE7FEE7612E00089902000860
:1002D0002DE9F05F0546002092469B46884606467B
:1002E000814640241BE0284641464746224600F00E
:1002F00070F853465A46C01A914110D31146184619
:10030000224600F057F82D1A67EB01084F462246A7
:100310000120002100F04EF817EB00094E41201E8D
:10032000A4F10104DFDC484631462A464346BDE8D5
:10033000F09F40EA01039B0703D009E008C9121FA0
:1003400008C0042AFAD203E011F8013B00F8013B8F
:10035000521EF9D27047D2B201E000F8012B491EBB
:10036000FBD270470022F6E710B513460A46044652
:100370001946FFF7F0FF204610BD421C10F8011B84
:100380000029FBD1801A704730B50B46014600208A
:100390002022012409E021FA02F59D4205D303FA47
:1003A00002F5491B04FA02F52844151EA2F10102C8
:1003B000F1DC30BD202A04DB203A00FA02F10020F3
:1003C00070479140C2F1200320FA03F31943904093
:1003D0007047202A04DB203A21FA02F000217047FE
:1003E00021FA02F3D040C2F120029140084319469D
:1003F00070470000064C074D06E0E06840F001033E
:1004000094E8070098471034AC42F6D3FFF748FF52
:10041000A8400008C8400008FEE70000B0B5242846
:1004200009D125480121C17024230179154A53546B
:1004300001310171B0BD204DE978012921D12A791E
:100440002328104B02F10101985429710FD100208B
:100450000C4CA5F80300642216482146FFF769FFFB
:100460000120287064212046FFF77CFFB0BDC8B290
:10047000642806D30020A5F8030064210148FFF793
:1004800071FFB0BD6C020024DFF828C000210A4AC9
:1004900007E001EB810363449B7950180131303B45
:1004A00043710829F5D180B502486421FFF75AFF4E
:1004B00080BD00BF08020024760000247047EFF3DF
:1004C000108072B6FEE70000F8B5044600F04CFB61
:1004D000002C00F0AA80054694F83500022840F070
:1004E000A6802768AC4EB74238463CD0AB4887421E
:1004F000384638D0AA488742384634D0A94887427F
:10050000384630D0A848874238462CD0A748874282
:10051000384628D0A6488742384624D0A548874286
:10052000384620D0A448874238461CD0A34887428A
:10053000384618D0A2488742384614D0A14887428E
:10054000384610D0A048874238460CD09F48874292
:10055000384608D09E488742384604D09D48874296
:1005600040F0E9809B48016821F01E0207F1140168
:1005700002606FF080000A68B74200EA020008607B
:100580003CD0F44887421CBFF348874236D0F3483A
:1005900087421CBFF248874230D0F24887421CBFD6
:1005A000F14887422AD0F14887421CBFF048874271
:1005B00024D0F04887421CBFEF4887421ED0EF4846
:1005C00087421CBFEE48874218D0EE4887421CBFC6
:1005D000EE48874212D0EC4887421CBFEC48874265
:1005E0000CD0EC4887421CBFEB48874206D0EB4852
:1005F00087421CBFEA48874240F0B680206E0168FF
:1006000021F480710160386820F00100386038689A
:10061000C00710D000F0A8FA401B0628F7D320200E
:100620006065032084F8350003E0012081E080202C
:10063000606501207AE02068B0421CBFC54988424D
:100640001DD0C54988421CBFC449884217D0C4493F
:1006500088421CBFC349884211D0C34988421CBF8D
:10066000C24988420BD0C24988421CBFC149884256
:1006700005D0C14988421CBFC04988425FD1A16DE5
:10068000E26D3F2302F01F0203FA02F28A60B042D9
:100690003BD0B04988421CBFAF49884235D0AF49F2
:1006A00088421CBFAE4988422FD0AE4988421CBF49
:1006B000AD49884229D0AD4988421CBFAC49884227
:1006C00023D0AC4988421CBFAB4988421DD0AB49FE
:1006D00088421CBFAA49884217D0AA4988421CBF39
:1006E000AA49884211D0A84988421CBFA84988421B
:1006F0000BD0A84988421CBFA749884205D0A7490A
:1007000088421CBFA64988423BD1E06ED4E9191249
:1007100000284A6006D0016821F480710160D4E9A4
:100720001C014160012084F835000020002184F87C
:10073000341001B0F0BD6FF00E0039461BE7904950
:1007400088429CD09149884299D08E49884296D05F
:100750008D498842A16D93D0E26D012302F01F0202
:1007600003FA02F24A6092E78E4887423FF446AFAE
:100770008D4887423FF442AF8C4887423FF43EAFFA
:1007800041E788498842C0D087498842BDD087491F
:100790008842BAD0C6E700BF1000024028000240DD
:1007A00040000240580002407000024088000240B1
:1007B000A0000240B8000240100402402804024099
:1007C0004004024058040240700402408804024081
:1007D000A0040240B804024010B5002844D090F8AC
:1007E000351002293ED10168594A914223D0594B14
:1007F00099421CBF584B99421DD0584B99421CBF7F
:10080000574B994217D0574B99421CBF564B9942B0
:1008100011D0564B99421CBF554B99420BD0554BAA
:1008200099421CBF544B994205D0544B99421CBF6E
:10083000534B99423CD10423914280F835300BD080
:10084000444881421CBF4448814205D0434881420C
:100850001CBF434881420AD1086820F001000860AB
:10086000002102E0802141650121084610BD3D487C
:100870008142F1D03C488142EED03C488142EBD0ED
:100880003B488142E8D03B4881421CBF3A48814204
:10089000E2D03A4881421CBF39488142DCD0394815
:1008A0008142D9D038488142D6D038488142D3E7F6
:1008B000344B9942BFD0344B9942BCD0334B994210
:1008C000B9D00A6822F00E020A60314A91420A68E1
:1008D00022F001020A600BD02E4A91421CBF2E4A20
:1008E000914205D02D4A91421CBF2D4A914225D1FB
:1008F000D0E916C2D0E9183E196802F01F0221F4AF
:1009000080710124196004FA02F1CCF80410816EA0
:10091000CEF80410C16E31B10A6822F480720A6008
:10092000D0E91C124A60012180F835100021026DC7
:10093000002A80F8341098D0904791E7194A9142E4
:10094000D6D0194A9142D3D0184A9142D0D0EAE782
:1009500010000240280002404000024058000240BF
:100960007000024088000240A0000240B80002402F
:10097000100402402804024040040240580402408F
:100980007004024088040240B8040240A0040240FF
:10099000085402581C540258305402584454025807
:1009A000585402586C5402589454025880540258B7
:1009B000B0B5044600F0D8F89749621C097805469E
:1009C00018BF0C4400F0D0F8401BA042FAD3B0BDD1
:1009D0002DE9FC4F5E4A0A275E4C02444FEAB223DF
:1009E000A04208BF0927092B38BF4FEAB2274FF0B2
:1009F000000C009701274FF0000E00269EE007FA3A
:100A000006F912EA090B00F094804A6802F0030824
:100A1000A8F1010ABAF1010F13D80324856804FA7A
:100A20000EF325EA0303CD6805FA0EF52B43836028
:100A30004368C2F3001523EA0903B5402B43436022
:100A400004E0B8F1030F4FF003041FD0C36804FAA9
:100A50000EF5AB438D6805FA0EF52B43B8F1020F86
:100A6000C36013D16FF0030202EA560202440CF095
:100A70001C03D2F820800F259D4028EA05080D6947
:100A800005FA03F343EA080313624A68036804FAA9
:100A90000EF5AB4302F0030505FA0EF52B4312F4F5
:100AA000403F036045D0864A13462B4C12680F2501
:100AB00042F002021A601A6802F00202019226F065
:100AC0000302019B0CF00C0352F804809D40009F30
:100AD00028EA050507FA03F32B4313514FF0B048FA
:100AE000D8F800204B6842EA0B05DF0258BF22EA23
:100AF0000B05164A1446C8F800509F02126842EAD5
:100B00000B0558BF22EA0B059F0325604FF0010734
:100B1000D4F8802042EA0B0558BF22EA0B05DB031C
:100B2000C4F88050E26F42EA0B0558BF22EA0B0579
:100B3000E56701360EF1020E0CF1040C0A6832FA78
:100B400006F47FF45CAFBDE8FC8F00BF04000058E2
:100B50000000FEA70024025808040058014800685D
:100B6000000C70470010005C05480068704700BF2B
:100B70002948007802490A6810440860704700BF9D
:100B8000D002002480B5032000F0CAF801F032F84A
:100B90000F490A68C2F303220968834B01F00F0171
:100BA0009A5C595C02F01F02D0400A4A01F01F0112
:100BB00020FA01F1116019490860002000F00CF8DA
:100BC00008B1012080BD00F06DF8002080BD00BF9D
:100BD000184402580C00002470B50F4E3178C1B192
:100BE00004464FF47A70B0FBF1F00C490968B1FB90
:100BF000F0F001F00FFB0F2C4FF001050AD848B9B7
:100C00004FF0FF3000222146002500F069F87460A3
:100C100000E00125284670BD0000002408000024E3
:100C2000B0B50278114D4378002A2B601AD0436882
:100C30006B60037BC17A847A42EA0372437B42EAA7
:100C40000161827B41EAC441C47B41EA8341437A2A
:100C500041EA4241007A41EA044141EA032141EA82
:100C6000400001E000206860A860B0BD98ED00E0A1
:100C7000BFF35F8F0A48016821F4803101600021D1
:100C80000167704740F0010005490867086840F4B3
:100C900080300860BFF34F8FBFF36F8F704700BF86
:100CA00024ED00E081B00648016841F002010160D6
:100CB000006800F002000090009801B0704700BF8B
:100CC000F4440258002808DB00F01F01012202FA58
:100CD00001F1024A400942F82010704700E100E0AB
:100CE00080B5154B1B68C3F3022C8CF0070EBEF1C8
:100CF000040F28BF4FF0040EBCF103034FF0FF3C7C
:100D000038BF00230CFA0EFE21EA0E0199400CFABE
:100D100003F39A431143BDE8804002F0BDBF00BF1A
:100D200005490A684FF6FF031A4060F30A22034898
:100D300010430860704700BF0CED00E00000FA05AA
:100D4000B0B5104D29684907296805D401F007019D
:100D5000081A18BF0120B0BD21F007010843286020
:100D6000FFF702FF044655F8080C800407D4FFF78C
:100D7000FBFE001BB0F57A7FF5D90120B0BD002045
:100D8000B0BD00BF0C48025880B500F0F3FE054925
:100D9000054A0968C1F30211515C01F01F01C84006
:100DA00080BD00BF204402586E40000810B53C4C86
:100DB000A36AA26AC2F3053CE26AC2F30012E16BC5
:100DC000C1F3CC01BCF1000F11FB02F100EE101ACF
:100DD000B8EE400A0AD003F00303022B0AD063B92D
:100DE000216889060CD49FED311A13E00021C0E977
:100DF000001153E09FED2C1A0CE09FED2A1A09E038
:100E000021682B4AC1F3C10122FA01F101EE101A47
:100E1000B8EE411A02EE10CA9FED263AB8EE422A09
:100E2000A16B6FF35F2181EE021A02EE101AB8EE89
:100E3000422AA16BC1F3462100EE032AB7EE000A55
:100E400003EE101A32EE002AB8EE433A21EE021AEF
:100E500033EE002A81EE022ABCEEC22A80ED002A7F
:100E6000A16BC1F3064102EE101AB8EE422A32EE2F
:100E7000002A81EE022ABCEEC22A80ED012AA16B73
:100E8000C1F3066102EE101AB8EE422A32EE000AF1
:100E900081EE000ABCEEC00A10EE101A816010BD8F
:100EA000004402580024744A20BCBE4B0024744CF9
:100EB0000090D0030000003910B53C4CA36AA26A30
:100EC000C2F3055CE26AC2F30022616CC1F3CC019B
:100ED000BCF1000F11FB02F100EE101AB8EE400A4F
:100EE0000AD003F00303022B0AD063B921688906F4
:100EF0000CD49FED311A13E00021C0E9001153E03A
:100F00009FED2C1A0CE09FED2A1A09E021682B4A6C
:100F1000C1F3C10122FA01F101EE101AB8EE411A33
:100F200002EE10CA9FED263AB8EE422A216C6FF30A
:100F30005F2181EE021A02EE101AB8EE422A216CED
:100F4000C1F3462100EE032AB7EE000A03EE101AA1
:100F500032EE002AB8EE433A21EE021A33EE002AAE
:100F600081EE022ABCEEC22A80ED002A216CC1F378
:100F7000064102EE101AB8EE422A32EE002A81EE45
:100F8000022ABCEEC22A80ED012A216CC1F306615F
:100F900002EE101AB8EE422A32EE000A81EE000A82
:100FA000BCEEC00A10EE101A816010BD0044025859
:100FB0000024744A20BCBE4B0024744C0090D00323
:100FC000000000392DE9F0470446C078B04F000713
:100FD00022D5A06E4FEA3051032908D8DFE801F08E
:100FE00002090F17F96941F40031F9610FE0012698
:100FF00013E004F10800022101F0AEFD04E004F169
:101000002800022101F028FE064630B9A06E396C96
:1010100021F440110843386400266078BA46C007BE
:1010200001D135462AE0A06D04280BD83546DFE80B
:1010300000F0030C12181800F869354640F400302F
:10104000F8610EE00125012719E004F108000021F4
:1010500001F082FD04E004F12800002101F0FCFD14
:101060000546002D2F460AD1DAF84000002520F071
:101070000700A16D08435246CAF840003746607821
:1010800080072DD5E06D4FEAB01004280CD8DFE8BA
:1010900000F0030E141A1A00DAF81C00514640F44E
:1010A0000030CAF81C000EE00125012619E004F109
:1010B0000800002101F050FD04E004F128000021A7
:1010C00001F0CAFD0546002D2E460AD1DAF840008F
:1010D000002520F4E070E16D08435246CAF8400054
:1010E0003E466078400702D4B04657462CE0D4F81C
:1010F000A80057464FEA7050042809D8DFE800F0EE
:10110000030C12181800F86940F40030F8610FE081
:1011100001254FF0010817E004F10800002101F05B
:101120001BFD04E004F12800002101F095FD0546B7
:10113000002DA84608D1B86C002520F46000D4F832
:10114000A8100843B046B864607800072CD5D4F8DE
:10115000AC004FEA3060042809D8DFE800F0030B48
:1011600011171700F86940F40030F8610EE001250E
:1011700001271AE004F10800002101F0EDFC04E071
:1011800004F12800002101F067FD0546002D2F46DF
:101190000BD1DAF84800002520F0E060D4F8AC105C
:1011A00008435246CAF848004746E078800726D5EB
:1011B000E06C4FEA301003280BD8DFE800F0130290
:1011C0000D13DAF81C00514640F40030CAF81C0038
:1011D00008E00125012613E004F10800022101F0D6
:1011E000BBFC0546002D2E460AD1DAF83C0000254E
:1011F00020F03000E16C08435246CAF83C003E46FD
:101200006078C0062DD5206E4FEA303004280CD807
:10121000DFE800F0030E141A1A00DAF81C00514639
:1012200040F40030CAF81C000EE00125012719E047
:1012300004F10800002101F08FFC04E004F1280013
:10124000002101F009FD0546002D2F460AD1DAF8EC
:101250004000002520F4E040216E08435246CAF8C1
:10126000400037466078800627D5606E4FEA3040F0
:1012700005280AD8DFE800F014030E14141404F152
:101280000800012101F068FC09E00125012615E0B4
:101290001044025804F12800012101F0DDFC05464C
:1012A000002D2E460AD1DAF84000002520F4E02077
:1012B000616E08435246CAF840003E4660784006D8
:1012C00027D5D4F8B0004FEA307005280AD8DFE8F7
:1012D00000F012030C12121204F10800012101F0B7
:1012E0003BFC07E00125012714E004F1280001215F
:1012F00001F0B2FC0546002D2F460BD1DAF848006C
:10130000002520F0E040D4F8B01008435246CAF857
:10131000480037466078000622D5206F98B1B0F1BA
:10132000005F0AD0B0F1805F2ED1DAF81C00514680
:1013300040F40030CAF81C0005E004F10800012167
:1013400001F00AFC0546002D2E460AD1DAF84000CD
:10135000002520F04050216F08435246CAF8400053
:101360003E46E078C00702D1B046574624E0A06C64
:10137000574603280BD8DFE800F014020E14F86972
:1013800040F40030F8610CE001250126E9E7012571
:101390004FF0010810E004F10800022101F0DCFB2D
:1013A0000546002DA84607D1F86B002520F0030064
:1013B000A16C0843B046F863A078400601D44746C4
:1013C00017E0D7F8F00340F48070C7F8F003FFF798
:1013D000CBFB0646D7F8F003C00507D4FFF7C4FBE4
:1013E000801B6428F6D90325032702E0002D2F4631
:1013F00012D02078C00750D0E06F4FEAF0000528E7
:1014000035D8DFE800F03D03373D3D3D04F10800ED
:10141000012101F0A1FB32E0DAF860105346D4F864
:10142000B400414011F4407F0BD0196E1A6E21F4C4
:10143000407142F480321A661A6E22F480321A66C3
:101440001966B0F5807F40F07282FFF78DFB06468B
:1014500041F2883903250327DAF86000800700F19C
:101460006382FFF781FB801B4845F5D9C1E7012561
:10147000012613E004F12800012101F0EDFB0546EF
:10148000002D2E460AD1DAF84400002520F038005D
:10149000E16F08435246CAF844003E462078800770
:1014A00023D5A06F05280AD8DFE800F012030C123C
:1014B000121204F10800012101F04EFB07E00125A2
:1014C000012713E004F12800012101F0C5FB0546C6
:1014D000002D2F460AD1DAF84400002520F007003D
:1014E000A16F08435246CAF84400374620784007A7
:1014F00025D5D4F8940005280AD8DFE800F01203B7
:101500000C12121204F10800012101F025FB07E082
:101510000125012614E004F12800012101F09CFBC3
:101520000546002D2E460BD1DAF84800002520F0A4
:101530000700D4F8941008435246CAF848003E46C3
:101540002078800627D5D4F890004FEA307005281F
:101550000AD8DFE800F012030C12121204F108009E
:10156000002101F0F9FA07E00125012714E004F158
:101570002800022101F070FB0546002D2F460BD1FB
:10158000DAF84400002520F0E040D4F89010084339
:101590005246CAF8440037462078400627D5D4F88A
:1015A0009C004FEAB02005280AD8DFE800F01203BB
:1015B0000C12121204F10800002101F0CDFA07E02C
:1015C0000125012614E004F12800022101F044FB6A
:1015D0000546002D2E460BD1DAF84800002520F4F0
:1015E000E050D4F89C1008435246CAF848003E46E2
:1015F0002078000627D5D4F8A0004FEA70300528DF
:101600000AD8DFE800F012030C12121204F10800ED
:10161000002101F0A1FA07E00125012714E004F1FF
:101620002800022101F018FB0546002D2F460BD1A2
:10163000DAF84800002520F46040D4F8A0100843F0
:101640005246CAF8480037462068010717D5D4F833
:101650008410B1F5805F0AD104F12800022101F065
:10166000FBFA0028206818BF0127D4F88410DAF8A4
:101670004420534622F440521143CAF84410C10694
:1016800017D5D4F89810B1F5807F0AD104F128005D
:10169000022101F0E1FA0028206818BF0127D4F8E0
:1016A0009810DAF84820534622F440721143CAF8E1
:1016B0004810000322D5D4F8A400B0F5003F0FD0A5
:1016C000B0F5803F06D088BB04F10800002101F08E
:1016D00043FA04E004F12800022101F0BDFA0546B6
:1016E000002D2E460BD1DAF84800002520F44030BA
:1016F000D4F8A41008435246CAF848003E46A078E1
:1017000040072AD5D4F88800B0F5401F17D0B0F5AF
:10171000001F0ED0B0F5801F40F00181DAF81C00E8
:10172000514640F40030CAF81C0008E001250126AB
:10173000E5E704F12800012101F08EFA0546002DAD
:101740002F460BD1DAF84400002520F44010D4F8DD
:10175000881008435246CAF844003746A078C007AC
:1017600001D13E4622E0206DB0F5803F08D0D8B9C7
:10177000DAF81C00514640F40030CAF81C0005E0BD
:1017800004F10800022101F0E7F90546002D2E467C
:101790000CD1DAF83C00002520F48030216D08439C
:1017A0005246CAF83C00DCE7012501262168880082
:1017B00001D4606809E004F12800022101F04CFA2C
:1017C000002818BF0126D4E900108A031BD5D4F8DD
:1017D00080206FF0010303EB3223022B0BD34FEA7F
:1017E000322343B1012B40F09D80DAF81C3043F4E2
:1017F0000033CAF81C303DB9DAF8443023F44073A2
:101800001A43CAF844203546CA0207D5DAF8402000
:1018100022F00042636F1A43CAF84020CA0008D57C
:10182000DAF8002022F48042D4F8B8301A43CAF81B
:1018300000208A0207D5DAF8402022F08072E36E99
:101840001A43CAF840204A000CD5DAF8002022F4E6
:101850000042CAF80020D4F8BC20DAF800301A435D
:10186000CAF80020B1F1FF3F07DCDAF83C2022F093
:101870004052636D1A43CAF83C20090208D5DAF8D1
:10188000441021F44001D4F88C201143CAF84410CC
:10189000C10708D004F10800002101F05DF900281B
:1018A00018BF05466068810708D504F108000121CA
:1018B00001F052F9002818BF05466068410708D5B5
:1018C00004F10800022101F047F9002818BF05467D
:1018D0006068010708D504F12800002101F0BCF977
:1018E000002818BF05466068C10608D504F1280025
:1018F000012101F0B1F9002818BF05466068800693
:1019000003D44DB10120BDE8F08704F12800022185
:1019100001F0A2F92843F5D10020BDE8F0870125A8
:1019200001271BE701256FE75346D4F8B40000F404
:1019300040711A68B1F5407F22F47C5103D1064A08
:1019400002EA1012114319606FF31F30196E00255F
:101950000843186633E500BFCFFFFF002DE9F843C9
:10196000002800F0FE800446804B186800F00F004D
:10197000884688420BD2186820F00F0040EA080021
:101980001860186800F00F00404540F0EA802068B9
:10199000CF4F41070AD52169BA6902F0700291421E
:1019A00004D9BA6922F070021143B96101070AD55E
:1019B0006169FA6902F07002914204D9FA6922F071
:1019C00070021143F961C1060AD5A169FA6902F4EE
:1019D000E062914204D9FA6922F4E0621143F961AC
:1019E00081060AD5E1693A6A02F07002914204D98F
:1019F0003A6A22F070021143396281070AD5E16820
:101A0000BA6902F00F02914204D9BA6922F00F02BA
:101A10001143B961C10736D0B86920F47061D4E9C7
:101A2000010211430328B96105D0022807D13968A2
:101A300089030DD495E03968890109D491E0012822
:101A4000396802D1C90503D48BE0490740F1898088
:101A50003969994621F0070108433861FFF784F896
:101A6000064641F28835386900F038006168B0EB0D
:101A7000C10F06D0FFF778F8801BA842F3D90320E6
:101A800070E020684B4681070AD5E168BA6902F028
:101A90000F02914204D2BA6922F00F021143B961D8
:101AA000196801F00F0141450AD9196821F00F01A9
:101AB00041EA08011960196801F00F01414550D150
:101AC00041070AD52169BA6902F07002914204D235
:101AD000BA6922F070021143B96101070AD5616940
:101AE000FA6902F07002914204D2FA6922F070029F
:101AF0001143F961C1060AD5A169FA6902F4E062ED
:101B0000914204D2FA6922F4E0621143F96180063D
:101B10000AD5E069396A01F07001884204D2396A55
:101B200021F070010843386200F064F8B969C1F32C
:101B300003212F4A515CBB6903F00F03D25C01F013
:101B40001F0120FA01F102F01F00184A21FA00F0EB
:101B50001060174A064800681160BDE8F843FFF7B7
:101B60003BB8012001B0BDE8F08300BF0020005267
:101B70000400002480B500F03DF80B490A68C2F368
:101B8000032209681A4B01F00F019A5C595C02F0BC
:101B90001F0220FA02F201F01F00044922FA00F0AD
:101BA000086003490A6080BD184402580C000024F4
:101BB0000800002480B5FFF7DDFF0C490C4A0968D6
:101BC000C1F30211515C01F01F01C84080BD00BF8C
:101BD00080B5FFF7CFFF0549054A0968C1F3022127
:101BE000515C01F01F01C84080BD00BF1C44025879
:101BF0006E40000836490869C0F3C20003280CD0C3
:101C0000022828D048BB08688006374858BF70476C
:101C10000968C1F3C101C84070478A6A886AC0F385
:101C2000051CCB6A486B03F00103C0F3CC00BCF188
:101C3000000F10FB03F000EE100AB8EE400A0ED0C1
:101C400002F00302022A0CD072B9086880060ED492
:101C50009FED241A15E0204870471E487047002069
:101C600070479FED1F1A0CE09FED1C1A09E00868F1
:101C70001D4AC0F3C10022FA00F001EE100AB8EECE
:101C8000411A02EE10CA9FED193AB8EE422A086BCB
:101C90006FF35F2081EE021A02EE100AB8EE422ABC
:101CA000086BC0F3462000EE032AB7EE000A0130AD
:101CB00032EE000A21EE000A01EE100AB8EE411AD7
:101CC00080EE010ABCEEC00A10EE100A704700BF99
:101CD0000044025800093D0040787D010024744A08
:101CE00020BCBE4B0024744C0090D003000000398F
:101CF000F8B5002800F0B48104460078D74EC0073C
:101D000021D12078800740F1B180306910F038018E
:101D1000B06A3CD0182908BF5FEA807037D0E0680D
:101D2000002831685CD021F0190108433060FEF7CB
:101D30001BFF05463068400743D4FEF715FF401BE4
:101D40000228F7D9A0E1306900F03801B06A102903
:101D500005D018290AD100F00300022806D1306806
:101D60008003CED560680028CBD179E16068002877
:101D700047D0B0F5803F06D0B0F5A02F30685ED1D7
:101D800040F480203060306840F480305DE030689E
:101D90004007E06802D5002800F06281316821F038
:101DA000190108433060FEF7DFFE05463068400742
:101DB00007D4FEF7D9FE401B02284FF00300F5D9E7
:101DC00063E1FEF7CBFE41F20301884230D820697F
:101DD0007168402821F47C3145D141F4003044E061
:101DE00021F001003060FEF7BFFE05463068400775
:101DF0003CD5FEF7B9FE401B02284FF00300F5D991
:101E000043E1306820F480303060306820F4802076
:101E10003060FEF7A9FE0546306880037FF571AF9C
:101E2000FEF7A2FE401B64284FF00300F4D92CE11A
:101E3000706820F0FE40216940EA016015E020F45E
:101E400080303060306820F480203060FEF78CFEF7
:101E50000546306880033FF554AFFEF785FE401B12
:101E60006428F6D910E141EA003070602078C0069D
:101E700053D5306900F03801B06A082905D0182917
:101E80000BD100F00300012807D13068C00519D537
:101E9000E069802840F0E48014E0E06900283068C0
:101EA00027D040F080003060FEF75EFE05463068C7
:101EB000C00507D4FEF758FE401B02284FF0030070
:101EC000F5D9E2E0FEF74AFE41F20301884208D864
:101ED000206A7168202821F0F8411BD141F0804030
:101EE0001AE0F06820F07C50216A40EA0160F0605E
:101EF00013E020F080003060FEF736FE05463068C3
:101F0000C0050AD5FEF730FE401B02284FF0030043
:101F1000F5D9BAE041EA806070602078000723D5E7
:101F200060690028706F0ED040F001007067FEF706
:101F30001BFE0546706F800716D4FEF715FE401B8A
:101F40000228F7D9A0E020F001007067FEF70CFE30
:101F50000546706F800707D5FEF706FE401B022876
:101F60004FF00300F5D990E02078800623D5A069D2
:101F7000002830680ED040F480503060FEF7F4FD49
:101F800005463068800416D4FEF7EEFD401B02289B
:101F9000F7D979E020F480503060FEF7E5FD054682
:101FA0003068800407D5FEF7DFFD401B02284FF0A4
:101FB0000300F5D969E02078400753D4656A002D05
:101FC00000F00D81306900F0380018286ED1B16A38
:101FD000012D306B44D001F00302A36A9A423FD135
:101FE000C1F30511E26A91423AD10146226B6FF3C7
:101FF0005F21013A914233D1C0F34621626B013A2D
:1020000091422DD1C0F30641A26B013A914227D1F2
:10201000C0F30660E16B0139884221D1706BC0F3D7
:10202000CC00A16C814200F0DA80F06A20F001005F
:10203000F062FEF799FD0546FEF796FDA842FBD03B
:10204000706B4FF6F8718843A16C40EAC100706371
:10205000F06A40F00100F062C1E000BF00440258A5
:10206000012012E0D6F8000440F48070C6F80004A5
:10207000FEF77AFD0546D6F80004C00507D4FEF742
:1020800073FD401B6428F6D9032001B0F0BDA068A1
:1020900060B3012806D00528306F40F0A28040F0E0
:1020A00004003067306F40F00100A0E0306820F09D
:1020B00080703060FEF758FD022D05460AD1306869
:1020C00080012CD5FEF750FD401B02284FF0030085
:1020D000F5D9DAE73068800140F18180FEF744FDF0
:1020E000401B02284FF00300F4D9CEE7306F20F0F8
:1020F00001003067306F20F004003067FEF734FDD8
:10210000054641F28837306F80077FF557AFFEF7FD
:102110002BFD401BB8424FF00300F4D9B5E7B06A7D
:1021200040F2F3318843A16A226B0843511E626B6F
:102130004FF47E4303EB4222E36A6FF35F2192B2D6
:1021400040EA0310B0625018A16B4FF4FE0202EB9C
:10215000014101F4FE010844E16B4FF0FE4202EB45
:10216000016101F0FE41084430634FF6F871F06AF6
:1021700020F00100F062706B8843A16C40EAC1005E
:102180007063F06A20F00C00216C0843F062F06A82
:1021900020F00200616C0843F062F06A40F4803085
:1021A000F062F06A40F40030F062F06A40F480209F
:1021B000F062F06A40F00100F062306840F0807038
:1021C0003060FEF7D1FC04463068800107D4FEF78A
:1021D000CBFC001B02284FF00300F5D955E7002087
:1021E00053E720F001003067306F20F004003067C3
:1021F000FEF7BAFC054641F28837306F80073FF59D
:10220000DDAEFEF7B1FC401BB8424FF00300F4D93D
:102210003BE70000411E0020B0EB116F01D0012010
:102220007047044A5160F021034B197007219060F8
:102230001160704710E000E023ED00E090F83C20D2
:10224000012A4FF0020233D070B501231E4E80F8F0
:102250003C3080F83D20026842F480635468B34209
:10226000936802BF24F470044D682C43B2F1804F90
:1022700024F070050C6845EA040555600BD0134C3A
:10228000A2421CBF124CA24205D0124CA2421CBF5B
:10229000114CA2420ED123F080038968194391604A
:1022A0000121002280F83D1080F83C20BDE87040FC
:1022B00010467047094CA242EDD0094CA24218BF0B
:1022C000B242E8D0ECE700BF000401400004004047
:1022D00000080040000C00400018004000000140D1
:1022E0000040014060B310B5044690F83D0028B9A5
:1022F000002084F83C00204600F024F8022084F8F6
:102300003D00211D206800F005FE012084F84800F2
:1023100084F83E0084F83F0084F8400084F84100CF
:1023200084F8420084F8430084F8440084F84500AF
:1023300084F8460084F8470084F83D00002010BD72
:102340000120704700680849884218BF704781B073
:102350000648016841F020010160006800F020009B
:102360000090009801B0704700140040E844025803
:1023700090F88410012901D1022112E02421C0F833
:10238000881002681368116823F0005321F00101DE
:1023900011600021416613602022C0F8882080F877
:1023A00084100846704770477047B0B5044690F8EF
:1023B0008400012801D10220B0BD012084F88400EE
:1023C0002420C4F8880020680568026822F0010211
:1023D0000260826822F0606211438160204600F052
:1023E00015FE206805602020C4F88800002084F8CD
:1023F0008400B0BDB0B5044690F88400012801D136
:102400000220B0BD012084F884002420C4F8880094
:1024100020680568026822F001020260826822F0EA
:10242000604211438160204600F0F0FD20680560A5
:102430002020C4F88800002084F88400B0BD7047D4
:102440007047704770B504460068C26940F60F05D2
:10245000034601682A4253F808CF4AD0BC4D0CEA23
:10246000050EBC4D0D4015EB0E054CD0D50718BF21
:1024700011F4807507D001250562D4F8905045F01D
:102480000105C4F8905095070CF0010508D53DB141
:1024900002260662D4F8906046F00406C4F8906004
:1024A000560708D53DB104250562D4F8905045F093
:1024B0000205C4F8905015070CD501F020055EEA1E
:1024C000050607D008260662D4F8906046F0080694
:1024D000C4F89060160567D511F0806664D04FF49B
:1024E00000660662254655F8900F40F020002860EF
:1024F0005CE0930607D501F020030CF080555B19D2
:1025000001D0616FE9E001EA0203E56EDE063CD529
:10251000012D3AD1102101628168490600F18480C1
:10252000B4F85C10B4F85E20B4F85E30002B00F014
:10253000E480891A0A0401D1DFE0206850E8000F26
:10254000226820F4907042E80003002BF5D1834804
:10255000226852E8022F2368024043E80226002E38
:10256000F6D12020C4F88C000020E0666067206867
:1025700050E8000F226820F0100042E80003002B12
:10258000F5D189B20220206799E0D60240F19C8003
:102590001CF4800600F098804FF480110162204600
:1025A000BDE87040FFF74CBF04F190052868002893
:1025B00000F0A38090060CD501F020000CF08051B3
:1025C000401806D0616F21B120468847206800F18D
:1025D00008032868196800F0280001F0400140183D
:1025E00000F08580204600F001FE206881684906E1
:1025F00001D477E0206850E8020F216820F0400005
:1026000041E80202002AF5D1D4F88000002869D000
:1026100051490165FEF7E0F800286ED0D4F880003B
:10262000016DBDE870400847D4F8802011684B6800
:102630009DB2002D61D0B4F85C108D425DD2A4F83B
:102640005E30D269B2F5807F01D132E0206850E877
:10265000000F216820F4807041E80002002AF5D1C3
:10266000206850E8020F216820F0010041E80202D2
:10267000002AF5D1206850E8020F216820F04000C0
:1026800041E80202002AF5D12020C4F88C00002085
:10269000E066206850E8000F216820F0100041E853
:1026A0000002002AF5D1D4F88000FDF70DFFB4F840
:1026B0005C1002202067B4F85E00081A81B2204640
:1026C000BDE87040FFF76FBE160617D501F0800613
:1026D0000CF40005761911D0A16F71B12046BDE848
:1026E000704008472046BDE87040FFF7AABE20466C
:1026F000FFF7A7FE0020C4F8900070BD5B060AD467
:1027000010021BD511F0804018D02046BDE8704063
:10271000FFF795BE206850E8000F216820F04000C8
:1027200041E80002002AF5D12020C4F888000020EA
:10273000A0672046BDE8704000F05CB9D001DCD550
:10274000B1F1FF3FD9DC2046BDE87040FFF72CBE59
:102750000100001020010004DD310008FEFFFFEF42
:1027600010B5B0B10446D0F8880028B9002084F82C
:102770008400204600F026F82420C4F88800206851
:10278000016821F001010160204600F0D5FF012819
:1027900001D1012010BDA06A10B1204600F060FCFC
:1027A0002068416821F490414160816821F02A014C
:1027B0008160016841F0010101602046BDE81040E0
:1027C00000F0B2BCB0B5B8B0044633A81421FDF790
:1027D000C9FD02A8C021FDF7C5FD2068DB4988427C
:1027E00034D0C049884265D101200024029002A85B
:1027F00003942194FEF7E6FB08B1FDF760FE8E48D6
:10280000016941F010010161016901F010010191BC
:102810000199016841F00101016033A9006800F0ED
:102820000100019001984FF4C06033900220CDE97F
:1028300034040720369437901F48FEF7C9F8252046
:1028400000210022FEF74CFA252031E00024022569
:10285000039402A802952094FEF7B4FB08B1FDF79B
:102860002EFE7548816841F480218160816801F401
:10287000802101910199016841F00201016033A9B1
:10288000006800F00200019001984FF44060CDE92B
:1028900033050720CDE935443790074800F58060BF
:1028A000FEF796F8272000210022FEF719FA2720CC
:1028B000FEF708FA38B0B0BD00000258D0F88C30EE
:1028C000202B20D100294FF0010318BF002A1BD074
:1028D00010B500230D4CC3660368A3420DD05C689D
:1028E000240201D409E0036853E8003F046843F080
:1028F000806C44E800C3002BF5D101F0EBF8002315
:10290000BDE8104000E0022318467047000C005854
:1029100000688E49884218BF704710B5054C207872
:10292000FDF77CFD884801222146FFF7C7FFBDE87F
:1029300010407047100000242DE9FC410446D0F8F7
:10294000880020284DD10E4600294FF001004ED0BE
:102950001746002A4BD04FF000082120C4F8908081
:102960001D46C4F88800FEF7FFF8A4F85470A4F8D8
:1029700056700746A168B1F5805F1FD12069002815
:1029800014BF3046B046064618E08021009500226C
:1029900020463B4601F02CF928BB002E206802D0CF
:1029A00016F8011B04E038F8021B00266FF35F21C4
:1029B0008162B4F856000138A4F85600B4F8560005
:1029C0000028E2D140210095002220463B4601F03C
:1029D0000FF900284FF0200118BF0320C4F8881019
:1029E00005E0022003E02020C4F88800032002B0A4
:1029F000BDE8F0817047FEE783B00F48016841F001
:102A000080010160016801F0800102910299016872
:102A100041F002010160016801F002010191019998
:102A2000016841F001010160006800F001000090C0
:102A3000009803B0704700BFE04402581FB500245F
:102A40000D480E49EF220394CDE90144C0E900127C
:102A50004FF6FF71C0E902418461FFF743FC08B102
:102A6000FDF72DFD044801A901940394FFF7E6FB4F
:102A700008B1FDF724FD1FBD9400002400140040A0
:102A800010B5174C17484FF4E13120600020C4E91D
:102A900001100C21E060C4E9040104F118001421C4
:102AA000FDF760FC2046FFF75BFE08B1FDF707FD70
:102AB0000B480021FFF79EFC08B1FDF700FD084818
:102AC0000021FFF772FC08B1FDF7F9FC0448FFF79D
:102AD0004FFC18B1BDE81040FDF7F1BC10BD00BFC0
:102AE000E00000240010014010B5174C17484FF4C7
:102AF000E13120600020C4E901100C21E060C4E94C
:102B0000040104F118001421FDF72CFC2046FFF706
:102B100027FE08B1FDF7D3FC0B480021FFF76AFC44
:102B200008B1FDF7CCFC08480021FFF73EFC08B1D6
:102B3000FDF7C5FC0448FFF71BFC18B1BDE81040C9
:102B4000FDF7BDBC10BD00BF74010024004800406B
:102B5000FEE7FEE770470000F8B5E64FBA6A02F0FC
:102B60000302032A01D1012074E00546386820F0F1
:102B700080600C463860FDF7F7FF064638680001B4
:102B800005D5FDF7F1FF801B0228F7D95FE0B86A91
:102B90004FF47E43696820F47C30AA68013903EB66
:102BA00042222B686FF35F2192B240EA0330114456
:102BB000EA684FF4FE03B86203EB024202F4FE023D
:102BC000881829694FF0FE4202EB016101F0FE41D5
:102BD0000844B863002CF86A20F0C000696940EA34
:102BE0000100F862F86A20F02000A96940EA0100BB
:102BF000F8624FF6F871F86A20F01000F862F86B8E
:102C000020EA0100E96940EAC100F863F86A40F08F
:102C10001000F86205D0012CF86A06D140F480104B
:102C200005E0F86A40F4002001E040F40010F8628A
:102C3000386840F080603860FDF796FF04463868D9
:102C4000000106D4FDF790FF001B0328F7D30320F3
:102C500000E0002001B0F0BDF8B5A64FBA6A02F05E
:102C60000302032A01D1012074E00546386820F0F0
:102C700080500C463860FDF777FF064638688000C4
:102C800005D5FDF771FF801B0228F7D95FE0B86A10
:102C90004FF47E43696820F07C70AA68013903EB29
:102CA00042222B686FF35F2192B240EA0350114435
:102CB000EA684FF4FE03B86203EB024202F4FE023C
:102CC000881829694FF0FE4202EB016101F0FE41D4
:102CD00008443864002CF86A20F44060696940EACE
:102CE0000100F862F86A20F40070A96940EA010066
:102CF000F8624FF6F871F86A20F48070F862786C28
:102D000020EA0100E96940EAC1007864F86A40F409
:102D10008070F86205D0012CF86A06D140F40000FA
:102D200005E0F86A40F4800001E040F08070F8624D
:102D3000386840F080503860FDF716FF0446386868
:102D4000800006D4FDF710FF001B0328F7D30320F3
:102D500000E0002001B0F0BD7047FDF709BF0000A2
:102D6000B0B59CB009A83B4C3B4D4C21FDF7FAFA9D
:102D700001A82021FDF7F6FA0220FDF7E1FF00206F
:102D80000090286820F001002860286800F0010009
:102D90000090206840F440402060206800F44040EB
:102DA0000090009820688004FCD52C48215841F000
:102DB00002012150205800F00200009000980020ED
:102DC0000090206840F440402060206800F44040BB
:102DD0000090286840F001002860286800F0010099
:102DE0000090009820688004FCD5012009904FF4E1
:102DF00080300A9002200521CDE912001491C021F3
:102E0000CDE91510CDE9170008240025199409A86B
:102E1000CDE91A55FEF76CFF18B1EFF3108072B6CA
:102E2000FEE73F2001900320CDE9020540200494F5
:102E30004FF48061CDE90500CDE9071001A8042118
:102E4000FEF78CFD18B1EFF3108072B6FEE71CB0F0
:102E5000B0BD00BF184802582C040058DCFCFFFF2E
:102E600023480168214A41F470010160106800F0B4
:102E70000F00062804D81068072161F303001060D2
:102E800010B51C4801681C4C41F001010160002193
:102E9000016103682340036013681B0704D51368AE
:102EA000072464F303031360144A8161C161016262
:102EB0008262134AC262134A026341638263C1633E
:102EC00002644164026822F48022026001660E48B6
:102ED0000068B1EB507FBDE8104002D101200B49E2
:102EE000086043F2D2000A4908607047002000528F
:102EF00088ED00E0004402587FEDF6EA000202028D
:102F00000000FF01800201010010005C08810051F7
:102F100000400052F0B5B0F1804F0368334A05D04D
:102F2000334CA0421CBF334CA04234D123F0700379
:102F30004C68234302F58044041BB4FA84F44FEA3E
:102F4000541C02F58844041BB4FA84F44FEA541E5E
:102F500002F59044041BB4FA84F4640923F440732A
:102F6000CD682B4323F080034E690D6833438F688F
:102F7000002C0360C762856208BFBEF1000F05D157
:102F800090421CBF02F5806290422BD10969016317
:102F900001214161F0BD184CA042C7D0174CA0429E
:102FA00018BF9042C2D002F58044154D041BB4FAFC
:102FB00084F44FEA541C02F58844041BB4FA84F4E8
:102FC0004FEA541E02F59044041BB4FA84F4A8425C
:102FD0004FEA5414C2D00B4DA842BFD00A4DA842AC
:102FE000BCD0BFE7BCF1000FD2D0CFE7000001405A
:102FF0000004004000080040000C004000040140B4
:10300000004001400048014000440140416ED9B1F8
:1030100080B501688A68C2F342628968490FDFF8A7
:1030200038C01CF80130DFF834E01EF801101B0135
:10303000B3FBF1F11CF802301EF802201B01B3FBB8
:10304000F2F2BDE8804001E001210122A0F86A10FF
:10305000A0F86820704700BF964000089E40000816
:10306000816ACA0708D00268D0F82CC0536823F4DC
:10307000003343EA0C0353608A0708D50268D0F88E
:1030800030C0536823F4803343EA0C0353604A078B
:1030900008D50268D0F834C0536823F4802343EA8B
:1030A0000C0353600A0708D50268D0F838C053688B
:1030B00023F4004343EA0C035360CA0608D50268B0
:1030C000D0F83CC0936823F4805343EA0C03936028
:1030D0008A0608D50268D0F840C0936823F40053EC
:1030E00043EA0C0393604A0612D50268D0F844C044
:1030F0005368BCF5801F23F4801343EA0C0353602C
:1031000006D1536823F4C00C836C43EA0C0353606C
:10311000090658BF70470168C06C4A6822F4002253
:103120001043486070470000BCB500210446C0F859
:103130009010FDF719FD216805460A68120718D599
:1031400025484FF400110090002220462B4600F045
:103150004FFD68B1206850E8000F216820F0800022
:1031600041E80002002AF5D12020C4F8880024E0BC
:1031700021680868400722D517484FF48001009065
:10318000002220462B4600F033FDC0B1206850E8F5
:10319000000F216820F4907041E80002002AF5D168
:1031A000206850E8020F216820F0010041E8020287
:1031B000002AF5D12020C4F88C00032007E020204D
:1031C000C4F88800C4F88C000020E0662067002165
:1031D00084F8841002B0B0BDFFFFFF01806B0021B6
:1031E000A0F85E10A0F85610FFF72BB9016851E85F
:1031F000001F026821F4907142E80013002BF5D102
:1032000010B5AC4C026852E8022F0368224043E834
:1032100002210029F6D1C16E0129BDE8104009D173
:10322000016851E8001F026821F0100142E8001314
:10323000002BF5D12021C0F88C100021C166416718
:10324000704700BFB0F860200168D0F88C30222BA6
:1032500057D1D1F824C0836D02EA0C0223F8022B67
:103260008365B0F85E20013AA0F85E20B0F85E20D9
:10327000002A18BF704700E0016851E8001F02688B
:1032800021F4907142E80013002BF5D1016851E858
:10329000021F026821F0010142E80213002BF5D160
:1032A0002021B74AC0F88C100021416701670168EE
:1032B00091420DD04A68120201D409E0016851E838
:1032C000001F026821F0806142E80013002BF5D155
:1032D000C16E01291AD10021C166016851E8001FA1
:1032E000026821F0100142E80013002BF5D10168BB
:1032F000CA69D20601D510220A62B0F85C10FFF745
:1033000052B8886940F0080088617047FFF700BB39
:103310002DE9F84F0446B0F860800068C66901687E
:103320008268D4F88C30222B09D1B4F868B001F44B
:10333000807902F00107FE4D4FF0000A91E08169AB
:1033400041F008018161BDE8F88F2068A16D426AF3
:1033500002EA080221F8022BA165B4F85E100139D7
:10336000A4F85E10C66971072DD0B9F1000F18BF1F
:1033700016F0010107D001210162D4F8901041F04C
:103380000101C4F8901057B116F0020107D00221D4
:103390000162D4F8901041F00401C4F8901057B1C4
:1033A00016F0040107D004210162D4F8900040F027
:1033B0000200C4F89000D4F8900020B12046FFF736
:1033C00040F8C4F890A0B4F85E00002849D1206805
:1033D00050E8000F216820F4807041E80002002AC4
:1033E000F5D1206850E8020F2168284041E8020228
:1033F000002AF6D12020CF49C4F88C00C4F874A06C
:10340000C4F870A0206888420DD04168090201D438
:1034100009E0206850E8000F216820F0806041E852
:103420000002002AF5D1E06E012817D1C4F86CA083
:10343000206850E8000F216820F0100041E80002E9
:10344000002AF5D12068C169C90601D510210162A1
:10345000B4F85C102046FEF7A6FF02E02046FFF716
:1034600057FABBF1000F18BF16F020007FF46DAFC4
:10347000B4F85E00C8B1B4F86810884215D220686C
:1034800050E8020F216820F0805041E80202002A33
:10349000F5D107486067206850E8000F216840F0C8
:1034A000200041E80002002AF5D1BDE8F88F00BFF6
:1034B00045320008FEFFFFEFB0F860200168D0F849
:1034C0008C30222B55D1496A1140826D1170816D6B
:1034D00001318165B0F85E100139A0F85E10B0F8D6
:1034E0005E10002918BF7047016851E8001F02688C
:1034F00021F4907142E80013002BF5D1016851E8E6
:10350000021F026821F0010142E80213002BF5D1ED
:103510002021884AC0F88C100021416701670168AA
:1035200091420DD04A68120201D409E0016851E8C5
:10353000001F026821F0806142E80013002BF5D1E2
:10354000C16E01291AD10021C166016851E8001F2E
:10355000026821F0100142E80013002BF5D1016848
:10356000CA69D20601D510220A62B0F85C10FEF7D3
:103570001ABF886940F0080088617047FFF7C8B932
:10358000000C00582DE9F84F0446B0F86050006870
:10359000D0F81CA001688268D4F88C30222B09D1A5
:1035A000B4F868B001F4807902F00107604E4FF082
:1035B000000894E0816941F008018161BDE8F88F5D
:1035C0002068A16D406A28400870A16D0131206813
:1035D000A165B4F85E100139A4F85E10D0F81CA003
:1035E0005FEA4A712DD0B9F1000F18BF1AF001013E
:1035F00007D001210162D4F8901041F00101C4F814
:10360000901057B11AF0020107D002210162D4F8DC
:10361000901041F00401C4F8901057B11AF0040161
:1036200007D004210162D4F8900040F00200C4F8F1
:103630009000D4F8900020B12046FEF702FFC4F8B5
:103640009080B4F85E00002849D1206850E8000F4F
:10365000216820F4807041E80002002AF5D120683A
:1036600050E8020F2168304041E80202002AF6D1FA
:103670002020D649C4F88C00C4F87480C4F8708047
:10368000206888420DD04168090201D409E0206811
:1036900050E8000F216820F0806041E80002002A15
:1036A000F5D1E06E012817D1C4F86C80206850E88D
:1036B000000F216820F0100041E80002002AF5D137
:1036C0002068C169C90601D510210162B4F85C10F7
:1036D0002046FEF768FE02E02046FFF719F9BBF12D
:1036E000000F18BF1AF020007FF46AAFB4F85E0034
:1036F000C8B1B4F86810884215D2206850E8020FAB
:10370000216820F0805041E80202002AF5D10748E4
:103710006067206850E8000F216840F0200041E811
:103720000002002AF5D1BDE8F88F00BFB9340008C7
:10373000FEFFFFEF000C0058FEB50446006804F1E0
:1037400008038D4D8B4E0ECB194363690B43E16922
:1037500007680B432F409D4D3B430360A8424368DD
:1037600023F4405342EA03024260A2691CBF236A69
:103770001A4383683340964E1A438260B042C26A4D
:10378000944E22F00F03626A43EA0203C36228D018
:10379000914B984232D0914B98423CD0904B9842FA
:1037A00046D0904B984200F050808F4B984200F0EA
:1037B0005880A84200F061808C4B984200F06980EC
:1037C0008B4B984240F07B80736DB446C3F3C206C6
:1037D000052E00F275800123DFE806F07367696B40
:1037E0006D6F736DB44603F00706052E00F2688016
:1037F0000023DFE806F0665A5C5E6062736DB446D3
:1038000003F00706052E00F25B800023DFE806F0D8
:10381000594D4F515355736DB44603F00706052EAD
:1038200000F24E800023DFE806F04C404244464858
:10383000736DB44603F00706052E00F241800023A5
:10384000DFE806F03F333537393B736DB44603F09C
:103850000706052E34D80023DFE806F03327292B8E
:103860002D2F736DB44603F00706052E28D80023CC
:10387000DFE806F0271B1D1F2123B36DB44603F0BC
:103880000706052E1CD80223DFE806F01B0F1113D4
:103890001517736DB446C3F3C206052E10D8012365
:1038A000DFE806F00F030507090B042309E00823EE
:1038B00007E0102305E0202303E0402301E0B446A5
:1038C0008023A8427F4810D0B1F5004F1DD1082BAE
:1038D0004FF0010127D8DFE803F0058DD5D590D54D
:1038E000D5D59400FEF766F98FE0402B32D0042B3B
:1038F00033D0082B35D0102B40D0202B48D0022BB2
:1039000040F0BF80FDF740FA2FE0082B4FF0010197
:1039100014D8DFE803F00594B7B797B7B7B79B00A3
:10392000FEF748F996E0102B00F0B580202B6ED002
:10393000402B40F0A7804FF4004068E0102B00F0CF
:10394000B580202B00F08880402B40F09B804FF406
:10395000004081E04FF400401AE06846FDF726FA87
:1039600002E06846FDF7A8FA0198002800F0878079
:10397000626A0DE0FFF4FF11F369FFCFDCF800008D
:1039800065468006504803D52968C1F3C101C84087
:103990004E4931F812106268B0FBF1F002EB4201BF
:1039A00088424FF001016DD3130398426AD8010E8B
:1039B000000210EB520041F100010023FCF788FCEB
:1039C000A0F54071424A914257D95AE0000C005884
:1039D000004400400044025800480040004C0040B1
:1039E0000050004000780040007C0040001401407E
:1039F00000100140FEF7ECF807E06846FDF7D6F945
:103A000002E06846FDF758FA0198C0B3626A2F4990
:103A100031F81210B0FBF1F061684A0802EB400087
:103A2000B0FBF1F04FF6EF72A0F11001914228D8EF
:103A30004FF6F071C0F34202084010441DE0FEF75B
:103A4000C7F807E06846FDF7B1F902E06846FDF700
:103A500033FA019898B1626A1C4931F812104FF696
:103A6000EF72B0FBF1F0616800EB5100B0FBF1F0D8
:103A7000A0F11001914204D880B22168C8600021F1
:103A800000E001214FF00110A0660020C4E91D00F4
:103A9000084603B0F0BDDCF80000654680060A4821
:103AA000B5D52968C1F3C101C840B0E7DCF8000012
:103AB000654680060448CFD52968C1F3C101C840D6
:103AC000CAE700BF00093D000090D0037E40000817
:103AD000FFFC0F0081650023A0F85C20A0F85E20A9
:103AE0008168002943670AD0B1F1805F0BD0B1F53E
:103AF000805F0CD1016921B940F2FF110AE0016930
:103B000039B9FF2106E0016919B13F2102E0002126
:103B100000E07F21A0F860100021C0F89010222161
:103B2000C0F88C10016851E8021F036841F0010CD5
:103B300043E802C10029F5D1416EB1F1005F03D124
:103B4000B0F86810914217D98168B1F5805F0169BA
:103B500003D1D1B12449416703E0234A00294267D8
:103B600015D0016851E8001F026841F4907142E8E5
:103B70000013002BF5D130E08168B1F5805F016959
:103B800010D1F1B11649416710E018494167016849
:103B900051E8001F026841F0200142E80013002BA9
:103BA000F5D11AE00E4A002942670CD0016851E8AD
:103BB000001F026841F4807142E80013002BF5D128
:103BC00001E008494167016851E8021F026841F0BD
:103BD000805142E80213002BF5D10020704700BF4E
:103BE0008535000811330008B93400084532000853
:103BF0002DE9F843DDF82090984616460F46044616
:103C0000006809F10105C1693940C91BB1FA81F1A8
:103C10004909B14225D1002DF5D0FCF7A5FFB9F136
:103C2000000F01464FF003001CD0A1EB08014945ED
:103C300018D8206801684907E5D5C169090714D477
:103C4000C1690905DFD54FF4006101622046FFF725
:103C5000CDFA2020C4F89000002084F884000320CE
:103C600000E0002001B0BDE8F08308250562204691
:103C7000FFF7BCFA0020C4F8905084F884000120BB
:103C8000F0E700008F48FEF7DDBB00BF7A48FEF783
:103C9000D9BB00BFFEE7000000F00F02714B1A44D1
:103CA000044BB0F1FF3F4FEA0111C8BFC2181170B9
:103CB000704700BF00E400E08AB06A4801688903E9
:103CC00012D4BFF34F8F0021BFF36F8FC0F83C12A7
:103CD000BFF34F8FBFF36F8F016841F40031016074
:103CE000BFF34F8FBFF36F8F0168C90326D4002144
:103CF000016743F6E07CBFF34F8FC26EC2F34E31D3
:103D0000C2F3C902D44395070CEA41162B4622465A
:103D100043EA06070132C0F84C7203F14043F7D181
:103D20000029A1F10101EFD1BFF34F8F016841F4E8
:103D300080310160BFF34F8FBFF36F8FFCF722FF1D
:103D400001260696FCF794FF4FF01050484D07905F
:103D5000454806AC0890454809902046A8474FF0D2
:103D600040508DF81960079010208DF82000002039
:103D7000ADF826002046A84702203E4E8DF81900D7
:103D800020460796A84703208DF8190006F5003055
:103D900007900E208DF820002046A84704208DF8BB
:103DA00019004FF0605007900F208DF8200020463A
:103DB000A8470420FCF766FFFEF7D2FFFEF71CFEC3
:103DC000FEF73CFEFEF75CFEFEF78EFE4FF47A70C7
:103DD000FCF7EEFD284C0122284E20463146FEF726
:103DE0006DFD27A107224FF0FF332046FEF7A4FD0B
:103DF000012220463146FEF761FDDFF88CB006F166
:103E00000108DFF88890DFF8BCA09BF800000128CB
:103E1000FBD100208BF80000FCF736FB99F802007C
:103E200099F8031099F8046099F8057099F8002042
:103E300099F8013099F8064099F807508DE8C300C9
:103E4000404613A1CDE9044500F03EF84046FCF79A
:103E500094FA82B24FF0FF3350464146FEF76CFDB4
:103E6000D3E700BF14ED00E01200010300000101E0
:103E7000210C00080000023074010024100000240E
:103E800024302C302C312300760000247B000024C9
:103E900078313A25642C78323A25642C78333A25E7
:103EA000642C78343A25642C78353A25642C78369D
:103EB0003A25642C78373A25642C78383A25640DF5
:103EC0000A000000E00000240FB4084B10B504A95C
:103ED00002AA039800F01CF8044602A9002000F092
:103EE000C1F8204610BC5DF814FB000065400008D6
:103EF00002E008C8121F08C1002AFAD170477047B3
:103F0000002001E001C1121F002AFBD17047000010
:103F10002DE9FF4F89B09B460446002506E0252881
:103F20000BD05A460B999047641C6D1C20780028D2
:103F3000F5D10DB02846BDE8F08F0027B846012224
:103F4000474900E0074314F8013F203B02FA03F021
:103F50000842F7D120782E2819D114F8010F47F024
:103F600004072A280ED06FF02F022078A0F130012C
:103F700009290CD808EB880102EB410100EB01088C
:103F8000641CF2E70A98641C50F8048B0A902078AD
:103F90000028CED0642808D0692806D075281ED005
:103FA0005A460B9990476D1C58E00A994FF00A0940
:103FB00001C90A91002802DA40422D2102E03905A8
:103FC00004D52B218DF82010012103E0F90704D03E
:103FD0002021F7E78A4608AE0DE00021FAE70A99AA
:103FE0004FF00A0901C90A91F7E74946FCF7CCF9F5
:103FF000303106F8011D0028F7D1ADEB060000F1C5
:104000002009780701D44FF00108C84502DDA8EB6C
:10401000090000E000208046002706E008A85A4674
:10402000C05D0B9990476D1C7F1C5745F6DB04E083
:1040300030205A460B9990476D1CB8F10001A8F149
:104040000108F5DC05E016F8010B5A460B9990477C
:104050006D1CB9F10001A9F10109F4DC641C65E7EC
:10406000092801000A68531C0B601070704700009B
:10407000000001020304010203040607080901000D
:1040800002000400060008000A000C0010002000D6
:104090004000800000010101010307010000080445
:1040A0000204080101010000C840000800000024CB
:1040B00010000000F03E0008D84000081000002466
:1040C000C8760000003F000801000000100000005A
:0840D0000090D0030090D00322
:040000050800029954
:00000001FF
