:020000040800F2
:1000000030790024390300086B3D0008253B0008C7
:10001000693D00082F050008814900080000000024
:10002000000000000000000000000000713F000818
:10003000D5080008000000006D3D0008733F00086F
:100040005303000853030008530300085303000838
:100050005303000853030008530300085303000828
:100060005303000853030008530300083105000838
:100070003D0500085303000853030008530300081C
:1000800053030008530300085303000853030008F8
:1000900053030008530300085303000853030008E8
:1000A00053030008530300085303000853030008D8
:1000B00053030008530300085303000853030008C8
:1000C00053030008530300085303000853030008B8
:1000D000530300085303000853030008794900083C
:1000E00053030008530300080000000053030008F6
:1000F0005303000853030008530300085303000888
:100100005303000853030008530300085303000877
:100110005303000853030008530300085303000867
:100120005303000853030008530300085303000857
:100130005303000853030008530300085303000847
:1001400000000000000000000000000000000000AF
:100150005303000853030008530300085303000827
:100160005303000853030008530300085303000817
:100170005303000853030008530300080000000065
:1001800053030008530300085303000853030008F7
:1001900053030008530300085303000853030008E7
:1001A00053030008530300085303000853030008D7
:1001B00053030008530300085303000853030008C7
:1001C00053030008530300085303000853030008B7
:1001D00053030008530300085303000853030008A7
:1001E0005303000853030008530300085303000897
:1001F0005303000853030008530300085303000887
:100200005303000853030008530300085303000876
:100210005303000853030008530300085303000866
:1002200053030008530300085303000800000000B4
:1002300053030008530300080000000053030008A4
:100240005303000853030008530300085303000836
:100250005303000853030008530300085303000826
:100260005303000853030008530300085303000816
:100270005303000853030008530300080000000064
:100280005303000853030008530300080000000054
:10029000000000005303000800F002F800F03CF8F2
:1002A0000AA090E8000C82448344AAF10107DA45D1
:1002B00001D100F031F8AFF2090EBAE80F0013F0E7
:1002C000010F18BFFB1A43F001031847CC48000088
:1002D000EC480000103A24BF78C878C1FAD8520719
:1002E00024BF30C830C144BF04680C6070470000B0
:1002F0000023002400250026103A28BF78C1FBD82F
:10030000520728BF30C148BF0B6070471FB504F0CB
:1003100015FC1FBD10B510BD00F0CFF81146FFF75A
:10032000F5FF04F03FFB00F0EDF803B4FFF7F2FF38
:1003300003BC00F0F5F80000094880470948004771
:10034000FEE7FEE7FEE7FEE7FEE7FEE7FEE7FEE785
:10035000FEE7FEE704480549054A064B70470000E2
:100360007940000899020008300300243079002405
:10037000300500243005002453EA020C00F06980A7
:100380002DE9F04B4FF00006002B1FBFB3FA83F5A9
:1003900003FA05F424FA05F65E4012BF1643B2FADA
:1003A00082F502FA05F4C5F120051EBF22FA05FC0C
:1003B00044EA0C04203556EA044C4FEA144418BFB2
:1003C000641C4FF000084FF00009904271EB030CE1
:1003D00039D3002919BFB1FA81F701FA07F6B0FA4B
:1003E00080F700FA07F6C7F120071EBF20FA07FCC6
:1003F00046EA0C062037B6FBF4FCA7EB0507103FD6
:1004000007F01F0BCBF120062CFA06F60CFA0BFBBB
:1004100044BFB3460026202FA4BF5E464FF0000B1A
:100420005BEA060C08BF4FF0010B19EB0B0948EB18
:100430000608ABFB027C06FB02CC0BFB03CCC01B0B
:1004400071EB0C01C1E70B46024641464846BDE848
:10045000F08B13B54FF000004FF00001AFF30080B8
:10046000BDE81C4070474FF0000200B513469446AB
:100470009646203922BFA0E80C50A0E80C50B1F1FC
:100480002001BFF4F7AF090728BFA0E80C5048BF10
:100490000CC05DF804EB890028BF40F8042B08BFAE
:1004A000704748BF20F8022B11F0804F18BF00F8AA
:1004B000012B7047704770477047754600F02CF865
:1004C000AE4605006946534620F00700854618B041
:1004D00020B5FFF73FFFBDE820404FF000064FF08A
:1004E00000074FF000084FF0000BAC46ACE8C00925
:1004F000ACE8C009ACE8C009ACE8C00921F00701CC
:100500008D46704710B50446AFF300802046BDE825
:100510001040FFF70ABF0000004870471000002499
:1005200001491820ABBEFEE7260002007047FEE737
:10053000014800F059BC00BF70000024014800F0E1
:1005400053BC00BFE80000240168CA4A914223D08E
:10055000C94A91421CBFC94A91421DD0C84A914222
:100560001CBFC84A914217D0C74A91421CBFC74A14
:10057000914211D0C64A91421CBFC64A91420BD04B
:10058000C54A91421CBFC54A914205D0C44A914216
:100590001CBFC44A91421AD180B56FF00F02DFF838
:1005A00048C052FA81F21823B2FBF3F340F2FF3E47
:1005B00021EA0E015F2A03F007031CF80330C3652C
:1005C00088BF0431BDE88040816508467047B64A5F
:1005D0009142E1D0B64A9142DED0B44A9142DBD09A
:1005E00021F0FF01F0E700BF7E4B00080268B1492F
:1005F0008A421F491CBFB04B9A4205D0AF4B9A426A
:100600001CBFAF4B9A4213D1D3B2A3F108021423FB
:10061000B2FBF3F301F1800201EB830103F01F034E
:1006200001664FF0010C0CFA03F1C0E91921704783
:10063000A44B9A42E8D0A64B9A42E5D0A24B9A42EC
:10064000E2D0A1F55B7CD3B26245DED0A3F110010C
:100650001823B1FBF3F1084B03F1AA0C9A420B46A5
:1006600088BF0833624528BF0B460249D2E700BF66
:1006700000580258000802400F0402400179013975
:10068000072988BF704702688A4B9A421CBF8A4B71
:100690009A4205D0894B9A421CBF894B9A420BD192
:1006A0008A000E4B4FF0010C1A444033C2660CFA1C
:1006B00001F1C0E91C317047824B9A42F0D0844B63
:1006C0009A42EDD0804B9A42EAD0804B9A424FEA50
:1006D0008102E6D0004BE5E70009024000590258CC
:1006E000F0B5D0F800C0634CA445D0F858E03BD03A
:1006F000614DAC451CBF614DAC4535D0604DAC453E
:100700001CBF604DAC452FD05F4DAC451CBF5F4D4D
:10071000AC4529D05E4DAC451CBF5E4DAC4523D0E9
:100720005D4DAC451CBF5D4DAC451DD05C4DAC4531
:100730001CBF5C4DAC4517D05B4DAC451CBF5B4D41
:10074000AC4511D05A4DAC451CBF5A4DAC450BD0F1
:10075000594DAC451CBF594DAC4505D0584DAC4525
:100760001CBF584DAC456DD1C66ED0E91957002E4F
:100770006F6002D0D0E91C566E60A44529D03E4C73
:10078000A4451CBF3D4CA44523D03D4CA4451CBFF3
:100790003C4CA4451DD03C4CA4451CBF3B4CA4453F
:1007A00017D03B4CA4451CBF3A4CA44511D03A4C41
:1007B000A4451CBF394CA4450BD0394CA4451CBFE3
:1007C000384CA44505D0384CA4451CBF374CA44533
:1007D0001CD1C46D3F2504F01F04806805FA04F4A1
:1007E000CEF80840DCF8007027F48027CCF80070C1
:1007F0004028CCF8043004D1CCF80820CCF80C10F8
:10080000F0BDCCF80810CCF80C20F0BDFE4CA4458F
:100810001CBFF74CA4450BD0F64CA4451CBFF64CAE
:10082000A44505D0F54CA4451CBFF54CA44516D1F4
:10083000C46D012504F01F04806805FA04F4CEF8A5
:100840000440D5E7EF4DAC453FF48EAFEE4DAC45DF
:100850003FF48AAFED4DAC453FF486AFD5E7E94CA8
:10086000A445E5D0E94CA445E2D0E04CA445B0D085
:10087000CBE700BF100002402800024040000240C9
:10088000580002407000024088000240A000024070
:10089000B800024010040240280402404004024014
:1008A000580402407004024088040240A004024040
:1008B000B8040240085402581C54025830540258DC
:1008C00044540258585402586C54025894540258D4
:1008D000805402587047EFF3108072B6FEE70000B4
:1008E000F8B5044601F00EF9002C00F0AA80054688
:1008F00094F83500022840F0A6802768AC4EB74235
:1009000038463CD0AB488742384638D0AA48874260
:10091000384634D0A9488742384630D0A848874264
:1009200038462CD0A7488742384628D0A648874268
:10093000384624D0A5488742384620D0A44887426C
:1009400038461CD0A3488742384618D0A248874270
:10095000384614D0A1488742384610D0A048874274
:1009600038460CD09F488742384608D09E48874278
:10097000384604D09D48874240F0E9809B48016892
:1009800021F01E0207F1140102606FF080000A6876
:10099000B74200EA020008603CD0FC4887421CBF16
:1009A000FB48874236D0FB4887421CBFFA48874243
:1009B00030D0FA4887421CBFF94887422AD0F9480C
:1009C00087421CBFF848874224D0F84887421CBFA2
:1009D000F74887421ED0F74887421CBFF648874237
:1009E00018D0F64887421CBFF648874212D0F44818
:1009F00087421CBFF44887420CD0F44887421CBF92
:100A0000F348874206D0F34887421CBFF24887422A
:100A100040F0B680206E016821F480710160386872
:100A200020F0010038603868C00710D001F06AF883
:100A3000401B0628F7D320206065032084F835008A
:100A400003E0012081E08020606501207AE02068D9
:100A5000B0421CBFCD4988421DD0CD4988421CBF41
:100A6000CC49884217D0CC4988421CBFCB49884228
:100A700011D0CB4988421CBFCA4988420BD0CA4911
:100A800088421CBFC949884205D0C94988421CBF59
:100A9000C84988425FD1A16DE26D3F2302F01F0279
:100AA00003FA02F28A60B0423BD0B84988421CBFC8
:100AB000B749884235D0B74988421CBFB6498842F9
:100AC0002FD0B64988421CBFB549884229D0B549C4
:100AD00088421CBFB449884223D0B44988421CBF15
:100AE000B34988421DD0B34988421CBFB2498842ED
:100AF00017D0B24988421CBFB249884211D0B049D0
:100B000088421CBFB04988420BD0B04988421CBF04
:100B1000AF49884205D0AF4988421CBFAE498842E0
:100B20003BD1E06ED4E9191200284A6006D0016872
:100B300021F480710160D4E91C014160012084F836
:100B400035000020002184F8341001B0F0BD6FF0B2
:100B50000E0039461BE7984988429CD09949884243
:100B600099D09649884296D095498842A16D93D0F4
:100B7000E26D012302F01F0203FA02F24A6092E7DB
:100B8000964887423FF446AF954887423FF442AFCC
:100B9000944887423FF43EAF41E790498842C0D035
:100BA0008F498842BDD08F498842BAD0C6E700BF7E
:100BB000100002402800024040000240580002405D
:100BC0007000024088000240A0000240B8000240CD
:100BD000100402402804024040040240580402402D
:100BE0007004024088040240A0040240B80402409D
:100BF000085402581C5402583054025844540258A5
:100C0000585402586C540258945402588054025854
:100C100010B5002844D090F8351002293ED1016863
:100C2000594A914223D0594B99421CBF584B994283
:100C30001DD0584B99421CBF574B994217D0574B68
:100C400099421CBF564B994211D0564B99421CBF3A
:100C5000554B99420BD0554B99421CBF544B99426E
:100C600005D0544B99421CBF534B99423CD10423AD
:100C7000914280F835300BD0444881421CBF444833
:100C8000814205D0434881421CBF434881420AD17A
:100C9000086820F001000860002102E08021416521
:100CA0000121084610BD3D488142F1D03C488142B7
:100CB000EED03C488142EBD03B488142E8D03B48F3
:100CC00081421CBF3A488142E2D03A4881421CBF6F
:100CD00039488142DCD039488142D9D038488142F4
:100CE000D6D038488142D3E7344B9942BFD0344BF9
:100CF0009942BCD0334B9942B9D00A6822F00E0217
:100D00000A60314A91420A6822F001020A600BD05F
:100D10002E4A91421CBF2E4A914205D02D4A914243
:100D20001CBF2D4A914225D1D0E916C2D0E9183E08
:100D3000196802F01F0221F480710124196004FA7D
:100D400002F1CCF80410816ECEF80410C16E31B1FE
:100D50000A6822F480720A60D0E91C124A600121FC
:100D600080F835100021026D002A80F8341098D0E8
:100D7000904791E7194A9142D6D0194A9142D3D06F
:100D8000184A9142D0D0EAE7100002402800024001
:100D900040000240580002407000024088000240BB
:100DA000A0000240B80002401004024028040240A3
:100DB000400402405804024070040240880402408B
:100DC000B8040240A0040240085402581C540258BF
:100DD0003054025844540258585402586C54025823
:100DE00094540258805402582DE9FC410021C64F0A
:100DF00001910446DFF88C1F0068A56DB842D1F858
:100E000000802E6829682AD0C04A90421CBFC04A80
:100E1000904224D0BF4A90421CBFBF4A90421ED08D
:100E2000BE4A90421CBFBE4A904218D0BD4A904272
:100E30001CBFBD4A904212D0BC4A90421CBFBC4A63
:100E400090420CD0BB4A90421CBFBB4A904206D095
:100E5000BA4A90421CBFBA4A904240F0A181E16D6B
:100E6000082201F01F018A40324236D0BC46B84207
:100E70004FF0040324D0A54FB8421CBFA44FB84282
:100E80001ED0A44FB8421CBFA34FB84218D0A34FE6
:100E9000B8421CBFA24FB84212D0A24FB8421CBFEA
:100EA000A14FB8420CD0A14FB8421CBFA04FB842CE
:100EB00006D0A04FB8421CBF9F4FB84240F0988167
:100EC00007681F42674608D0036823F004030360E5
:100ED000AA60626D42F00102626501228A403242DC
:100EE0002ED0B84224D0894B98421CBF884B9842E0
:100EF0001ED0884B98421CBF874B984218D0874B16
:100F000098421CBF864B984212D0864B98421CBF19
:100F1000854B98420CD0854B98421CBF844B98421D
:100F200006D0844B98421CBF834B984240F06D81A1
:100F300043691B0604D5AA60626D42F00202626535
:100F400004228A4032422ED0B84224D06F4B9842BD
:100F50001CBF6F4B98421ED06E4B98421CBF6E4B0D
:100F6000984218D06D4B98421CBF6D4B984212D0DE
:100F70006C4B98421CBF6C4B98420CD06B4B984208
:100F80001CBF6B4B984206D06A4B98421CBF6A4B01
:100F9000984240F0488103689B0704D5AA60626DBF
:100FA00042F004026265102202FA01F131423FD0A0
:100FB000B8424FF0080224D0D24B98421CBFD24B0B
:100FC00098421ED0D14B98421CBFD14B984218D0AA
:100FD000D04B98421CBFD04B984212D0CF4B984276
:100FE0001CBFCF4B98420CD0CE4B98421CBFCE4B6F
:100FF000984206D0CD4B98421CBFCD4B984240F052
:1010000020810368134213D0A96001684903016875
:1010100006D4C90506D4016821F00801016001E089
:10102000080301D4216C00E0A16C09B12046884777
:10103000E06D00F01F01202000FA01F2324200F0C2
:10104000858020681023B84224D0AE4EB0421CBF29
:10105000AD4EB0421ED0AD4EB0421CBFAC4EB04201
:1010600018D0AC4EB0421CBFAB4EB04212D0AB4E0B
:10107000B0421CBFAA4EB0420CD0AA4EB0421CBF18
:10108000A94EB04206D0A94EB0421CBFA84EB042F5
:1010900040F0E48007681F4258D0AA6094F83520D9
:1010A000042A02681BD122F016020260426922F073
:1010B00080024261226C0AB9A26C1AB1026822F065
:1010C000080202603F208840A860012084F83500B3
:1010D0000020216D002984F834005DD15EE05103C9
:1010E00001680CD4C9052DD4016821F010010160FC
:1010F000012084F83500002084F8340022E0080341
:1011000020D4616C1FE000BF1000024028000240A4
:101110004000024058000240700002408800024037
:10112000A0000240B800024010040240280402401F
:101130004004024058040240700402408804024007
:10114000A0040240E16B09B120468847606D28B3D6
:10115000606DC0071ED04FF41650B8FBF0F00421AC
:1011600084F8351021680A6822F001020A60019AA9
:1011700001328242019202D80A68D207F7D1086888
:10118000C0074FF0030008BF012084F8350000209D
:1011900084F83400E16C09B120468847BDE8FC8141
:1011A000664A90421CBF664A90420CD0654A904203
:1011B0001CBF654A904206D0644A90421CBF644AF4
:1011C000904240F091800268E36D570703F01F03DF
:1011D00051D504279F4017EA01064CD011046F60D7
:1011E00060D4910662D4016821F0040101605DE0E1
:1011F000504FB8423FF464AE4F4FB8423FF460AE38
:10120000544FB84218BF08235AE64A4B98423FF45D
:101210008FAE494B98423FF48BAE4E4B98423FF411
:1012200087AE02688CE6434B98423FF4B4AE424B23
:1012300098423FF4B0AE474B98423FF4ACAE0268E0
:10124000B1E63C4B98423FF4DCAE3B4B98423FF456
:10125000D8AE404B984218BF0422D2E6354EB04279
:101260003FF418AF344EB0423FF414AF394EB042A1
:1012700018BF02230EE797071AD502279F4017EAE7
:10128000010615D011046F6028D491062AD4016894
:1012900021F00A010160012084F83500002084F863
:1012A00034001FE0D00301D4A16C74E7216C72E715
:1012B00012077FF573AF08229A4011403FF46EAFDA
:1012C0000168012221F00E01016002FA03F068605A
:1012D0000020626584F83520E16CFBE6D00301D480
:1012E000616C58E7E16B56E7F04A90423FF46BAF10
:1012F000EF4A90423FF467AFEE4988423FF4AFAD0A
:101300004CE700BF28000240400002405800024065
:101310007000024088000240A0000240B800024075
:1013200010040240280402404004024058040240D5
:101330007004024088040240A00402409454025801
:10134000085402581C54025830540258445402584D
:1013500058540258B8040240F8B5044600F0D2FBD5
:10136000002C7BD005462068C14FB8422AD0C14925
:1013700088421CBFC049884224D0C04988421CBF53
:10138000BF4988421ED0BF4988421CBFBE4988421F
:1013900018D0BE4988421CBFBD49884212D0BD4901
:1013A00088421CBFBC4988420CD0BC4988421CBF43
:1013B000BB49884206D0BB4988421CBFBA49884213
:1013C00040F0F280022184F83510002184F83410B6
:1013D000016821F00101016005E000F093FB401B72
:1013E000052836D820680168C907F6D10168B24AD5
:1013F0001140D4E90223114322691943636911435F
:10140000A2691943E36941EA0205616A2B43256A2F
:10141000042943EA050303D1D4E90B562B43334394
:10142000A64D2E68B6F1005F1CD36568292D19D32F
:101430002F2D15D3A5F13F06042E11D3472D11D31F
:10144000492D0DD3A5F14F06032E98BF43F4801309
:1014500008E020206065032084F835000120A1E029
:1014600043F4801303600429436923F0070341EA2E
:10147000030127D1D4E90A53002B41EA050121D009
:10148000B2F5005F06D08AB9022D12D0012D07D027
:101490007DB117E0032D15D8DFE805F00E0B0E0225
:1014A000A3F1C072B2FA82F2520904E0032D03D311
:1014B00008D1C3F300622AB140206065012084F89E
:1014C00035006FE041612046FFF73EF8E16D3F22B5
:1014D00001F01F0102FA01F181602068B8423BD09F
:1014E000644988421CBF6449884235D063498842B8
:1014F0001CBF634988422FD0624988421CBF6249A1
:10150000884229D0614988421CBF6149884223D062
:10151000604988421CBF604988421DD05F498842AB
:101520001CBF5F49884217D05E4988421CBFF949F9
:10153000884211D0F84988421CBFF84988420BD034
:10154000F74988421CBFF749884205D0F6498842CE
:101550001CBFF64988427ED12046FFF747F8A068B5
:10156000802802D10020606000E06068C2B2216E75
:101570000138D4E9193707280A605F6009D8204686
:10158000FFF77CF804F16C0207CA002303604A608D
:1015900003E00020C4E91B006067002001216065B2
:1015A00084F8351001B0F0BDE24988421CBFDB4928
:1015B00088420BD0DA4988421CBFDA49884205D0FC
:1015C000D94988421CBFD949884238D1022184F8C0
:1015D0003510002184F834100168A2686FF31011EF
:1015E000A2F18003B3FA83F35B099B03402AE2680C
:1015F00008BF102341EAD20122691943636941EA15
:10160000D201A26941EAD301E36941EAD201226A27
:1016100041EAD30141EA121140F808191421C0B27D
:10162000B0FBF1F08000E0652046FEF78DFFE16D34
:10163000012201F01F0102FA01F141604DE7BC49AE
:101640008842C3D0BC498842C0D0B34988423FF4E5
:10165000B9AE4020FEE6B64988423FF47DAFB549B9
:1016600088423FF479AFB44988423FF475AF94E7BC
:101670001000024028000240400002405800024092
:101680007000024088000240A0000240B800024002
:101690001004024028040240400402405804024062
:1016A0007004024088040240A00402406C540258B6
:1016B00080540258B80402403F8010FE0010005CC5
:1016C000B0B5002800F0E780054690F83400012806
:1016D00001D10220B0BD012085F8340095F8350015
:1016E000012840F0D280022085F83500002068658E
:1016F0002868046824F0010404602846FEF7F0FF1F
:1017000028687649884202463CD0754A9042024693
:1017100038D0744A9042024634D0734A904202460E
:1017200030D0724A904202462CD0714A9042024612
:1017300028D0704A9042024624D06F4A9042024616
:1017400020D06E4A904202461CD06D4A904202461A
:1017500018D06C4A9042024614D06B4A904202461E
:1017600010D06A4A904202460CD0694A9042024622
:1017700008D0684A9042024604D0674A904240F03E
:101780008C80654A12680B2363F3440202602A6C62
:101790001AB1026842F00802026088423BD0504A07
:1017A00090421CBF4F4A904235D04F4A90421CBFD6
:1017B0004E4A90422FD04E4A90421CBF4D4A904212
:1017C00029D04D4A90421CBF4C4A904223D04C4AEB
:1017D00090421CBF4B4A90421DD04B4A90421CBFC6
:1017E0004A4A904217D04A4A90421CBF494A904206
:1017F00011D0494A90421CBF484A90420BD0484AF7
:1018000090421CBF474A904205D0474A90421CBFB5
:10181000464A904257D12A6E1368DB0303D51368FA
:1018200043F480731360EA6E1AB1136843F4807353
:101830001360884223D02A4988421CBF2949884224
:101840001DD0294988421CBF2849884217D0284901
:1018500088421CBF2749884211D0274988421CBFB3
:10186000264988420BD0264988421CBF2549884218
:1018700005D0254988421CBF244988421AD10168F5
:1018800041F0010101600020B0BD4FF400606865C7
:10189000002085F834000120B0BD0268052363F301
:1018A000430202602A6C002A3FF477AF026842F0DC
:1018B000040271E716498842E1D017498842DED018
:1018C00014498842DBE71A4A9042A4D0194A904250
:1018D000A1D0194A90429ED0D1E700BF100002402B
:1018E00028000240400002405800024070000240C0
:1018F00088000240A0000240B800024010040240EC
:10190000280402404004024058040240700402408F
:1019100088040240A0040240B8040240085402585F
:101920001C54025830540258445402585854025817
:101930006C5402589454025880540258B0B504466E
:1019400000F0E0F8E749621C0978054618BF0C442E
:1019500000F0D8F8401BA042FAD3B0BD2DE9FC4FEF
:101960005F4A0A275F4C02444FEAB223A04208BFF5
:101970000927092B38BF4FEAB2274FF0000C009718
:1019800001274FF0000E00269EE007FA06F912EA42
:10199000090B00F094804A6802F00308A8F1010ADC
:1019A000BAF1010F13D80324856804FA0EF325EA6F
:1019B0000303CD6805FA0EF52B4383604368C2F339
:1019C000001523EA0903B5402B43436004E0B8F156
:1019D000030F4FF003041FD0C36804FA0EF5AB43A6
:1019E0008D6805FA0EF52B43B8F1020FC36013D1D1
:1019F0006FF0030202EA560202440CF01C03D2F814
:101A000020800F259D4028EA05080D6905FA03F39B
:101A100043EA080313624A68036804FA0EF5AB430D
:101A200002F0030505FA0EF52B4312F4403F036064
:101A300045D0294A13462C4C12680F2542F0020269
:101A40001A601A6802F00202019226F00302019B5A
:101A50000CF00C0352F804809D40009F28EA050515
:101A600007FA03F32B4313514FF0B048D8F8002086
:101A70004B6842EA0B05DF0258BF22EA0B05174A02
:101A80001446C8F800509F02126842EA0B0558BF7E
:101A900022EA0B059F0325604FF00107D4F8802050
:101AA00042EA0B0558BF22EA0B05DB03C4F880505D
:101AB000E26F42EA0B0558BF22EA0B05E5670136E3
:101AC0000EF1020E0CF1040C0A6832FA06F47FF4EF
:101AD0005CAFBDE8FC8F00BFF4440258040000581E
:101AE0000000FEA70024025808040058002A08BF7E
:101AF000090481617047000001480068000C7047CC
:101B00000010005C78480068704700BF90F84120E2
:101B1000202A03D190F84020012A01D1022118E0A7
:101B2000242280F841200268136823F00103136027
:101B3000136823F48053136013681943116011680C
:101B400041F001011160202180F84110002180F84E
:101B500040100846704790F84120202A03D190F8A1
:101B60004020012A01D1022117E0242280F84120DF
:101B70000268136823F001031360136823F4706391
:101B800043EA01211160116841F001011160202137
:101B900080F84110002180F840100846704700008E
:101BA00020B310B5044690F8410028B9002084F80D
:101BB0004000204600F04CF8242084F8410094E8CE
:101BC0000910E268012A016821F00101016023F097
:101BD00070610161816821F40041816008D14CF499
:101BE00000418160014651F8042F0CE0012070474C
:101BF0004CF4044181600146022A51F8042F02D1BD
:101C000042F4006201E022F400620A600F4A04F12B
:101C10001003416811434160C16821F40041C16073
:101C20000ECB1143E26941EA0321C160216A1143ED
:101C30000160016841F00101016000202021606421
:101C400084F84110206384F8420010BD0080000237
:101C5000B0B5B8B0044633A81421FEF704FC02A8BE
:101C6000C021FEF700FC2068174988422AD10820CD
:101C70000024029002A80394239400F059FA08B1BA
:101C8000FEF729FE114D286833A940F002002860B4
:101C9000286800F00200019001984FF440603390F2
:101CA0001220CDE934040420369437900848FFF719
:101CB00055FEA86840F48000A860A86800F4800081
:101CC0000190019838B0B0BD00580040E04402587F
:101CD000000402582A48007803490A681044086042
:101CE000704700BF000000242803002480B50320B3
:101CF00000F0CCF801F034F80F490A68C2F303226F
:101D00000968844B01F00F019A5C595C02F01F02D4
:101D1000D0400A4A01F01F0120FA01F1116019496F
:101D200008600F2000F00CF808B1012080BD00F021
:101D30006FF8002080BD00BF184402580C0000243A
:101D400070B50F4E3178C1B104464FF47A70B0FBD4
:101D5000F1F00C490968B1FBF0F001F011FB0F2C18
:101D60004FF001050AD848B94FF0FF300022214654
:101D7000002500F06BF8746000E00125284670BD76
:101D8000000000240800002410B54278124C90F89E
:101D900000C02260A26822F00102A2604268626074
:101DA000C27A037B1206817A42EA0372437B42EADB
:101DB000C141827B41EA8341C37B41EA4241427A8D
:101DC00041EA0341007A41EA022141EA400040EA47
:101DD0000C00A06010BD00BF98ED00E0BFF35F8F66
:101DE0000A48016821F480310160002101677047D1
:101DF00040F0010005490867086840F48030086039
:101E0000BFF34F8FBFF36F8F704700BF24ED00E02B
:101E100081B00648016841F002010160006800F0ED
:101E200002000090009801B0704700BFF4440258CF
:101E3000002808DB00F01F01012202FA01F1024A2A
:101E4000400942F82010704700E100E080B5154BD2
:101E50001B68C3F3022C8CF0070EBEF1040F28BFE1
:101E60004FF0040EBCF103034FF0FF3C38BF0023DA
:101E70000CFA0EFE21EA0E0199400CFA03F39A4384
:101E80001143BDE8804002F07DBD00BF05490A68EE
:101E90004FF6FF031A4060F30A220348104308601C
:101EA000704700BF0CED00E00000FA05B0B5104D22
:101EB00029684907296805D401F00701081A18BFE5
:101EC0000120B0BD21F0070108432860FFF71AFE8A
:101ED000044655F8080C800407D4FFF713FE001BD6
:101EE000B0F57A7FF5D90120B0BD0020B0BD00BFAC
:101EF0000C48025880B500F0F3FE0549054A096810
:101F0000C1F30211515C01F01F01C84080BD00BF48
:101F100020440258564B000810B53C4CA36AA26AF4
:101F2000C2F3053CE26AC2F30012E16BC1F3CC01DB
:101F3000BCF1000F11FB02F100EE101AB8EE400ADE
:101F40000AD003F00303022B0AD063B92168890683
:101F50000CD49FED311A13E00021C0E9001153E0C9
:101F60009FED2C1A0CE09FED2A1A09E021682B4AFC
:101F7000C1F3C10122FA01F101EE101AB8EE411AC3
:101F800002EE10CA9FED263AB8EE422AA16B6FF31B
:101F90005F2181EE021A02EE101AB8EE422AA16BFE
:101FA000C1F3462100EE032AB7EE000A03EE101A31
:101FB00032EE002AB8EE433A21EE021A33EE002A3E
:101FC00081EE022ABCEEC22A80ED002AA16BC1F389
:101FD000064102EE101AB8EE422A32EE002A81EED5
:101FE000022ABCEEC22A80ED012AA16BC1F3066170
:101FF00002EE101AB8EE422A32EE000A81EE000A12
:10200000BCEEC00A10EE101A816010BD00440258E8
:102010000024744A20BCBE4B0024744C0090D003B2
:102020000000003910B53C4CA36AA26AC2F3055CFB
:10203000E26AC2F30022616CC1F3CC01BCF1000F73
:1020400011FB02F100EE101AB8EE400A0AD003F0BC
:102050000303022B0AD063B9216889060CD49FEDD3
:10206000311A13E00021C0E9001153E09FED2C1A52
:102070000CE09FED2A1A09E021682B4AC1F3C10147
:1020800022FA01F101EE101AB8EE411A02EE10CA5E
:102090009FED263AB8EE422A216C6FF35F2181EE64
:1020A000021A02EE101AB8EE422A216CC1F3462140
:1020B00000EE032AB7EE000A03EE101A32EE002AF1
:1020C000B8EE433A21EE021A33EE002A81EE022ADC
:1020D000BCEEC22A80ED002A216CC1F3064102EE5B
:1020E000101AB8EE422A32EE002A81EE022ABCEE25
:1020F000C22A80ED012A216CC1F3066102EE101A9A
:10210000B8EE422A32EE000A81EE000ABCEEC00AA6
:1021100010EE101A816010BD004402580024744A69
:1021200020BCBE4B0024744C0090D003000000394A
:102130002DE9F0470446C078B04F000722D5A06EC5
:102140004FEA3051032908D8DFE801F002090F17E0
:10215000F96941F40031F9610FE0012613E004F15F
:102160000800022101F004FE04E004F1280002212D
:1021700001F07EFE064630B9A06E396C21F44011A4
:102180000843386400266078BA46C00701D1354656
:102190002AE0A06D04280BD83546DFE800F0030CD8
:1021A00012181800F869354640F40030F8610EE066
:1021B0000125012719E004F10800002101F0D8FDF4
:1021C00004E004F12800002101F052FE0546002D34
:1021D0002F460AD1DAF84000002520F00700A16D53
:1021E00008435246CAF840003746607880072DD52C
:1021F000E06D4FEAB01004280CD8DFE800F0030EC1
:10220000141A1A00DAF81C00514640F40030CAF8DB
:102210001C000EE00125012619E004F10800002150
:1022200001F0A6FD04E004F12800002101F020FEE9
:102230000546002D2E460AD1DAF84000002520F48C
:10224000E070E16D08435246CAF840003E466078AF
:10225000400702D4B04657462CE0D4F8A8005746B1
:102260004FEA7050042809D8DFE800F0030C121878
:102270001800F86940F40030F8610FE001254FF0D4
:10228000010817E004F10800002101F071FD04E0ED
:1022900004F12800002101F0EBFD0546002DA846C1
:1022A00008D1B86C002520F46000D4F8A8100843C9
:1022B000B046B864607800072CD5D4F8AC004FEA7B
:1022C0003060042809D8DFE800F0030B111717006D
:1022D000F86940F40030F8610EE0012501271AE0AA
:1022E00004F10800002101F043FD04E004F128009E
:1022F000002101F0BDFD0546002D2F460BD1DAF877
:102300004800002520F0E060D4F8AC1008435246A5
:10231000CAF848004746E078800726D5E06C4FEAC7
:10232000301003280BD8DFE800F013020D13DAF8A1
:102330001C00514640F40030CAF81C0008E001259A
:10234000012613E004F10800022101F011FD054609
:10235000002D2E460AD1DAF83C00002520F030008E
:10236000E16C08435246CAF83C003E466078C0061D
:102370002DD5206E4FEA303004280CD8DFE800F06D
:10238000030E141A1A00DAF81C00514640F400300B
:10239000CAF81C000EE00125012719E004F108002D
:1023A000002101F0E5FC04E004F12800002101F027
:1023B0005FFD0546002D2F460AD1DAF840000025C2
:1023C00020F4E040216E08435246CAF840003746E8
:1023D0006078800627D5606E4FEA304005280AD81D
:1023E000DFE800F014030E14141404F108000121B6
:1023F00001F0BEFC09E00125012615E01044025859
:1024000004F12800012101F033FD0546002D2E4680
:102410000AD1DAF84000002520F4E020616E08437C
:102420005246CAF840003E466078400627D5D4F8A8
:10243000B0004FEA307005280AD8DFE800F0120338
:102440000C12121204F10800012101F091FC07E0C6
:102450000125012714E004F12800012101F008FD05
:102460000546002D2F460BD1DAF84800002520F054
:10247000E040D4F8B01008435246CAF84800374646
:102480006078000622D5206F98B1B0F1005F0AD0C5
:10249000B0F1805F2ED1DAF81C00514640F40030D4
:1024A000CAF81C0005E004F10800012101F060FCFD
:1024B0000546002D2E460AD1DAF84000002520F00E
:1024C0004050216F08435246CAF840003E46E0782B
:1024D000C00702D1B046574624E0A06C57460328F7
:1024E0000BD8DFE800F014020E14F86940F4003055
:1024F000F8610CE001250126E9E701254FF001080C
:1025000010E004F10800022101F032FC0546002D24
:10251000A84607D1F86B002520F00300A16C084302
:10252000B046F863A078400601D4474617E0D7F8D4
:10253000F00340F48070C7F8F003FFF7E3FA0646B3
:10254000D7F8F003C00507D4FFF7DCFA801B642836
:10255000F6D90325032702E0002D2F4612D020785C
:10256000C00750D0E06F4FEAF000052835D8DFE80B
:1025700000F03D03373D3D3D04F10800012101F02D
:10258000F7FB32E0DAF860105346D4F8B40041406B
:1025900011F4407F0BD0196E1A6E21F4407142F491
:1025A00080321A661A6E22F480321A661966B0F505
:1025B000807F40F07282FFF7A5FA064641F2883923
:1025C00003250327DAF86000800700F16382FFF734
:1025D00099FA801B4845F5D9C1E70125012613E08A
:1025E00004F12800012101F043FC0546002D2E4690
:1025F0000AD1DAF84400002520F03800E16F0843E2
:102600005246CAF844003E462078800723D5A06F82
:1026100005280AD8DFE800F012030C12121204F1A8
:102620000800012101F0A4FB07E00125012713E0C8
:1026300004F12800012101F01BFC0546002D2F4666
:102640000AD1DAF84400002520F00700A16F084302
:102650005246CAF8440037462078400725D5D4F8BA
:10266000940005280AD8DFE800F012030C121212B9
:1026700004F10800012101F07BFB07E001250126A0
:1026800014E004F12800012101F0F2FB0546002DC1
:102690002E460BD1DAF84800002520F00700D4F8C8
:1026A000941008435246CAF848003E4620788006F7
:1026B00027D5D4F890004FEA307005280AD8DFE813
:1026C00000F012030C12121204F10800002101F0B4
:1026D0004FFB07E00125012714E004F12800022147
:1026E00001F0C6FB0546002D2F460BD1DAF8440059
:1026F000002520F0E040D4F8901008435246CAF874
:10270000440037462078400627D5D4F89C004FEA8D
:10271000B02005280AD8DFE800F012030C121212CC
:1027200004F10800002101F023FB07E00125012648
:1027300014E004F12800022101F09AFB0546002D67
:102740002E460BD1DAF84800002520F4E050D4F8EA
:102750009C1008435246CAF848003E4620780006BE
:1027600027D5D4F8A0004FEA703005280AD8DFE852
:1027700000F012030C12121204F10800002101F003
:10278000F7FA07E00125012714E004F128000221EF
:1027900001F06EFB0546002D2F460BD1DAF84800FC
:1027A000002520F46040D4F8A01008435246CAF82F
:1027B000480037462068010717D5D4F88410B1F5D2
:1027C000805F0AD104F12800022101F051FB0028AA
:1027D000206818BF0127D4F88410DAF84420534643
:1027E00022F440521143CAF84410C10617D5D4F858
:1027F0009810B1F5807F0AD104F12800022101F080
:1028000037FB0028206818BF0127D4F89810DAF8A1
:102810004820534622F440721143CAF8481000037E
:1028200022D5D4F8A400B0F5003F0FD0B0F5803F1A
:1028300006D088BB04F10800002101F099FA04E0F9
:1028400004F12800022101F013FB0546002D2E465D
:102850000BD1DAF84800002520F44030D4F8A41059
:1028600008435246CAF848003E46A07840072AD599
:10287000D4F88800B0F5401F17D0B0F5001F0ED077
:10288000B0F5801F40F00181DAF81C00514640F499
:102890000030CAF81C0008E001250126E5E704F134
:1028A0002800012101F0E4FA0546002D2F460BD146
:1028B000DAF84400002520F44010D4F888100843CA
:1028C0005246CAF844003746A078C00701D13E46B8
:1028D00022E0206DB0F5803F08D0D8B9DAF81C00AE
:1028E000514640F40030CAF81C0005E004F108002D
:1028F000022101F03DFA0546002D2E460CD1DAF8F2
:102900003C00002520F48030216D08435246CAF86F
:102910003C00DCE7012501262168880001D46068BD
:1029200009E004F12800022101F0A2FA002818BFF2
:102930000126D4E900108A031BD5D4F880206FF05B
:10294000010303EB3223022B0BD34FEA322343B1B3
:10295000012B40F09D80DAF81C3043F40033CAF8B4
:102960001C303DB9DAF8443023F440731A43CAF8F6
:1029700044203546CA0207D5DAF8402022F000424A
:10298000636F1A43CAF84020CA0008D5DAF800205D
:1029900022F48042D4F8B8301A43CAF800208A02E0
:1029A00007D5DAF8402022F08072E36E1A43CAF8A5
:1029B00040204A000CD5DAF8002022F40042CAF880
:1029C0000020D4F8BC20DAF800301A43CAF80020FE
:1029D000B1F1FF3F07DCDAF83C2022F04052636D92
:1029E0001A43CAF83C20090208D5DAF8441021F449
:1029F0004001D4F88C201143CAF84410C10708D014
:102A000004F10800002101F0B3F9002818BF0546C1
:102A10006068810708D504F10800012101F0A8F9D8
:102A2000002818BF05466068410708D504F1080072
:102A3000022101F09DF9002818BF054660680107D2
:102A400008D504F12800002101F012FA002818BF6F
:102A500005466068C10608D504F12800012101F08F
:102A600007FA002818BF05466068800603D44DB1F8
:102A70000120BDE8F08704F12800022101F0F8F9F7
:102A80002843F5D10020BDE8F087012501271BE789
:102A900001256FE75346D4F8B40000F440711A687A
:102AA000B1F5407F22F47C5103D1064A02EA1012AC
:102AB000114319606FF31F30196E00250843186623
:102AC00033E500BFCFFFFF002DE9F843002800F0F9
:102AD000FE800446804B186800F00F00884688424C
:102AE0000BD2186820F00F0040EA08001860186840
:102AF00000F00F00404540F0EA802068CF4F4107CA
:102B00000AD52169BA6902F07002914204D9BA6902
:102B100022F070021143B96101070AD56169FA69AF
:102B200002F07002914204D9FA6922F07002114356
:102B3000F961C1060AD5A169FA6902F4E06291421D
:102B400004D9FA6922F4E0621143F96181060AD5D9
:102B5000E1693A6A02F07002914204D93A6A22F0BD
:102B600070021143396281070AD5E168BA6902F03F
:102B70000F02914204D9BA6922F00F021143B961E0
:102B8000C10736D0B86920F47061D4E9010211435D
:102B90000328B96105D0022807D1396889030DD40B
:102BA00095E03968890109D491E00128396802D19A
:102BB000C90503D48BE0490740F1898039699946FA
:102BC00021F0070108433861FEF79CFF064641F2F9
:102BD0008835386900F038006168B0EBC10F06D065
:102BE000FEF790FF801BA842F3D9032070E0206815
:102BF0004B4681070AD5E168BA6902F00F0291429B
:102C000004D2BA6922F00F021143B961196801F0C8
:102C10000F0141450AD9196821F00F0141EA080165
:102C20001960196801F00F01414550D141070AD5DB
:102C30002169BA6902F07002914204D2BA6922F0A5
:102C400070021143B96101070AD56169FA6902F09E
:102C50007002914204D2FA6922F070021143F961C4
:102C6000C1060AD5A169FA6902F4E062914204D270
:102C7000FA6922F4E0621143F96180060AD5E0693D
:102C8000396A01F07001884204D2396A21F070017A
:102C90000843386200F064F8B969C1F303212F4A90
:102CA000515CBB6903F00F03D25C01F01F0120FAF5
:102CB00001F102F01F00184A21FA00F01060174AD3
:102CC000064800681160BDE8F843FFF739B80120F5
:102CD00001B0BDE8F08300BF0020005204000024D2
:102CE00080B500F03DF80B490A68C2F30322096879
:102CF0001A4B01F00F019A5C595C02F01F0220FA96
:102D000002F201F01F00044922FA00F008600349B2
:102D10000A6080BD184402580C00002408000024FA
:102D200080B5FFF7DDFF0C490C4A0968C1F30211B9
:102D3000515C01F01F01C84080BD00BF80B5FFF7A6
:102D4000CFFF0549054A0968C1F30221515C01F032
:102D50001F01C84080BD00BF1C440258564B0008EC
:102D600036490869C0F3C20003280CD0022828D0D5
:102D700048BB08688006374858BF70470968C1F3E8
:102D8000C101C84070478A6A886AC0F3051CCB6AD3
:102D9000486B03F00103C0F3CC00BCF1000F10FB43
:102DA00003F000EE100AB8EE400A0ED002F0030263
:102DB000022A0CD072B9086880060ED49FED241A3E
:102DC00015E0204870471E487047002070479FED6F
:102DD0001F1A0CE09FED1C1A09E008681D4AC0F399
:102DE000C10022FA00F001EE100AB8EE411A02EE1C
:102DF00010CA9FED193AB8EE422A086B6FF35F20B4
:102E000081EE021A02EE100AB8EE422A086BC0F3F5
:102E1000462000EE032AB7EE000A013032EE000A27
:102E200021EE000A01EE100AB8EE411A80EE010A06
:102E3000BCEEC00A10EE100A704700BF00440258F2
:102E400000093D0040787D010024744A20BCBE4B3F
:102E50000024744C0090D00300000039F8B500281D
:102E600000F0B48104460078D74EC00721D1207805
:102E7000800740F1B180306910F03801B06A3CD071
:102E8000182908BF5FEA807037D0E06800283168F1
:102E90005CD021F0190108433060FEF733FE05468F
:102EA0003068400743D4FEF72DFE401B0228F7D9B7
:102EB000A0E1306900F03801B06A102905D0182966
:102EC0000AD100F00300022806D130688003CED575
:102ED00060680028CBD179E16068002847D0B0F560
:102EE000803F06D0B0F5A02F30685ED140F480203E
:102EF0003060306840F480305DE030684007E06862
:102F000002D5002800F06281316821F019010843E0
:102F10003060FEF7F7FD05463068400707D4FEF73E
:102F2000F1FD401B02284FF00300F5D963E1FEF7E5
:102F3000E3FD41F20301884230D8206971684028DE
:102F400021F47C3145D141F4003044E021F001000E
:102F50003060FEF7D7FD0546306840073CD5FEF7E8
:102F6000D1FD401B02284FF00300F5D943E1306842
:102F700020F480303060306820F480203060FEF72C
:102F8000C1FD0546306880037FF571AFFEF7BAFDDD
:102F9000401B64284FF00300F4D92CE1706820F046
:102FA000FE40216940EA016015E020F48030306085
:102FB000306820F480203060FEF7A4FD05463068BC
:102FC00080033FF554AFFEF79DFD401B6428F6D902
:102FD00010E141EA003070602078C00653D53069B6
:102FE00000F03801B06A082905D018290BD100F08B
:102FF0000300012807D13068C00519D5E069802891
:1030000040F0E48014E0E0690028306827D040F008
:1030100080003060FEF776FD05463068C00507D4B5
:10302000FEF770FD401B02284FF00300F5D9E2E0E7
:10303000FEF762FD41F20301884208D8206A7168F8
:10304000202821F0F8411BD141F080401AE0F068BF
:1030500020F07C50216A40EA0160F06013E020F02B
:1030600080003060FEF74EFD05463068C0050AD589
:10307000FEF748FD401B02284FF00300F5D9BAE0E7
:1030800041EA806070602078000723D560690028DD
:10309000706F0ED040F001007067FEF733FD0546FB
:1030A000706F800716D4FEF72DFD401B0228F7D95C
:1030B000A0E020F001007067FEF724FD0546706F68
:1030C000800707D5FEF71EFD401B02284FF00300C6
:1030D000F5D990E02078800623D5A06900283068D3
:1030E0000ED040F480503060FEF70CFD054630688D
:1030F000800416D4FEF706FD401B0228F7D979E0BC
:1031000020F480503060FEF7FDFC054630688004F6
:1031100007D5FEF7F7FC401B02284FF00300F5D956
:1031200069E02078400753D4656A002D00F00D81D6
:10313000306900F0380018286ED1B16A012D306B6B
:1031400044D001F00302A36A9A423FD1C1F30511B2
:10315000E26A91423AD10146226B6FF35F21013A54
:10316000914233D1C0F34621626B013A91422DD195
:10317000C0F30641A26B013A914227D1C0F3066029
:10318000E16B0139884221D1706BC0F3CC00A16C96
:10319000814200F0DA80F06A20F00100F062FEF770
:1031A000B1FC0546FEF7AEFCA842FBD0706B4FF6B3
:1031B000F8718843A16C40EAC1007063F06A40F086
:1031C0000100F062C1E000BF00440258012012E09B
:1031D000D6F8000440F48070C6F80004FEF792FCB4
:1031E0000546D6F80004C00507D4FEF78BFC401B4B
:1031F0006428F6D9032001B0F0BDA06860B30128AF
:1032000006D00528306F40F0A28040F004003067FF
:10321000306F40F00100A0E0306820F08070306036
:10322000FEF770FC022D05460AD1306880012CD5CE
:10323000FEF768FC401B02284FF00300F5D9DAE7DF
:103240003068800140F18180FEF75CFC401B022861
:103250004FF00300F4D9CEE7306F20F00100306763
:10326000306F20F004003067FEF74CFC054641F259
:103270008837306F80077FF557AFFEF743FC401B60
:10328000B8424FF00300F4D9B5E7B06A40F2F33129
:103290008843A16A226B0843511E626B4FF47E4340
:1032A00003EB4222E36A6FF35F2192B240EA03101C
:1032B000B0625018A16B4FF4FE0202EB014101F421
:1032C000FE010844E16B4FF0FE4202EB016101F0A8
:1032D000FE41084430634FF6F871F06A20F00100B7
:1032E000F062706B8843A16C40EAC1007063F06AC1
:1032F00020F00C00216C0843F062F06A20F002001C
:10330000616C0843F062F06A40F48030F062F06A69
:1033100040F40030F062F06A40F48020F062F06A1D
:1033200040F00100F062306840F080703060FEF7DD
:10333000E9FB04463068800107D4FEF7E3FB001B7D
:1033400002284FF00300F5D955E7002053E720F09D
:1033500001003067306F20F004003067FEF7D2FBC9
:10336000054641F28837306F80073FF5DDAEFEF746
:10337000C9FB401BB8424FF00300F4D93BE7000003
:10338000411E0020B0EB116F01D001207047044AAC
:103390005160F021034B1970072190601160704754
:1033A00010E000E023ED00E090F83C20012A4FF00F
:1033B000020233D070B501231E4E80F83C3080F8F5
:1033C0003D20026842F480635468B342936802BFB0
:1033D00024F470044D682C43B2F1804F24F0700542
:1033E0000C6845EA040555600BD0134CA2421CBF83
:1033F000124CA24205D0124CA2421CBF114CA24258
:103400000ED123F0800389681943916001210022C5
:1034100080F83D1080F83C20BDE8704010467047B1
:10342000094CA242EDD0094CA24218BFB242E8D0EA
:10343000ECE700BF00040140000400400008004029
:10344000000C004000180040000001400040014016
:1034500060B310B5044690F83D0028B9002084F808
:103460003C00204600F024F8022084F83D00211D95
:10347000206800F05BFE012084F8480084F83E00DC
:1034800084F83F0084F8400084F8410084F842004A
:1034900084F8430084F8440084F8450084F846002A
:1034A00084F8470084F83D00002010BD01207047DB
:1034B00000680849884218BF704781B00648016813
:1034C00041F020010160006800F0200000900098A9
:1034D00001B0704700140040E844025890F884108E
:1034E000012901D1022112E02421C0F888100268CC
:1034F0001368116823F0005321F0010111600021CD
:10350000416613602022C0F8882080F884100846A5
:10351000704770477047B0B5044690F884000128A2
:1035200001D10220B0BD012084F884002420C4F819
:10353000880020680568026822F001020260826843
:1035400022F0606211438160204600F073FE206823
:1035500005602020C4F88800002084F88400B0BDF5
:10356000B0B5044690F88400012801D10220B0BD16
:10357000012084F884002420C4F8880020680568AD
:10358000026822F001020260826822F06042114368
:103590008160204600F04EFE206805602020C4F8BF
:1035A0008800002084F88400B0BD704770477047E1
:1035B00070B504460068C26940F60F05034601680D
:1035C0002A4253F808CF4AD0BC4D0CEA050EBC4D38
:1035D0000D4015EB0E054CD0D50718BF11F48075C2
:1035E00007D001250562D4F8905045F00105C4F8D4
:1035F000905095070CF0010508D53DB102260662F2
:10360000D4F8906046F00406C4F89060560708D5D8
:103610003DB104250562D4F8905045F00205C4F888
:10362000905015070CD501F020055EEA050607D07D
:1036300008260662D4F8906046F00806C4F8906048
:10364000160567D511F0806664D04FF400660662F7
:10365000254655F8900F40F0200028605CE0930666
:1036600007D501F020030CF080555B1901D0616F84
:10367000E9E001EA0203E56EDE063CD5012D3AD110
:10368000102101628168490600F18480B4F85C1061
:10369000B4F85E20B4F85E30002B00F0E480891AA4
:1036A0000A0401D1DFE0206850E8000F226820F40E
:1036B000907042E80003002BF5D18348226852E85D
:1036C000022F2368024043E80226002EF6D1202074
:1036D000C4F88C000020E0666067206850E8000FA6
:1036E000226820F0100042E80003002BF5D189B2D7
:1036F0000220206799E0D60240F19C801CF48006ED
:1037000000F098804FF4801101622046BDE87040BF
:10371000FFF74CBF04F190052868002800F0A38053
:1037200090060CD501F020000CF08051401806D016
:10373000616F21B120468847206800F1080328689E
:10374000196800F0280001F04001401800F0858061
:10375000204600F0AFFE20688168490601D477E07A
:10376000206850E8020F216820F0400041E8020282
:10377000002AF5D1D4F88000002869D051490165AC
:10378000FDF746FA00286ED0D4F88000016DBDE840
:1037900070400847D4F8802011684B689DB2002D16
:1037A00061D0B4F85C108D425DD2A4F85E30D2696D
:1037B000B2F5807F01D132E0206850E8000F216827
:1037C00020F4807041E80002002AF5D1206850E81A
:1037D000020F216820F0010041E80202002AF5D121
:1037E000206850E8020F216820F0400041E8020202
:1037F000002AF5D12020C4F88C000020E066206863
:1038000050E8000F216820F0100041E80002002A73
:10381000F5D1D4F88000FDF763F8B4F85C1002200D
:103820002067B4F85E00081A81B22046BDE87040F7
:10383000FFF76FBE160617D501F080060CF40005E1
:10384000761911D0A16F71B12046BDE870400847CC
:103850002046BDE87040FFF7AABE2046FFF7A7FE4E
:103860000020C4F8900070BD5B060AD410021BD57E
:1038700011F0804018D02046BDE87040FFF795BE9B
:10388000206850E8000F216820F0400041E8000265
:10389000002AF5D12020C4F888000020A067204627
:1038A000BDE8704000F03CB9D001DCD5B1F1FF3F7C
:1038B000D9DC2046BDE87040FFF72CBE01000010A7
:1038C0002001000405440008FEFFFFEF10B5E0B141
:1038D0000446D0F8880028B9002084F884002046E7
:1038E00000F028F82420C4F888002068A16A026843
:1038F000002922F00102026002D0204600F0C4FC40
:10390000204600F01DFE012801D1012010BD2068D5
:10391000416821F490414160816821F02A01816071
:10392000016841F0010101602046BDE8104000F04F
:103930000FBD00002DE9F041B8B0044633A81421B2
:10394000FCF791FD02A8C021FCF78DFD20684D49D0
:1039500088422FD0E949884240F09180012000241C
:10396000029002A803942194FEF7E2FB08B1FCF751
:10397000B2FFA048016941F010010161016901F045
:10398000100101910199016841F00201016033A920
:10399000006800F00200019001984FF4404033901D
:1039A0000220CDE934040420369437903748FDF7DF
:1039B000D5FF64E000260225039602A80295209612
:1039C000FEF7B6FB08B1FCF786FF8A4881682E4FE8
:1039D00041F480218160816801F480210191019985
:1039E000016841F00801016033A9006800F0080097
:1039F000019001984FF44070CDE933050720CDE9DF
:103A000035663790214800F50060FDF7A7FF204D8F
:103A10002D20B846C5E900704FF48067AE6005F10F
:103A200014001421C5E90367FCF71DFD2846FDF7C6
:103A300093FC08B1FCF74FFFC4F8805008F1180060
:103A4000AC632E21134D286040206960002105F1F0
:103A5000080283C205F114001421FCF704FD284676
:103A6000FDF77AFC08B1FCF736FF2720E567002157
:103A7000AC630022FEF7EAF92720FEF7D9F938B047
:103A8000BDE8F081004800401000024000040258E8
:103A900070000024E8000024B0B50446D0F8880087
:103AA000202825D111B3134602B30025216521201A
:103AB000A4F85430A4F85630C4F89050C4F88800E4
:103AC000E06FB8B1DFF84CC0DFF84CE0134AC0E952
:103AD0000FCEC264226828320565FDF7F1FD48B1BA
:103AE0001020C4F890002020C4F888000120B0BD48
:103AF0000220B0BD20684021016200E0206850E84B
:103B0000020F216840F0800041E80202002AF5D14E
:103B10000020B0BD6F440008AD4400081544000803
:103B200070477047FEE70000E0B50E4801680022CC
:103B300041F0010101600021006800F001000190E6
:103B400001980B20FEF782F90B20FEF771F90C208B
:103B500000210022FEF77AF90C20BDE88C40FEF728
:103B600067B900BFD844025870B586B00025214817
:103B7000214C0595002201684FF4806641F08001D8
:103B80000160016801F0800100910099016841F035
:103B900010010160016801F01001009100990168B5
:103BA00041F002010160016801F0020100910099F9
:103BB000016841F008010160016801F0080100910D
:103BC0000099016841F0010101604FF480610068D3
:103BD00000F00100009000982046FDF787FF0120CB
:103BE0000196CDE9020501A904952046FDF7B6FE30
:103BF00006B070BDE04402580010025810B5124CD7
:103C0000124813492060002061600121C4E90201CB
:103C100004F110001421FCF726FC2046FDF7C0FF3C
:103C200008B1FCF758FE08480021FDF76FFF08B106
:103C3000FCF751FE04480021FDF78DFF18B1BDE8E7
:103C40001040FCF748BE10BD600100240058004041
:103C5000B17570301FB500240D480E49EF22039452
:103C6000CDE90144C0E900124FF6FF71C0E90241FD
:103C70008461FFF7EDFB08B1FCF72DFE044801A9B4
:103C800001940394FFF790FB08B1FCF724FE1FBDDD
:103C9000B40100240014004010B5174C17484FF42D
:103CA000E13120600020C4E901100C21E060C4E98A
:103CB000040104F118001421FCF7D5FB2046FFF79E
:103CC00005FE08B1FCF707FE0B480021FFF748FC92
:103CD00008B1FCF700FE08480021FFF71CFC08B102
:103CE000FCF7F9FD0448FFF7F9FB18B1BDE81040F7
:103CF000FCF7F1BD10BD00BF000200240010014020
:103D000010B5174C17484FF4165120600020C4E935
:103D100001100C21E060C4E9040104F11800142131
:103D2000FCF7A1FB2046FFF7D1FD08B1FCF7D3FD5E
:103D30000B480021FFF714FC08B1FCF7CCFD084844
:103D40000021FFF7E8FB08B1FCF7C5FD0448FFF7C9
:103D5000C5FB18B1BDE81040FCF7BDBD10BD00BFEC
:103D60009402002400480040FEE7FEE77047000090
:103D7000F8B5E64FBA6A02F00302032A01D1012026
:103D800074E00546386820F080600C463860FDF726
:103D9000B9FE06463868000105D5FDF7B3FE801B65
:103DA0000228F7D95FE0B86A4FF47E43696820F4CF
:103DB0007C30AA68013903EB42222B686FF35F2144
:103DC00092B240EA03301144EA684FF4FE03B8624D
:103DD00003EB024202F4FE02881829694FF0FE420A
:103DE00002EB016101F0FE410844B863002CF86A5F
:103DF00020F0C000696940EA0100F862F86A20F02A
:103E00002000A96940EA0100F8624FF6F871F86AEB
:103E100020F01000F862F86B20EA0100E96940EA3E
:103E2000C100F863F86A40F01000F86205D0012C78
:103E3000F86A06D140F4801005E0F86A40F40020EA
:103E400001E040F40010F862386840F080603860AB
:103E5000FDF758FE04463868000106D4FDF752FE0F
:103E6000001B0328F7D3032000E0002001B0F0BDC1
:103E7000F8B5A64FBA6A02F00302032A01D1012065
:103E800074E00546386820F080500C463860FDF735
:103E900039FE06463868800005D5FDF733FE801BE5
:103EA0000228F7D95FE0B86A4FF47E43696820F0D2
:103EB0007C70AA68013903EB42222B686FF35F2103
:103EC00092B240EA03501144EA684FF4FE03B8622C
:103ED00003EB024202F4FE02881829694FF0FE4209
:103EE00002EB016101F0FE4108443864002CF86ADD
:103EF00020F44060696940EA0100F862F86A20F441
:103F00000070A96940EA0100F8624FF6F871F86A9A
:103F100020F48070F862786C20EA0100E96940EAD8
:103F2000C1007864F86A40F48070F86205D0012C12
:103F3000F86A06D140F4000005E0F86A40F4800019
:103F400001E040F08070F862386840F080503860DE
:103F5000FDF7D8FD04463868800006D4FDF7D2FD91
:103F6000001B0328F7D3032000E0002001B0F0BDC0
:103F70007047FDF7AFBE0000B0B59CB009A83B4C40
:103F80003B4D4C21FCF76FFA01A82021FCF76BFA9E
:103F90000220FDF78BFF00200090286820F0010030
:103FA0002860286800F001000090206840F440403C
:103FB0002060206800F44040009000982068800451
:103FC000FCD52C48215841F002012150205800F026
:103FD00002000090009800200090206840F44040CB
:103FE0002060206800F440400090286840F0010004
:103FF0002860286800F00100009000982068800484
:10400000FCD5012009904FF480300A900220052150
:10401000CDE912001491C021CDE91510CDE91700AA
:1040200008240025199409A8CDE91A55FEF716FFB2
:1040300018B1EFF3108072B6FEE73F200190032025
:10404000CDE90205402004944FF48061CDE90500DC
:10405000CDE9071001A80421FEF736FD18B1EFF3F2
:10406000108072B6FEE71CB0B0BD00BF1848025801
:104070002C040058DCFCFFFF23480168214A41F46E
:1040800070010160106800F00F00062804D8106865
:10409000072161F30300106010B51C4801681C4C37
:1040A00041F00101016000210161036823400360C8
:1040B00013681B0704D51368072464F30303136014
:1040C000144A8161C16101628262134AC262134A69
:1040D000026341638263C16302644164026822F443
:1040E0008022026001660E480068B1EB507FBDE897
:1040F000104002D101200B49086043F2D2000A4966
:10410000086070470020005288ED00E0004402582B
:104110007FEDF6EA000202020000FF0180020101C9
:104120000010005C0881005100400052F0B5B0F171
:10413000804F0368374A05D0374CA0421CBF374C2C
:10414000A0423BD123F070034C68234302F5804426
:10415000041BB4FA84F44FEA541C02F58844041B8F
:10416000B4FA84F44FEA541E02F59044041BB4FAE6
:1041700084F4640923F44073CD682B4323F0800357
:104180004E690D6833438F68002C0360C7628562F7
:1041900008BFBEF1000F05D190421CBF02F580623E
:1041A000904232D109690163012141610169C90766
:1041B00003D0016921F001010161F0BD184CA0425A
:1041C000C0D0184CA04218BF9042BBD002F580442A
:1041D000154D041BB4FA84F44FEA541C02F58844CC
:1041E000041BB4FA84F44FEA541E02F59044041BF5
:1041F000B4FA84F4A8424FEA5414BBD00B4DA84241
:10420000B8D00B4DA842B5D0B8E7BCF1000FCBD069
:10421000C8E700BF00000140000400400008004063
:10422000000C0040000401400040014000480140F3
:1042300000440140416ED9B180B501688A68C2F37B
:1042400042628968490FDFF838C01CF80130DFF896
:1042500034E01EF801101B01B3FBF1F11CF8023031
:104260001EF802201B01B3FBF2F2BDE8804001E022
:1042700001210122A0F86A10A0F86820704700BF51
:10428000864B00088E4B0008816A0A0708D5026831
:10429000D0F838C0536823F4004343EA0C0353605A
:1042A000CA0708D00268D0F82CC0536823F4003342
:1042B00043EA0C0353608A0708D50268D0F830C07F
:1042C000536823F4803343EA0C0353604A0708D54C
:1042D0000268D0F834C0536823F4802343EA0C0307
:1042E0005360CA0608D50268D0F83CC0936823F42E
:1042F000805343EA0C0393608A0608D50268D0F81D
:1043000040C0936823F4005343EA0C0393604A06C9
:1043100012D50268D0F844C05368BCF5801F23F45E
:10432000801343EA0C03536006D1536823F4C00C96
:10433000836C43EA0C035360090658BF7047016859
:10434000C06C4A6822F400221043486070470000A5
:10435000BCB500210446C0F89010FDF7D3FB2168DE
:1043600005460A68120718D525484FF40011009039
:10437000002220462B4600F0B1FA68B1206850E8D0
:10438000000F216820F0800041E80002002AF5D1EA
:104390002020C4F8880024E021680868400722D55E
:1043A00017484FF480010090002220462B4600F071
:1043B00095FAC0B1206850E8000F216820F4907091
:1043C00041E80002002AF5D1206850E8020F216878
:1043D00020F0010041E80202002AF5D12020C4F8B3
:1043E0008C00032007E02020C4F88800C4F88C006B
:1043F0000020E0662067002184F8841002B0B0BD80
:10440000FFFFFF01806B0021A0F85E10A0F856109E
:10441000FFF7CDB8B0B5846B2068D4F88810D4F815
:104420008C50212950F8081F0AD111F0800107D0C3
:104430000020A4F85600204600F06AF820680830F2
:10444000222D006808D110F0400005D00020A4F80B
:104450005E00204600F02EF8D4F8900040F01000E6
:10446000C4F890002046BDE8B040FFF7A0B8C1698D
:10447000B1F5807F806B01D1FFF752BB0021A0F81E
:104480005610016851E8021F026821F0800142E8DD
:104490000213002BF5D1016851E8001F026841F0BA
:1044A000400142E80013002BF5D17047806BFFF705
:1044B00038BB0000016851E8001F026821F49071C8
:1044C00042E80013002BF5D110B5104C026852E8F9
:1044D000022F0368224043E802210029F6D1C16E71
:1044E0000129BDE8104009D1016851E8001F0268A8
:1044F00021F0100142E80013002BF5D12021C0F873
:104500008C100021C1664167704700BFFEFFFFEFBE
:10451000016851E8001F026821F0C00142E8001361
:10452000002BF5D1016851E8021F026821F4000157
:1045300042E80213002BF5D12021C0F88810704703
:10454000FEB50446006804F108038D4D8B4E0ECB7A
:10455000194363690B43E16907680B432F409D4D85
:104560003B430360A842436823F4405342EA0302FA
:104570004260A2691CBF236A1A4383683340964E87
:104580001A438260B042C26A944E22F00F03626AFC
:1045900043EA0203C36228D0914B984232D0914B38
:1045A00098423CD0904B984246D0904B984200F0B5
:1045B00050808F4B984200F05880A84200F06180F4
:1045C0008C4B984200F069808B4B984240F07B8086
:1045D000736DB446C3F3C206052E00F27580012345
:1045E000DFE806F07367696B6D6F736DB44603F0B7
:1045F0000706052E00F268800023DFE806F0665A01
:104600005C5E6062736DB44603F00706052E00F22F
:104610005B800023DFE806F0594D4F515355736D11
:10462000B44603F00706052E00F24E800023DFE8B3
:1046300006F04C4042444648736DB44603F007060A
:10464000052E00F241800023DFE806F03F333537C6
:10465000393B736DB44603F00706052E34D80023AA
:10466000DFE806F03327292B2D2F736DB44603F0B6
:104670000706052E28D80023DFE806F0271B1D1F9C
:104680002123B36DB44603F00706052E1CD8022380
:10469000DFE806F01B0F11131517736DB446C3F353
:1046A000C206052E10D80123DFE806F00F03050728
:1046B000090B042309E0082307E0102305E0202369
:1046C00003E0402301E0B4468023A8427F4810D095
:1046D000B1F5004F1DD1082B4FF0010127D8DFE8BD
:1046E00003F0058DD5D590D5D5D59400FEF718FBF0
:1046F0008FE0402B32D0042B33D0082B35D0102B39
:1047000040D0202B48D0022B40F0BF80FDF7F2FBB9
:104710002FE0082B4FF0010114D8DFE803F00594D7
:10472000B7B797B7B7B79B00FEF7FAFA96E0102B2A
:1047300000F0B580202B6ED0402B40F0A7804FF4C6
:10474000004068E0102B00F0B580202B00F088803E
:10475000402B40F09B804FF4004081E04FF400403C
:104760001AE06846FDF7D8FB02E06846FDF75AFC00
:104770000198002800F08780626A0DE0FFF4FF11C5
:10478000F369FFCFDCF8000065468006504803D58A
:104790002968C1F3C101C8404E4931F8121062685E
:1047A000B0FBF1F002EB420188424FF001016DD302
:1047B000130398426AD8010E000210EB520041F137
:1047C00000010023FBF7D8FDA0F54071424A914259
:1047D00057D95AE0000C00580044004000440258E9
:1047E00000480040004C004000500040007800406D
:1047F000007C00400014014000100140FEF79EFACA
:1048000007E06846FDF788FB02E06846FDF70AFC12
:104810000198C0B3626A2F4931F81210B0FBF1F071
:1048200061684A0802EB4000B0FBF1F04FF6EF720E
:10483000A0F11001914228D84FF6F071C0F3420266
:10484000084010441DE0FEF779FA07E06846FDF7DE
:1048500063FB02E06846FDF7E5FB019898B1626AE8
:104860001C4931F812104FF6EF72B0FBF1F061689D
:1048700000EB5100B0FBF1F0A0F11001914204D81F
:1048800080B22168C860002100E001214FF00110D2
:10489000A0660020C4E91D00084603B0F0BDDCF8A6
:1048A0000000654680060A48B5D52968C1F3C101F4
:1048B000C840B0E7DCF80000654680060448CFD564
:1048C0002968C1F3C101C840CAE700BF00093D0023
:1048D0000090D003664B0008FFFC0F002DE9F84361
:1048E000DDF82090984616460F460446006809F108
:1048F0000105C1693940C91BB1FA81F14909B142C9
:1049000029D1002DF5D0FDF7FDF8B9F1000F0146D2
:104910004FF0030020D0A1EB080149451CD82068C6
:1049200001684907E5D5402F18BF802FE1D0C16944
:10493000090714D4C1690905DBD54FF40061016290
:104940002046FFF7B7FD2020C4F89000002084F82F
:104950008400032000E0002001B0BDE8F0830825BA
:1049600005622046FFF7A6FD0020C4F8905084F8A9
:1049700084000120F0E700006F48FEF719BE00BF79
:10498000FEE7000000F00F02614B1A44044BB0F147
:10499000FF3F4FEA0111C8BFC2181170704700BF36
:1049A00000E400E086B05A4E3068800312D4BFF3B2
:1049B0004F8F0020BFF36F8FC6F83C02BFF34F8FBD
:1049C000BFF36F8F306840F400303060BFF34F8F1B
:1049D000BFF36F8F3068C00326D40020306743F6E2
:1049E000E07CBFF34F8FF16EC1F34E30C1F3C901CC
:1049F000CC438D070CEA40172A46214642EA0703BA
:104A00000131C6F84C3202F14042F7D10028A0F142
:104A10000100EFD1BFF34F8F306840F48030306039
:104A2000BFF34F8FBFF36F8FFDF760F90127019739
:104A3000FDF7D4F94FF01050384D0290354801ACD5
:104A40000390354804902046A8474FF040508DF819
:104A50000570029010208DF80C000020ADF81200B7
:104A60002046A84702202E4F8DF8050020460297C9
:104A7000A84703208DF8050007F5003002900E20AE
:104A80008DF80C002046A84704208DF805004FF053
:104A9000605002900F208DF80C002046A84704209B
:104AA000FDF7A6F9FFF768FAFFF75EF8FFF73CF8A5
:104AB000FFF7F2F8FFF724F9FFF7CCF8FFF79EF8BD
:104AC00018A01D4D031D0ECB0069059002A80EC055
:104AD0001448019004F01C0000F11307BFF34F8F3E
:104AE000384621462038C6F85412002801F120012A
:104AF000F8DCBFF34F8FBFF36F8F13222846214698
:104B0000FEF7CAFF4FF47A70FCF718FFE6E700BF24
:104B100014ED00E01200010300000101891D0008EE
:104B20000000023048656C6C6F2C20426C75657417
:104B30006F6F7468210D0A0094020024F1EE100AD0
:104B40004FF6FF71C0F2C03120EA010040F0407022
:104B5000E1EE100A704700000000010203040102A8
:104B6000030406070809010002000400060008000B
:104B70000A000C0010002000400080000001000628
:104B800010160006101601010103070100000804B9
:104B90000204080101010000B84B000800000024D5
:104BA00010000000D4020008C84B000810000024C8
:104BB00020790000F0020008010000001000000051
:084BC0000090D0030090D00327
:040000050800029954
:00000001FF
