:020000040800F2
:10000000387C0024AD0200085187000811750008F3
:10001000D98500085104000839BC00080000000020
:10002000000000000000000000000000918E0008A9
:10003000A104000800000000818A000889900008DF
:10004000C7020008C7020008C7020008C70200086C
:10005000C7020008C7020008C7020008C70200085C
:10006000C7020008C7020008C7020008C70200084C
:10007000C7020008C7020008C7020008C70200083C
:10008000C7020008C7020008C7020008C70200082C
:10009000C7020008C7020008C7020008C70200081C
:1000A000C702000859930008C7020008C7020008E9
:1000B000C702000869930008C7020008C7020008C9
:1000C000C7020008C7020008C7020008C7020008EC
:1000D000C7020008D1BA0008E1BA0008F9BA00085E
:1000E000C7020008C702000800000000C70200089D
:1000F000C7020008C7020008C7020008C7020008BC
:10010000C7020008C7020008C7020008C7020008AB
:10011000C7020008C7020008C70200087993000858
:10012000C7020008C7020008C7020008C70200088B
:10013000C7020008C7020008C7020008C70200087B
:1001400000000000000000000000000000000000AF
:10015000C7020008C7020008C702000809BB000860
:10016000C7020008C7020008C7020008C70200084B
:10017000C7020008C7020008C7020008000000000C
:10018000C7020008C7020008C7020008C70200082B
:10019000C7020008C7020008C7020008C70200081B
:1001A000C7020008C7020008C7020008C70200080B
:1001B000C7020008C7020008C7020008C7020008FB
:1001C000C7020008C7020008C7020008C7020008EB
:1001D000C7020008C7020008C7020008C7020008DB
:1001E000C7020008C7020008C7020008C7020008CB
:1001F000C7020008C7020008C7020008C7020008BB
:10020000C7020008C7020008C7020008C7020008AA
:10021000C7020008C7020008C7020008C70200089A
:10022000C7020008C7020008C7020008000000005B
:10023000C7020008C702000800000000C70200084B
:10024000C7020008C7020008C7020008C70200086A
:10025000C7020008C7020008C7020008C70200085A
:10026000C7020008C7020008C7020008C70200084A
:10027000C7020008C7020008C7020008000000000B
:10028000C7020008C7020008C702000800000000FB
:1002900000000000C7020008DFF80CD000F082F870
:1002A0000048004781C50008387C00240648804784
:1002B00006480047FEE7FEE7FEE7FEE7FEE7FEE74B
:1002C000FEE7FEE7FEE7FEE7F99100089902000865
:1002D0002DE9F05F0546002092469B46884606467B
:1002E000814640241BE0284641464746224600F00E
:1002F00048F853465A46C01A914110D31146184641
:10030000224600F02FF82D1A67EB01084F462246CF
:100310000120002100F026F817EB00094E41201EB5
:10032000A4F10104DFDC484631462A464346BDE8D5
:10033000F09FD2B201E000F8012B491EFBD27047BA
:100340000022F6E710B513460A4604461946FFF7A1
:10035000F0FF204610BD421C10F8011B0029FBD104
:10036000801A7047202A04DB203A00FA02F10020AC
:1003700070479140C2F1200320FA03F319439040E3
:100380007047202A04DB203A21FA02F0002170474E
:1003900021FA02F3D040C2F12002914008431946ED
:1003A00070470000064C074D06E0E06840F001038E
:1003B00094E8070098471034AC42F6D3FFF770FF7B
:1003C0000CD000082CD0000880B588B040F28820FE
:1003D000C2F200400068C06900F008000021B1EBE3
:1003E000D00F0ED0FFE740F28820C2F20040016833
:1003F00008220A620168C9690068406A069105908E
:10040000FFE740F28820C2F200400068C06900F0B7
:1004100020000021B1EB501F15D0FFE740F28820EB
:10042000C2F200400DF11F0101224FF0FF33049191
:10043000039206F015FE04990290084603990BF00A
:100440008FFF0190FFE708B080BD000000000000B2
:10045000FFE7FEE70000000080B584B0014603908E
:1004600003980028029101D1FFE716E003980021CC
:100470000160039841600398816001910CF074F869
:10048000039880ED030A0398019901610398416183
:10049000039881610398C161FFE704B080BD00004B
:1004A0007047000000000000F0B58FB0DDF854C0C8
:1004B000DDF850E01C4615460E4607460E900D919D
:1004C0000C920B9340F61C00C2F2004000680A2810
:1004D0000A94099508960797CDF818C0CDF814E04E
:1004E00001DBFFE75AE00E9840F61C01C2F2004122
:1004F0000A6840F24413C2F2004303EB42129060D8
:100500000B980A6803EB4212D0600E980D9A049182
:100510001146039305F044FD0E990C9A029008468B
:10052000114605F03DFD0B9909686FF001020A6163
:100530000B990190084604F04FFF0B990968009051
:10054000084608F079FC04990A68039B03EB421201
:1005500010610868400100221A50086803EB40103F
:100560004260086803EB40108068006842620868D7
:1005700003EB401080680068406A0A6803EB42128F
:100580009083086803EB401014301499159A00F01A
:1005900007F80498016801310160FFE70FB0F0BD72
:1005A00080B586B013468C4686460590049103922A
:1005B000059800280293CDF804C0CDF800E001D1E1
:1005C000FFE706E0049805990860039805994860DC
:1005D000FFE706B080BD000081B0EFF3108072B677
:1005E0000090FFE7FEE7000080B58EB001460C905A
:1005F000079101F071FA08900C98002805D1FFE7E7
:1006000001208DF8370000F0B8BC0C9890F8350048
:1006100002280ED0FFE70C9880214165FFE70C9877
:10062000002180F83410FFE701208DF8370000F03A
:10063000A4BC0C98006801211022C4F2020290426E
:10064000069100F0A380FFE70C98006801212822A2
:10065000C4F202029042069100F09880FFE70C98E5
:10066000006801214022C4F202029042069100F08B
:100670008D80FFE70C98006801215822C4F2020225
:100680009042069100F08280FFE70C9800680121FB
:100690007022C4F202029042069177D0FFE70C98D4
:1006A000006801218822C4F20202904206916DD0B6
:1006B000FFE70C9800680121A022C4F202029042D8
:1006C000069163D0FFE70C9800680121B822C4F2BC
:1006D00002029042069159D0FFE70C980068012170
:1006E00040F21042C4F20202904206914ED0FFE75F
:1006F0000C980068012140F22842C4F202029042A4
:10070000069143D0FFE70C980068012140F2404277
:10071000C4F202029042069138D0FFE70C980068BC
:10072000012140F25842C4F20202904206912DD0BB
:10073000FFE70C980068012140F27042C4F2020207
:100740009042069122D0FFE70C980068012140F208
:100750008842C4F202029042069117D0FFE70C983B
:100760000068012140F2A042C4F2020290420691C8
:100770000CD0FFE70C9800684FF64831CBF6FD71BE
:100780000844B0FA80F040090690FFE70698C007D9
:10079000002810D0FFE70C980068016821F01E01C6
:1007A00001600C980068416921F0800141610C985A
:1007B0000068099009E00C980068016821F00E01BA
:1007C00001600C9800680990FFE70C98006801210F
:1007D0001022C4F202029042059100F00381FFE76B
:1007E0000C98006801212822C4F20202904205916F
:1007F00000F0F880FFE70C98006801214022C4F265
:1008000002029042059100F0ED80FFE70C9800682D
:1008100001215822C4F202029042059100F0E280C8
:10082000FFE70C98006801217022C4F20202904296
:10083000059100F0D780FFE70C980068012188221D
:10084000C4F202029042059100F0CC80FFE70C98C0
:1008500000680121A022C4F202029042059100F03A
:10086000C180FFE70C9800680121B822C4F202029F
:100870009042059100F0B680FFE70C9800680121D6
:1008800040F21042C4F202029042059100F0AA80A8
:10089000FFE70C980068012140F22842C4F20202EE
:1008A0009042059100F09E80FFE70C9800680121BE
:1008B00040F24042C4F202029042059100F0928060
:1008C000FFE70C980068012140F25842C4F202028E
:1008D0009042059100F08680FFE70C9800680121A6
:1008E00040F27042C4F20202904205917AD0FFE7D2
:1008F0000C980068012140F28842C4F20202904242
:1009000005916FD0FFE70C980068012140F2A042EA
:10091000C4F202029042059164D0FFE70C9800688F
:10092000012140F2B842C4F202029042059159D02E
:10093000FFE70C980068012145F20842C5F6020263
:10094000904205914ED0FFE70C980068012145F2D6
:100950001C42C5F602029042059143D0FFE70C9875
:100960000068012145F23042C5F60202904205912D
:1009700038D0FFE70C980068012145F24442C5F6E3
:100980000202904205912DD0FFE70C9800680121EA
:1009900045F25842C5F602029042059122D0FFE787
:1009A0000C980068012145F26C42C5F602029042A3
:1009B000059117D0FFE70C980068012145F28042AD
:1009C000C5F60202904205910CD0FFE70C98006832
:1009D0004AF66C31CAF2FD710844B0FA80F0400961
:1009E0000590FFE70598C007002807D0FFE70C989F
:1009F000006E016821F480710160FFE70C980068C7
:100A00001021C4F20201884200F08180FFE70C98B7
:100A100000682821C4F20201884278D0FFE70C98D0
:100A200000684021C4F20201884270D0FFE70C98B0
:100A300000685821C4F20201884268D0FFE70C9890
:100A400000687021C4F20201884260D0FFE70C9870
:100A500000688821C4F20201884258D0FFE70C9850
:100A60000068A021C4F20201884250D0FFE70C9830
:100A70000068B821C4F20201884248D0FFE70C9810
:100A8000006840F21041C4F2020188423FD0FFE703
:100A90000C98006840F22841C4F20201884236D026
:100AA000FFE70C98006840F24041C4F2020188421E
:100AB0002DD0FFE70C98006840F25841C4F20201C3
:100AC000884224D0FFE70C98006840F27041C4F2DD
:100AD000020188421BD0FFE70C98006840F2884171
:100AE000C4F20201884212D0FFE70C98006840F27D
:100AF000A041C4F20201884209D0FFE70C980068C7
:100B000040F2B841C4F20201884209D1FFE70C98D3
:100B10000068016821F001010A460160049208E0C2
:100B20000C980068016821F001010A4601600392F7
:100B3000FFE7FFE709980068C00700281BD0FFE720
:100B400000F0CAFFDDF820E0A0EB0E00062811D36C
:100B5000FFE70C98202141650C98032180F835109F
:100B6000FFE70C98002180F83410FFE701208DF892
:100B7000370002E2DEE70C98006801211022C4F27F
:100B800002029042029100F0A380FFE70C980068F7
:100B900001212822C4F202029042029100F09880C2
:100BA000FFE70C98006801214022C4F20202904243
:100BB000029100F08D80FFE70C9800680121582217
:100BC000C4F202029042029100F08280FFE70C988A
:100BD000006801217022C4F202029042029177D093
:100BE000FFE70C98006801218822C4F202029042BB
:100BF00002916DD0FFE70C9800680121A022C4F299
:100C000002029042029163D0FFE70C980068012134
:100C1000B822C4F202029042029159D0FFE70C9828
:100C20000068012140F21042C4F202029042029197
:100C30004ED0FFE70C980068012140F22842C4F230
:100C400002029042029143D0FFE70C980068012114
:100C500040F24042C4F202029042029138D0FFE7D3
:100C60000C980068012140F25842C4F202029042FE
:100C700002912DD0FFE70C980068012140F27042EC
:100C8000C4F202029042029122D0FFE70C98006861
:100C9000012140F28842C4F202029042029117D030
:100CA000FFE70C980068012140F2A042C4F2020262
:100CB000904202910CD0FFE70C9800684FF6483143
:100CC000CBF6FD710844B0FA80F040090290FFE7CE
:100CD0000298C00700280DD0FFE70C98806D0B909C
:100CE0000C98C06D00F01F003F2101FA00F00B9935
:100CF00088600CE00C98806D0A900C98C06D00F034
:100D00001F00012101FA00F00A994860FFE70C98E2
:100D1000006801211022C4F202029042019100F009
:100D20000381FFE70C98006801212822C4F2020227
:100D30009042019100F0F880FFE70C9800680121D3
:100D40004022C4F202029042019100F0ED80FFE7E0
:100D50000C98006801215822C4F2020290420191CD
:100D600000F0E280FFE70C98006801217022C4F2D5
:100D700002029042019100F0D780FFE70C980068D2
:100D800001218822C4F202029042019100F0CC803D
:100D9000FFE70C9800680121A022C4F202029042F1
:100DA000019100F0C180FFE70C9800680121B82292
:100DB000C4F202029042019100F0B680FFE70C9865
:100DC0000068012140F21042C4F2020290420191F7
:100DD00000F0AA80FFE70C980068012140F2284249
:100DE000C4F202029042019100F09E80FFE70C984D
:100DF0000068012140F24042C4F202029042019197
:100E000000F09280FFE70C980068012140F2584200
:100E1000C4F202029042019100F08680FFE70C9834
:100E20000068012140F27042C4F202029042019136
:100E30007AD0FFE70C980068012140F28842C4F2A2
:100E40000202904201916FD0FFE70C9800680121E7
:100E500040F2A042C4F202029042019164D0FFE746
:100E60000C980068012140F2B842C4F2020290429C
:100E7000019159D0FFE70C980068012145F2084222
:100E8000C5F60202904201914ED0FFE70C9800682F
:100E9000012145F21C42C5F602029042019143D065
:100EA000FFE70C980068012145F23042C5F60202C6
:100EB0009042019138D0FFE70C980068012145F27B
:100EC0004442C5F60202904201912DD0FFE70C98F2
:100ED0000068012145F25842C5F602029042019194
:100EE00022D0FFE70C980068012145F26C42C5F65C
:100EF00002029042019117D0FFE70C98006801218F
:100F000045F28042C5F60202904201910CD0FFE703
:100F10000C9800684AF66C31CAF2FD710844B0FAC8
:100F200080F040090190FFE70198C007002815D024
:100F3000FFE70C98416E806E48600C98C06E0028E8
:100F40000BD0FFE70C98C06E016821F4807101603E
:100F50000C98016F406F4860FFE7FFE70C98012194
:100F600080F83510FFE70C98002180F83410FFE777
:100F7000FFE700208DF83700FFE79DF837000EB03F
:100F800080BD00000000000080B58AB001460890D6
:100F900008980028069104D1FFE701208DF827006A
:100FA00052E3089890F83500022807D0FFE7089828
:100FB0008021416501208DF8270045E308980068ED
:100FC00001211022C4F202029042059100F0A38098
:100FD000FFE70898006801212822C4F2020290422B
:100FE000059100F09880FFE70898006801214022F1
:100FF000C4F202029042059100F08D80FFE708984C
:10100000006801215822C4F202029042059100F0CA
:101010008280FFE70898006801217022C4F2020272
:101020009042059177D0FFE7089800680121882257
:10103000C4F20202904205916DD0FFE70898006863
:101040000121A022C4F202029042059163D0FFE781
:10105000089800680121B822C4F20202904205916A
:1010600059D0FFE708980068012140F21042C4F20D
:101070000202904205914ED0FFE7089800680121D6
:1010800040F22842C4F202029042059143D0FFE7A9
:1010900008980068012140F24042C4F202029042E6
:1010A000059138D0FFE708980068012140F25842C6
:1010B000C4F20202904205912DD0FFE70898006823
:1010C000012140F27042C4F202029042059122D006
:1010D000FFE708980068012140F28842C4F202024A
:1010E0009042059117D0FFE708980068012140F26F
:1010F000A042C4F20202904205910CD0FFE708988A
:1011000000684FF64831CBF6FD710844B0FA80F024
:1011100040090590FFE70598C007002800F0A1806E
:10112000FFE70898042180F835100898006810211E
:10113000C4F20201884200F08180FFE7089800684D
:101140002821C4F20201884278D0FFE7089800689D
:101150004021C4F20201884270D0FFE7089800687D
:101160005821C4F20201884268D0FFE7089800685D
:101170007021C4F20201884260D0FFE7089800683D
:101180008821C4F20201884258D0FFE7089800681D
:10119000A021C4F20201884250D0FFE708980068FD
:1011A000B821C4F20201884248D0FFE708980068DD
:1011B00040F21041C4F2020188423FD0FFE7089894
:1011C000006840F22841C4F20201884236D0FFE7AD
:1011D0000898006840F24041C4F2020188422DD0D4
:1011E000FFE70898006840F25841C4F202018842C3
:1011F00024D0FFE70898006840F27041C4F2020171
:1012000088421BD0FFE70898006840F28841C4F28A
:101210000201884212D0FFE70898006840F2A0411E
:10122000C4F20201884209D0FFE70898006840F242
:10123000B841C4F20201884209D1FFE7089800686A
:10124000016821F001010A460160049208E0089853
:101250000068016821F001010A4601600392FFE77E
:10126000EDE108980068016821F00E01016008981E
:1012700000681021C4F20201884200F08180FFE77B
:10128000089800682821C4F20201884278D0FFE75C
:10129000089800684021C4F20201884270D0FFE73C
:1012A000089800685821C4F20201884268D0FFE71C
:1012B000089800687021C4F20201884260D0FFE7FC
:1012C000089800688821C4F20201884258D0FFE7DC
:1012D00008980068A021C4F20201884250D0FFE7BC
:1012E00008980068B821C4F20201884248D0FFE79C
:1012F0000898006840F21041C4F2020188423FD0D1
:10130000FFE70898006840F22841C4F202018842D1
:1013100036D0FFE70898006840F24041C4F202016D
:1013200088422DD0FFE70898006840F25841C4F287
:101330000201884224D0FFE70898006840F270411B
:10134000C4F2020188421BD0FFE70898006840F20F
:101350008841C4F20201884212D0FFE70898006871
:1013600040F2A041C4F20201884209D0FFE7089888
:10137000006840F2B841C4F20201884209D1FFE797
:1013800008980068016821F001010A460160029294
:1013900008E008980068016821F001010A46016030
:1013A0000192FFE70898006801211022C4F20202AE
:1013B0009042009100F00381FFE708980068012146
:1013C0002822C4F202029042009100F0F880FFE768
:1013D0000898006801214022C4F202029042009164
:1013E00000F0ED80FFE70898006801215822C4F260
:1013F00002029042009100F0E280FFE70898006846
:1014000001217022C4F202029042009100F0D780C4
:10141000FFE70898006801218822C4F20202904286
:10142000009100F0CC80FFE7089800680121A0221D
:10143000C4F202029042009100F0C180FFE70898D8
:1014400000680121B822C4F202029042009100F02B
:10145000B680FFE708980068012140F21042C4F20C
:1014600002029042009100F0AA80FFE7089800680D
:10147000012140F22842C4F202029042009100F0A1
:101480009E80FFE708980068012140F24042C4F2C4
:1014900002029042009100F09280FFE708980068F5
:1014A000012140F25842C4F202029042009100F041
:1014B0008680FFE708980068012140F27042C4F27C
:1014C0000202904200917AD0FFE70898006801215B
:1014D00040F28842C4F20202904200916FD0FFE7CE
:1014E00008980068012140F2A042C4F20202904232
:1014F000009164D0FFE708980068012140F2B842EB
:10150000C4F202029042009159D0FFE708980068A7
:10151000012145F20842C5F60202904200914ED0E8
:10152000FFE708980068012145F21C42C5F6020257
:101530009042009143D0FFE708980068012145F2EE
:101540003042C5F602029042009138D0FFE7089879
:101550000068012145F24442C5F602029042009122
:101560002DD0FFE708980068012145F25842C5F6E2
:1015700002029042009122D0FFE708980068012102
:1015800045F26C42C5F602029042009117D0FFE787
:1015900008980068012145F28042C5F60202904297
:1015A00000910CD0FFE7089800684AF66C31CAF247
:1015B000FD710844B0FA80F040090090FFE7009800
:1015C000C007002827D0FFE70898006E016821F4C3
:1015D000807101600898806D07900898C06D00F0D8
:1015E0001F00012101FA00F0079948600898416E38
:1015F000806E48600898C06E00280BD0FFE70898FE
:10160000C06E016821F4807101600898016F406F1D
:101610004860FFE7FFE70898012180F83510FFE7F1
:101620000898002180F83410FFE70898006D002822
:1016300004D0FFE70898016D8847FFE7FFE7FFE761
:1016400000208DF82700FFE79DF827000AB080BD35
:1016500080B584B001460390009100F03DFA0290FD
:101660000398019001980130002809D0FFE740F26B
:101670004000C2F200400078019908440190FFE761
:10168000FFE700F029FADDF808E0A0EB0E00DDF836
:1016900004E0704501D2FFE7F3E704B080BD00002D
:1016A00093B00A46034612901191002010908020BA
:1016B000C5F600000D900B920A93FFE711980068A1
:1016C0001099C840002800F0D681FFE71198006803
:1016D0001099012202FA01F108400F900F9800289A
:1016E00000F0C581FFE71198406800F00300012871
:1016F00007D0FFE71198406800F0030002282FD1BF
:10170000FFE7129880680E9010984000032101FABC
:1017100000F00E9921EA00000E901198C06810990F
:10172000490088400E9908430E900E9812998860DF
:10173000129840680E901098012101FA00F00E995D
:1017400021EA00000E9011984068C0F30010109933
:1017500088400E9908430E900E9812994860FFE752
:101760001198406800F00300032818D0FFE7129892
:10177000C0680E9010984000032101FA00F00E9905
:1017800021EA00000E901198806810994900884065
:101790000E9908430E900E981299C860FFE71198B1
:1017A000406800F00300022826D1FFE71298109944
:1017B0006FF0030202EA51010844006A0E9010988B
:1017C00000F0070080000F2101FA00F00E9921EAD5
:1017D00000000E9011980069109901F0070189002E
:1017E00088400E9908430E900E981299109B02EAB9
:1017F000530211440862FFE7129800680E90109897
:101800004000032101FA00F00E9921EA00000E9039
:101810001198406800F003001099490088400E9923
:1018200008430E900E9812990860119880798007ED
:10183000002800F01B81FFE7FFE744F2F440C5F603
:101840000200016841F002010160006800F002003E
:101850000C900C980990FFE7109820F0030040F2DC
:101860000841C5F6000140580E90109800F00300A2
:1018700080000F2101FA00F00E9921EA00000E907D
:1018800012980021C5F60201884203D1FFE700202B
:1018900008907AE0129840F20041C5F602018842B1
:1018A00003D1FFE7012007906CE0129840F6000199
:1018B000C5F60201884203D1FFE7022006905EE0F0
:1018C000129840F60041C5F60201884203D1FFE7B5
:1018D0000320059050E0129841F20001C5F6020184
:1018E000884203D1FFE70420049042E0129841F2BD
:1018F0000041C5F60201884203D1FFE705200390AD
:1019000034E0129841F60001C5F60201884203D185
:10191000FFE70620029026E0129841F60041C5F646
:101920000201884203D1FFE70720019018E01298D6
:1019300042F20001C5F60201884203D1FFE7082008
:1019400000900AE0129842F20041C5F602010A2214
:10195000884208BF09220092FFE700980190FFE744
:1019600001980290FFE702980390FFE70398049024
:10197000FFE704980590FFE705980690FFE70698B3
:101980000790FFE707980890FFE70898109901F083
:101990000301890088400E9908430E900E98109913
:1019A00021F0030140F20842C5F6000288504FF0D2
:1019B000B04000680E900F980E9921EA00000E903A
:1019C00011988079C006002805D5FFE70F980E9979
:1019D00008430E90FFE70E984FF0B04108600420D6
:1019E000C5F6000000680E900F980E9921EA0000DD
:1019F0000E90119880798006002805D5FFE70F9892
:101A00000E9908430E90FFE70E980421C5F60001D9
:101A100008600D9840680E900F980E9921EA00001A
:101A20000E90119880798007002805D5FFE70F9860
:101A30000E9908430E90FFE70E980D9948600D9897
:101A400000680E900F980E9921EA00000E901198F0
:101A50008079C007002805D0FFE70F980E9908434A
:101A60000E90FFE70E980D990860FFE7FFE71098CA
:101A70000130109022E613B0704700000000000013
:101A800080B585B013468C4686460490ADF80E109E
:101A90008DF80D209DF80D0000280293CDF804C0AC
:101AA000CDF800E005D0FFE7BDF80E00049988618D
:101AB00005E0BDF80E00000404998861FFE705B059
:101AC00080BD00000000000041F20000C5F60040AB
:101AD0000068000C7047000040F63400C2F200407D
:101AE000006870470000000085B00A460346039076
:101AF0000291039890F841002028019200933BD175
:101B0000FFE7FFE7039890F84000012804D1FFE7C2
:101B100002208DF8130033E00398012180F8401073
:101B2000FFE7FFE70398242180F84110039800683D
:101B3000016821F00101016003980068016821F447
:101B4000805101600298039909680A68104308608F
:101B500003980068016841F00101016003982021A9
:101B600080F84110FFE70398002180F84010FFE75C
:101B700000208DF8130003E002208DF81300FFE72A
:101B80009DF8130005B0704786B00A4603460490DE
:101B90000391049890F8410020280192009340D1CD
:101BA000FFE7FFE7049890F84000012804D1FFE721
:101BB00002208DF8170038E00498012180F84010C9
:101BC000FFE7FFE70498242180F84110049800689B
:101BD000016821F00101016004980068006802902A
:101BE000029820F4706002900398029941EA002064
:101BF00002900298049909680860049800680168D6
:101C000041F0010101600498202180F84110FFE7B4
:101C10000498002180F84010FFE700208DF817009D
:101C200003E002208DF81700FFE79DF8170006B0CB
:101C3000704700000000000080B584B001460290AB
:101C400002980028019104D1FFE701208DF80F00D0
:101C500074E0029890F84100002808D1FFE702984C
:101C6000002180F84010029800F0C6F9FFE70298C2
:101C7000242180F8411002980068016821F00101D8
:101C8000016002980168406820F070600861029865
:101C90000068816821F4004181600298C0680128D1
:101CA00007D1FFE702980168806840F4004088602F
:101CB00006E002980168806840F404408860FFE70D
:101CC0000298C068022806D1FFE7029800684FF426
:101CD00000614160FFE702980068416848F2000235
:101CE000C0F200221143416002980068C16821F4EB
:101CF0000041C160029801680269436980691A4322
:101D000042EA0020C86002980168C269006A104374
:101D1000086002980068016841F0010101600298C2
:101D2000002141640298202280F84120029801633A
:101D3000029880F842108DF80F10FFE79DF80F0011
:101D400004B080BD000000002DE9F0418EB0DDF848
:101D500058C0DDF854E0149C1D4616460F468046D8
:101D60000C90ADF82E10ADF82C20ADF82A30ADF85F
:101D700028E00C9890F841002028089507960697CF
:101D8000CDF81480CDF810C0039440F02B81FFE70C
:101D90001498002805D0FFE7BDF82800002808D1D6
:101DA000FFE70C984FF40071416401208DF8370073
:101DB0001CE1FFE70C9890F84000012804D1FFE7F0
:101DC00002208DF8370011E10C98012180F84010B5
:101DD000FFE7FFE7FFF780FE09900C98DDF824E0AD
:101DE0006946C1F800E04FF400410122192305F0D3
:101DF00073FD002804D0FFE701208DF83700F5E0DF
:101E00000C98212180F841100C98402180F8421054
:101E10000C980021416414980C9A5062BDF8280077
:101E20000C9A50850C9841630C98BDF82E10BDF8A3
:101E30002C20BDF82A30DDF858C0DDF824E06C46CF
:101E4000C4F804E0C4F800C005F09AFC00280AD0E9
:101E5000FFE7FFE70C98002180F84010FFE7012022
:101E60008DF83700C2E00C98408DB0F5807F12D31A
:101E7000FFE70C98FF2101850C98BDF82E1090F813
:101E800028206B464FF0000CC3F800C04FF0807361
:101E900005F0EAFC12E00C98408D0C9908850C982E
:101EA000BDF82E1090F828206B464FF0000CC3F8B8
:101EB00000C04FF0007305F0D7FCFFE7FFE70C9878
:101EC0001699099A05F0D0FD002804D0FFE70120FB
:101ED0008DF837008AE00C980168406A00788862C3
:101EE0000C98416A013141620C98418D013941855C
:101EF0000C98018D013901850C98408D002841D046
:101F0000FFE70C98008D00283CD1FFE70C98169B4A
:101F100009996A4611608021002205F0DDFC002845
:101F200004D0FFE701208DF837005FE00C98408D6A
:101F3000B0F5807F12D3FFE70C98FF2101850C9844
:101F4000BDF82E1090F828206B464FF0000CC3F817
:101F500000C04FF0807305F087FC12E00C98408DB4
:101F60000C9908850C98BDF82E1090F828206B4627
:101F70004FF0000CC3F800C04FF0007305F074FC84
:101F8000FFE7FFE7FFE70C98408D002897D1FFE7B8
:101F90000C981699099A05F007FD002804D0FFE770
:101FA00001208DF8370021E00C9800682021C161E4
:101FB0000C98006842684EF60003CFF600631A40A2
:101FC00042600C9880F841100C98002180F8421073
:101FD000FFE70C98002180F84010FFE700208DF803
:101FE000370003E002208DF83700FFE79DF8370047
:101FF0000EB0BDE8F081000080B5C0B001463F9052
:1020000000203E903D903C903B903A900AA8C02220
:1020100005911146FEF794F93F98006845F200419A
:10202000C4F2000188423FD1FFE700200B90082155
:102030000A912B900AA800F013FD002803D0FFE7B7
:10204000FEF7CAFAFFE7FFE744F2E040C5F60200F8
:10205000016841F002010160006800F0020009908F
:1020600009980490FFE7C0203A9012203B9000208E
:102070003C903D9004203E9040F20040C5F60200A6
:102080003AA9FFF70DFBFFE744F2E840C5F602006E
:10209000016841F400110160006800F4001008902C
:1020A00008980390FFE749E03F98006845F6000173
:1020B000C4F20001884240D1FFE700200B900821C4
:1020C0000A912B900AA800F0CBFC002803D0FFE770
:1020D000FEF782FAFFE7FFE744F2E040C5F60200B0
:1020E000016841F002010160006800F00200079001
:1020F00007980290FFE74FF440603A9012203B901F
:1021000000203C903D9004203E9040F20040C5F6F7
:1021100002003AA9FFF7C4FAFFE744F2E840C5F627
:102120000200016841F480010160006800F4800051
:10213000069006980190FFE7FFE7FFE740B080BDFB
:1021400040F24000C2F20040007840F63401C2F292
:1021500000410A6810440860704700000000000059
:1021600080B582B0032000F047F901F0B9FF44F2D6
:10217000184EC5F6020EDEF80010C1F303214CF232
:10218000A872C0F60002515C01F01F01C840009027
:102190000098DEF8001001F00F01515C01F01F0102
:1021A000C84040F22001C2F200410860009840F2AD
:1021B0001C01C2F200410860002000F015F8002860
:1021C00004D0FFE701208DF8070006E000F0D0F80A
:1021D0004FF0000E8DF807E0FFE79DF8070002B012
:1021E00080BD00000000000080B584B00146029070
:1021F00040F24000C2F2004000780028019104D172
:10220000FFE701208DF80F0031E040F21C00C2F220
:102210000040006840F24001C2F2004109784FF4EA
:102220007A72B2FBF1F1B0FBF1F002F0C1FE0028CE
:1022300004D0FFE701208DF80F0018E002980F2866
:102240000DD8FFE702994FF0FF30002200F0B0F800
:10225000029840F24401C2F20041086003E001200C
:102260008DF80F0003E000208DF80F00FFE79DF8C8
:102270000F0004B080BD000080B582B0014601901F
:10228000019840784EF69852CEF200021060019804
:102290000078002800912BD0FFE7019840684EF6A7
:1022A0009C51CEF2000108600198017B0907C27AB7
:1022B00041EA02610278037A90F809C090F80AE0D6
:1022C00041EACE4190F80DE041EA8E4190F80EE0EF
:1022D00041EA4E41C07B41EA004040EA0C2040EA1E
:1022E000430010434EF6A051CEF2000108600BE00F
:1022F0004EF69C50CEF20000002101604EF6A05038
:10230000CEF200000160FFE702B080BD00000000D7
:10231000BFF35F8F4EF62450CEF20000016821F427
:10232000803101604EF69450CEF200000021016031
:10233000704700000000000082B001460190019843
:1023400040F001004EF69452CEF2000210604EF6BC
:102350002450CEF20000026842F480320260BFF3E3
:102360004F8FBFF36F8F009102B0704700000000E5
:1023700082B0FFE744F2F440C5F60200016841F084
:1023800002010160006800F00200019001980090D5
:10239000FFE702B07047000080B582B00146ADF89B
:1023A0000600BDF90600009109F07AFC02B080BD7C
:1023B00080B58AB013468C468646ADF82600089153
:1023C00007920593CDF810C0CDF80CE009F084FC1D
:1023D0000690BDF926000699089A079B02900846C8
:1023E00011461A4606F0B8F902990190084601997B
:1023F00009F07AFC0AB080BD80B582B00146019038
:102400000198009109F098FC02B080BD0000000026
:1024100080B584B00146029044F60C00C5F6020077
:10242000006800F004000022B2EB900F009113D17D
:10243000FFE744F60C00C5F60200006800F0070054
:102440000299884204D0FFE701208DF80F0030E0A8
:1024500000208DF80F002CE044F60C00C5F60200B9
:10246000016821F00701029A11430160FFF734FB74
:102470000190FFE744F60400C5F60200006800F48E
:1024800000500021B1EB503F0FD1FFE7FFF724FBD5
:10249000DDF804E0A0EB0E00B0F57A7F04D9FFE789
:1024A00001208DF80F0004E0E4E700208DF80F0014
:1024B000FFE79DF80F0004B080BD000000000000A1
:1024C00080B501F0B1FD44F2204EC5F6020EDEF8F3
:1024D00000E0CEF3021E4CF2A871C0F6000111F824
:1024E0000E1001F01F01C84080BD00000000000078
:1024F00089B00146089044F22840C5F602000268FF
:1025000002F0030207920068C0F30530069044F21F
:102510002C40C5F602000068C0F300100590059835
:1025200044F23C42C5F60202126892B2D20850430D
:1025300000EE100AB8EE400A8DED030A0698002856
:10254000019100F01D81FFE707980028009009D055
:10255000FFE7009801286AD0FFE70098022800F002
:102560008A80ACE044F20040C5F60200006800F04A
:1025700020000021B1EB501F34D0FFE744F20040AF
:10258000C5F602000068C0F3C10049F20001C0F2C4
:10259000D03121FA00F004909DED040AB8EE400A13
:1025A0009DED061AB8EE411A80EE010A44F2384059
:1025B000C5F6020000686FF35F2001EE100AB8EE66
:1025C000411A9DED032A9FED743A82EE032A31EE03
:1025D000021AB7EE002A31EE021A20EE010A8DED42
:1025E000020A23E09DED060AB8EE400A9FED6C1A40
:1025F00081EE000A44F23840C5F6020000686FF32D
:102600005F2001EE100AB8EE411A9DED032A9FEDFE
:10261000623A82EE032A31EE021AB7EE002A31EE58
:10262000021A20EE010A8DED020AFFE76BE09DED34
:10263000060AB8EE400A9FED591A81EE000A44F2EC
:102640003840C5F6020000686FF35F2001EE100A03
:10265000B8EE411A9DED032A9FED4F3A82EE032A10
:1026600031EE021AB7EE002A31EE021A20EE010A0C
:102670008DED020A47E09DED060AB8EE400A9FED97
:10268000451A81EE000A44F23840C5F6020000689F
:102690006FF35F2001EE100AB8EE411A9DED032A98
:1026A0009FED3D3A82EE032A31EE021AB7EE002A80
:1026B00031EE021A20EE010A8DED020A23E09DEDB3
:1026C000060AB8EE400A9FED351A81EE000A44F280
:1026D0003840C5F6020000686FF35F2001EE100A73
:1026E000B8EE411A9DED032A9FED2B3A82EE032AA4
:1026F00031EE021AB7EE002A31EE021A20EE010A7C
:102700008DED020AFFE79DED020A44F23840C5F65E
:102710000200016889B2490A01EE101AB8EE411AA6
:10272000B7EE002A31EE021A80EE010A0899BCEEDB
:10273000C00A81ED000A9DED020A0168C1F306415D
:1027400001EE101AB8EE411A31EE021A80EE010ABB
:102750000899BCEEC00A81ED010A9DED020A0068ED
:10276000C0F3066001EE100AB8EE411A31EE021A0B
:1027700080EE010A0898BCEEC00A80ED020A07E06C
:102780000898002101600898416008988160FFE77F
:1027900009B0704720BCBE4B000000460024744ABC
:1027A0000024744C0000000089B00146089044F2F7
:1027B0002840C5F60200026802F003020792006892
:1027C000C0F30550069044F22C40C5F602000068A4
:1027D000C0F300200590059844F24442C5F6020279
:1027E000126892B2D208504300EE100AB8EE400AC6
:1027F0008DED030A06980028019100F01D81FFE786
:1028000007980028009009D0FFE7009801286AD0B7
:10281000FFE70098022800F08A80ACE044F2004014
:10282000C5F60200006800F020000021B1EB501F47
:1028300034D0FFE744F20040C5F602000068C0F360
:10284000C10049F20001C0F2D03121FA00F0049039
:102850009DED040AB8EE400A9DED061AB8EE411A45
:1028600080EE010A44F24040C5F6020000686FF3B2
:102870005F2001EE100AB8EE411A9DED032A9FED8C
:10288000743A82EE032A31EE021AB7EE002A31EED4
:10289000021A20EE010A8DED020A23E09DED060AE0
:1028A000B8EE400A9FED6C1A81EE000A44F24040F7
:1028B000C5F6020000686FF35F2001EE100AB8EE63
:1028C000411A9DED032A9FED623A82EE032A31EE12
:1028D000021AB7EE002A31EE021A20EE010A8DED3F
:1028E000020AFFE76BE09DED060AB8EE400A9FED95
:1028F000591A81EE000A44F24040C5F60200006811
:102900006FF35F2001EE100AB8EE411A9DED032A25
:102910009FED4F3A82EE032A31EE021AB7EE002AFB
:1029200031EE021A20EE010A8DED020A47E09DED1C
:10293000060AB8EE400A9FED451A81EE000A44F2FD
:102940004040C5F6020000686FF35F2001EE100AF8
:10295000B8EE411A9DED032A9FED3D3A82EE032A1F
:1029600031EE021AB7EE002A31EE021A20EE010A09
:102970008DED020A23E09DED060AB8EE400A9FEDB8
:10298000351A81EE000A44F24040C5F602000068A4
:102990006FF35F2001EE100AB8EE411A9DED032A95
:1029A0009FED2B3A82EE032A31EE021AB7EE002A8F
:1029B00031EE021A20EE010A8DED020AFFE79DEDCD
:1029C000020A44F24040C5F60200016889B2490A91
:1029D00001EE101AB8EE411AB7EE002A31EE021AD3
:1029E00080EE010A0899BCEEC00A81ED000A9DED57
:1029F000020A0168C1F3064101EE101AB8EE411A4D
:102A000031EE021A80EE010A0899BCEEC00A81ED8F
:102A1000010A9DED020A0068C0F3066001EE100A8B
:102A2000B8EE411A31EE021A80EE010A0898BCEEA7
:102A3000C00A80ED020A07E00898002101600898AA
:102A4000416008988160FFE709B0704720BCBE4B29
:102A5000000000460024744A0024744C000000006A
:102A600080B59EB001461C9000208DF867008DF85F
:102A700066001C98C0780007002818914AD5FFE727
:102A80001C98806E002817900FD0FFE71798B0F5BC
:102A9000801F13D0FFE71798B0F5001F16D0FFE78F
:102AA0001798B0F5401F19D019E044F22C40C5F634
:102AB0000200016841F40031016014E01C98083004
:102AC000022105F0E1FF8DF867000CE01C9828302A
:102AD000022106F0C5F88DF8670004E003E001204C
:102AE0008DF86700FFE79DF8670000280CD1FFE72D
:102AF00044F25040C5F60200016821F440111C9ACE
:102B0000926E1143016004E09DF867008DF8660045
:102B1000FFE7FFE71C984078C007002841D0FFE797
:102B20001C98806D0428169020D81699DFE801F0D3
:102B3000030C141C1D0044F22C40C5F60200016871
:102B400041F40031016015E01C980830002105F0C7
:102B50009BFF8DF867000DE01C982830002106F0DF
:102B60007FF88DF8670005E004E003E001208DF8B0
:102B70006700FFE79DF8670000280CD1FFE744F2EB
:102B80005040C5F60200016821F007011C9A926DC1
:102B90001143016004E09DF867008DF86600FFE7CF
:102BA000FFE71C984078800700284DD5FFE71C9868
:102BB000C06D0028159011D0FFE71598402816D059
:102BC000FFE7159880281AD0FFE71598C0281ED077
:102BD000FFE71598B0F5807F1AD01AE044F22C4038
:102BE000C5F60200016841F40031016015E01C984F
:102BF0000830002105F048FF8DF867000DE01C98B3
:102C00002830002106F02CF88DF8670005E004E07C
:102C100003E001208DF86700FFE79DF867000028BA
:102C20000CD1FFE744F25040C5F60200016821F4E0
:102C3000E0711C9AD26D1143016004E09DF86700B9
:102C40008DF86600FFE7FFE71C98407840070028F2
:102C500052D5FFE71C98D0F8A8000028149014D093
:102C6000FFE71498B0F5001F18D0FFE71498B0F5EF
:102C7000800F1BD0FFE71498B0F5C00F1ED0FFE700
:102C80001498B0F5000F1AD01AE044F22C40C5F6A3
:102C90000200016841F40031016015E01C98083021
:102CA000002105F0F1FE8DF867000DE01C9828303A
:102CB000002105F0D5FF8DF8670005E004E003E092
:102CC00001208DF86700FFE79DF8670000280DD10F
:102CD000FFE744F25840C5F60200016821F46001A4
:102CE0001C9AD2F8A8201143016004E09DF8670007
:102CF0008DF86600FFE7FFE71C9840780007002882
:102D000052D5FFE71C98D0F8AC000028139014D0DF
:102D1000FFE71398B0F1807F18D0FFE71398B0F168
:102D2000007F1BD0FFE71398B0F1407F1ED0FFE774
:102D30001398B0F1806F1AD01AE044F22C40C5F617
:102D40000200016841F40031016015E01C98083070
:102D5000002105F099FE8DF867000DE01C982830E1
:102D6000002105F07DFF8DF8670005E004E003E039
:102D700001208DF86700FFE79DF8670000280DD15E
:102D8000FFE744F25840C5F60200016821F0E06117
:102D90001C9AD2F8AC201143016004E09DF8670052
:102DA0008DF86600FFE7FFE71C98C07880070028D1
:102DB00040D5FFE71C98C06C002812901ED0FFE79A
:102DC0001298102808D0FFE7129820280DD0FFE7AE
:102DD0001298302811D012E044F22C40C5F60200BF
:102DE000016841F4003101600DE01C9808300221B7
:102DF00005F04AFE8DF8670005E004E003E00120DD
:102E00008DF86700FFE79DF8670000280CD1FFE709
:102E100044F24C40C5F60200016821F030011C9AD2
:102E2000D26C1143016004E09DF867008DF86600E4
:102E3000FFE7FFE71C984078C006002850D5FFE761
:102E40001C98006E0028119014D0FFE71198B0F57F
:102E5000805F18D0FFE71198B0F5005F1BD0FFE747
:102E60001198B0F5405F1ED0FFE71198B0F5804F84
:102E70001AD01AE044F22C40C5F60200016841F471
:102E80000031016015E01C980830002105F0FCFDC0
:102E90008DF867000DE01C982830002105F0E0FE59
:102EA0008DF8670005E004E003E001208DF867007D
:102EB000FFE79DF8670000280CD1FFE744F250407F
:102EC000C5F60200016821F4E0411C9A126E11431C
:102ED000016004E09DF867008DF86600FFE7FFE7FA
:102EE0001C984078800600284ED5FFE71C98406E5D
:102EF0000028109019D0FFE71098B0F5803F15D04A
:102F0000FFE71098B0F5003F18D0FFE71098B0F534
:102F1000403F1BD0FFE71098B0F5802F17D0FFE798
:102F20001098B0F5A02F13D013E016E01C980830CD
:102F3000012105F0A9FD8DF867000EE01C982830EE
:102F4000012105F08DFE8DF8670006E005E004E044
:102F500003E001208DF86700FFE79DF86700002877
:102F60000CD1FFE744F25040C5F60200016821F49D
:102F7000E0211C9A526E1143016004E09DF8670045
:102F80008DF86600FFE7FFE71C98407840060028B0
:102F900050D5FFE71C98D0F8B00000280F9019D04A
:102FA000FFE70F98B0F1805F15D0FFE70F98B0F101
:102FB000005F18D0FFE70F98B0F1405F1BD0FFE72C
:102FC0000F98B0F1804F17D0FFE70F98B0F1A04FE6
:102FD00013D013E016E01C980830012105F054FDD1
:102FE0008DF867000EE01C982830012105F038FEAE
:102FF0008DF8670006E005E004E003E001208DF8AD
:103000006700FFE79DF8670000280DD1FFE744F255
:103010005840C5F60200016821F0E0411C9AD2F840
:10302000B0201143016004E09DF867008DF8660050
:10303000FFE7FFE71C984078000600283DD5FFE732
:103040001C98006F00280E901BD0FFE70E98B0F17F
:10305000805F05D0FFE70E98B0F1005F09D011E066
:1030600044F22C40C5F60200016841F400310160D1
:103070000CE01C980830012105F006FD8DF8670072
:1030800004E003E001208DF86700FFE79DF867008A
:1030900000280CD1FFE744F25040C5F60200016859
:1030A00021F040511C9A126F1143016004E09DF819
:1030B00067008DF86600FFE7FFE71C98C078C0073F
:1030C000002838D0FFE71C98806C03280D9017D893
:1030D0000D99DFE801F014020B1344F22C40C5F601
:1030E0000200016841F4003101600DE01C980830D5
:1030F000022105F0C9FC8DF8670005E004E003E05B
:1031000001208DF86700FFE79DF8670000280CD1CB
:10311000FFE744F24C40C5F60200016821F00301CC
:103120001C9A926C1143016004E09DF867008DF8D1
:103130006600FFE7FFE71C9880784006002840F112
:10314000BD80FFE744F60000C5F60200016841F4C7
:1031500080710160FEF7C0FC1A90FFE744F60000A2
:10316000C5F602000068C00500280ED4FFE7FEF790
:10317000B3FCDDF868E0A0EB0E00652804D3FFE7A0
:1031800003208DF8670000E0E8E79DF8670000285D
:1031900040F08E80FFE744F27040C5F60200006800
:1031A00000F440701C99D1F8B41001F440718842C9
:1031B00013D0FFE744F27040C5F60200016821F425
:1031C00040711B91016841F480310160016821F474
:1031D000803101601B990160FFE71C98D0F8B400B2
:1031E000B0F5807F21D1FFE7FEF776FC1A90FFE76C
:1031F00044F27040C5F60200006800F002000021B1
:10320000B1EB500F10D1FFE7FEF766FCDDF868E088
:10321000A0EB0E0041F2893E704504D3FFE7032086
:103220008DF8670000E0E3E7FFE79DF867000028FE
:1032300038D1FFE7FFE71C98D0F8B40000F44070E5
:10324000B0F5407F15D1FFE744F21040C5F602000B
:10325000016821F47C511C9AD2F8B4204FF6F04357
:10326000C0F6FF731A4041EA12110A4601600C923F
:103270000AE044F21040C5F60200016821F47C51D6
:103280000A4601600B92FFE71C98D0F8B4006FF378
:103290001F3044F27041C5F602010A68104308600D
:1032A000FFE704E09DF867008DF86600FFE704E0A3
:1032B0009DF867008DF86600FFE7FFE71C9800683F
:1032C000C007002800F04D80FFE71C98C06F282839
:1032D0000A902BD80A99DFE801F015292929292914
:1032E000292916292929292929291E29292929296C
:1032F0002929262929292929292927292929292943
:103300002929280016E01C980830012105F0BCFB93
:103310008DF867000EE01C982830012105F0A0FC14
:103320008DF8670006E005E004E003E001208DF879
:103330006700FFE79DF8670000280CD1FFE744F223
:103340005440C5F60200016821F038011C9AD26F82
:103350001143016004E09DF867008DF86600FFE707
:10336000FFE71C980078800700283AD5FFE71C98F3
:10337000806F0528099019D80999DFE801F0030446
:103380000C14151616E01C980830012105F07CFB82
:103390008DF867000EE01C982830012105F060FCD4
:1033A0008DF8670006E005E004E003E001208DF8F9
:1033B0006700FFE79DF8670000280CD1FFE744F2A3
:1033C0005440C5F60200016821F007011C9A926F73
:1033D0001143016004E09DF867008DF86600FFE787
:1033E000FFE71C980078400700283CD5FFE71C98B1
:1033F000D0F894000528089019D80899DFE801F062
:1034000003040C14151616E01C980830012105F071
:103410003BFB8DF867000EE01C982830012105F079
:103420001FFC8DF8670006E005E004E003E00120E2
:103430008DF86700FFE79DF8670000280DD1FFE7D2
:1034400044F25840C5F60200016821F007011C9AB9
:10345000D2F894201143016004E09DF867008DF8D4
:103460006600FFE7FFE71C9800788006002850D52B
:10347000FFE71C98D0F890000028079019D0FFE7CC
:103480000798B0F1805F15D0FFE70798B0F1005FB3
:1034900018D0FFE70798B0F1405F1BD0FFE707980F
:1034A000B0F1804F17D0FFE70798B0F1A04F13D0CD
:1034B00013E016E01C980830002105F0E5FA8DF8BD
:1034C00067000EE01C982830022105F0C9FB8DF83A
:1034D000670006E005E004E003E001208DF86700E6
:1034E000FFE79DF8670000280DD1FFE744F2544044
:1034F000C5F60200016821F0E0411C9AD2F8902044
:103500001143016004E09DF867008DF86600FFE755
:10351000FFE71C9800784006002850D5FFE71C986C
:10352000D0F89C000028069019D0FFE70698B0F567
:10353000806F15D0FFE70698B0F5006F18D0FFE751
:103540000698B0F5406F1BD0FFE70698B0F5805F96
:1035500017D0FFE70698B0F5A05F13D013E016E090
:103560001C980830002105F08FFA8DF867000EE0F6
:103570001C982830022105F073FB8DF8670006E0E7
:1035800005E004E003E001208DF86700FFE79DF807
:10359000670000280DD1FFE744F25840C5F602004D
:1035A000016821F4E0511C9AD2F89C20114301607B
:1035B00004E09DF867008DF86600FFE7FFE71C98C0
:1035C00000780006002850D5FFE71C98D0F8A0002E
:1035D0000028059019D0FFE70598B0F5005F15D0D9
:1035E000FFE70598B0F5804F18D0FFE70598B0F5D4
:1035F000C04F1BD0FFE70598B0F5004F17D0FFE78D
:103600000598B0F5204F13D013E016E01C98083051
:10361000002105F039FA8DF867000EE01C9828307B
:10362000022105F01DFB8DF8670006E005E004E0CF
:1036300003E001208DF86700FFE79DF86700002890
:103640000DD1FFE744F25840C5F60200016821F4AD
:1036500060411C9AD2F8A0201143016004E09DF85B
:1036600067008DF86600FFE7FFE71C980078000709
:10367000002821D5FFE71C98D0F88400B0F5805FC2
:103680000DD1FFE71C982830022105F0E9FA002847
:1036900004D0FFE701208DF86600FFE7FFE744F262
:1036A0005440C5F60200016821F440511C9AD2F83A
:1036B000842011430160FFE71C980078C0060028B1
:1036C00021D5FFE71C98D0F89800B0F5807F0DD188
:1036D000FFE71C982830022105F0C2FA002804D028
:1036E000FFE701208DF86600FFE7FFE744F258404E
:1036F000C5F60200016821F440711C9AD2F89820A6
:1037000011430160FFE71C988078000700283ED530
:10371000FFE71C98D0F8A400002804900AD0FFE727
:103720000498B0F5803F0DD0FFE70498B0F5003F56
:1037300010D010E01C980830002105F0A5F98DF894
:1037400067000CE01C982830022105F089FA8DF8FA
:10375000670004E003E001208DF86700FFE79DF8B3
:10376000670000280DD1FFE744F25840C5F602007B
:10377000016821F440311C9AD2F8A4201143016061
:1037800004E09DF867008DF86600FFE7FFE71C98EE
:1037900080784007002840D5FFE71C98D0F88800C3
:1037A000B0F5801F03900AD0FFE70398B0F5001F23
:1037B0000ED0FFE70398B0F5401F11D011E044F29E
:1037C0002C40C5F60200016841F4003101600CE0B4
:1037D0001C982830012105F043FA8DF8670004E0B9
:1037E00003E001208DF86700FFE79DF867000028DF
:1037F0000DD1FFE744F25440C5F60200016821F400
:1038000040111C9AD2F888201143016004E09DF811
:1038100067008DF86600FFE7FFE71C988078C00717
:10382000002837D0FFE71C98006D0028029005D0D3
:10383000FFE70298B0F5803F09D010E044F22C4039
:10384000C5F60200016841F4003101600BE01C98EC
:103850000830022105F018F98DF8670003E0012017
:103860008DF86700FFE79DF8670000280CD1FFE79F
:1038700044F24C40C5F60200016821F480311C9AE4
:10388000126D1143016004E09DF867008DF8660039
:10389000FFE7FFE71C98C078800600280DD5FFE7FA
:1038A0001C982830022105F0DBF9002804D0FFE73E
:1038B00001208DF86600FFE7FFE71C9880788007FD
:1038C00000283ED5FFE71C98D0F880000028019022
:1038D0001AD0FFE70198B0F5807F0AD0FFE7019882
:1038E000B0F5007F0ED0FFE70198B0F5407F0AD019
:1038F0000BE044F22C40C5F60200016841F40031AF
:10390000016006E005E004E003E001208DF86700B7
:10391000FFE79DF8670000280DD1FFE744F254400F
:10392000C5F60200016821F440711C9AD2F880208B
:103930001143016004E09DF867008DF86600FFE721
:10394000FFE71C988078C00600280CD5FFE744F2FA
:103950005040C5F60200016821F000411C9A526FE8
:1039600011430160FFE71C98C078C00600280DD500
:10397000FFE744F21040C5F60200016821F48041DF
:103980001C9AD2F8B82011430160FFE71C98807898
:10399000800600280CD5FFE744F25040C5F602002F
:1039A000016821F080711C9AD26E11430160FFE71B
:1039B0001C98C0784006002811D5FFE7FFE744F2C5
:1039C0001040C5F60200016821F4004101601C9915
:1039D000D1F8BC10026811430160FFE7FFE71C98B3
:1039E000C078000600280CD5FFE744F24C40C5F62D
:1039F0000200016821F040511C9A526D1143016090
:103A0000FFE71C988078000600280DD5FFE744F2F8
:103A10005440C5F60200016821F440011C9AD2F816
:103A20008C2011430160FFE71C980079C007002833
:103A300013D0FFE71C980830002105F025F88DF819
:103A400067009DF86700002801D1FFE704E09DF8BA
:103A500067008DF86600FFE7FFE71C980079800794
:103A6000002813D5FFE71C980830012105F00CF859
:103A70008DF867009DF86700002801D1FFE704E09A
:103A80009DF867008DF86600FFE7FFE71C98007956
:103A90004007002813D5FFE71C980830022104F0E6
:103AA000F3FF8DF867009DF86700002801D1FFE75C
:103AB00004E09DF867008DF86600FFE7FFE71C98BB
:103AC00000790007002813D5FFE71C982830002153
:103AD00005F0C6F88DF867009DF86700002801D151
:103AE000FFE704E09DF867008DF86600FFE7FFE759
:103AF0001C980079C006002813D5FFE71C982830D1
:103B0000012105F0ADF88DF867009DF867000028E9
:103B100001D1FFE704E09DF867008DF86600FFE73C
:103B2000FFE71C9800798006002813D5FFE71C9852
:103B30002830022105F094F88DF867009DF86700A1
:103B4000002801D1FFE704E09DF867008DF86600CA
:103B5000FFE7FFE79DF86600002804D1FFE700209B
:103B60008DF8770003E001208DF87700FFE79DF8DE
:103B700077001EB080BD000080B588B00A460346BD
:103B800006900591069800280192009304D1FFE762
:103B900001208DF81F0040E2059842F20001C5F2B5
:103BA0000021096801F00F01884216D9FFE742F2AF
:103BB0000000C5F20020016821F00F01059A1143B1
:103BC0000160006800F00F000599884204D0FFE70B
:103BD00001208DF81F0020E2FFE7069800684007EB
:103BE000002819D5FFE70698006944F21841C5F688
:103BF0000201096801F0700188420CD9FFE744F224
:103C00001840C5F60200016821F07001069A126999
:103C100011430160FFE7FFE70698006800070028EE
:103C200019D5FFE70698406944F21C41C5F6020128
:103C3000096801F0700188420CD9FFE744F21C408A
:103C4000C5F60200016821F07001069A526911431D
:103C50000160FFE7FFE706980068C006002819D555
:103C6000FFE70698806944F21C41C5F60201096825
:103C700001F4E06188420CD9FFE744F21C40C5F62C
:103C80000200016821F4E061069A92691143016023
:103C9000FFE7FFE7069800688006002819D5FFE7D0
:103CA0000698C06944F22041C5F60201096801F096
:103CB000700188420CD9FFE744F22040C5F60200AB
:103CC000016821F07001069AD26911430160FFE793
:103CD000FFE7069800688007002819D5FFE70698D7
:103CE000C06844F21841C5F60201096801F00F01ED
:103CF00088420CD9FFE744F21840C5F6020001687B
:103D000021F00F01069AD26811430160FFE7FFE737
:103D100006980068C007002800F08E80FFE744F294
:103D20001840C5F60200016821F47061069A926895
:103D30001143016006984068022811D1FFE744F260
:103D40000040C5F60200006800F400300021B1EB2D
:103D5000504F04D1FFE701208DF81F005DE13EE0E8
:103D600006984068032811D1FFE744F20040C5F6E9
:103D70000200006800F000700021B1EB506F04D128
:103D8000FFE701208DF81F0047E127E00698406813
:103D9000012811D1FFE744F20040C5F60200006897
:103DA00000F480700021B1EB102F04D1FFE7012057
:103DB0008DF81F0031E110E044F20040C5F602002A
:103DC000006800F004000021B1EB900F04D1FFE780
:103DD00001208DF81F0020E1FFE7FFE7FFE744F235
:103DE0001040C5F60200016821F00701069A5268EA
:103DF00011430160FDF770FE0390FFE744F21040AD
:103E0000C5F60200006800F0380006994968B0EB7A
:103E1000C10F10D0FFE7FDF75FFEDDF80CE0A0EB6F
:103E20000E0041F2893E704504D3FFE703208DF870
:103E30001F00F2E0E2E7FFE706980068800700282D
:103E400019D5FFE70698C06844F21841C5F602018B
:103E5000096801F00F0188420CD2FFE744F21840D4
:103E6000C5F60200016821F00F01069AD2681143DD
:103E70000160FFE7FFE7059842F20001C5F200216B
:103E8000096801F00F01884216D2FFE742F20000F4
:103E9000C5F20020016821F00F01059A114301606D
:103EA000006800F00F000599884204D0FFE7012068
:103EB0008DF81F00B1E0FFE7069800684007002872
:103EC00019D5FFE70698006944F21841C5F60201CA
:103ED000096801F0700188420CD2FFE744F21840F3
:103EE000C5F60200016821F07001069A12691143BB
:103EF0000160FFE7FFE7069800680007002819D572
:103F0000FFE70698406944F21C41C5F602010968C2
:103F100001F0700188420CD2FFE744F21C40C5F664
:103F20000200016821F07001069A52691143016094
:103F3000FFE7FFE706980068C006002819D5FFE7ED
:103F40000698806944F21C41C5F60201096801F433
:103F5000E06188420CD2FFE744F21C40C5F6020043
:103F6000016821F4E061069A926911430160FFE75C
:103F7000FFE7069800688006002819D5FFE7069835
:103F8000C06944F22041C5F60201096801F07001E0
:103F900088420CD2FFE744F22040C5F602000168D7
:103FA00021F07001069AD26911430160FFE7FFE733
:103FB00000F096F844F2184EC5F6020EDEF8001036
:103FC000C1F303214CF2A872C0F60002515C01F06B
:103FD0001F01C84002900298DEF8001001F00F01A6
:103FE000515C01F01F01C84040F22001C2F20041C3
:103FF0000860029840F21C01C2F20041086040F2E1
:104000004400C2F200400068FEF7EEF88DF813009D
:104010009DF813008DF81F00FFE79DF81F0008B002
:1040200080BD00000000000080B582B000F058F8AC
:1040300044F2184EC5F6020EDEF80010C1F303215B
:104040004CF2A872C0F60002515C01F01F01C8409A
:1040500001900198DEF8001001F00F01515C01F0B1
:104060001F01C84040F22001C2F2004108600198DF
:1040700040F21C02C2F200421060086802B080BD2B
:1040800080B5FFF7D1FF44F21C4EC5F6020EDEF8F4
:1040900000E0CEF3021E4CF2A871C0F6000111F848
:1040A0000E1001F01F01C84080BD0000000000009C
:1040B00080B5FFF7B9FF44F21C4EC5F6020EDEF8DC
:1040C00000E0CEF3022E4CF2A871C0F6000111F808
:1040D0000E1001F01F01C84080BD0000000000006C
:1040E0008AB044F21040C5F60200006800F03800C3
:1040F00001461828019100F26C810199DFE811F066
:1041000019006901690169016901690169016901B0
:104110003B0069016901690169016901690169017E
:104120004100690169016901690169016901690168
:10413000470044F20040C5F60200006800F020008D
:104140000021B1EB501F0FD0FFE744F20040C5F64D
:1041500002000068C0F3C10049F20001C0F2D03192
:1041600021FA00F0029005E049F20000C0F2D030E0
:104170000290FFE733E140F60010C0F23D000290EC
:104180002DE147F64000C0F27D10029027E144F295
:104190002840C5F60200016801F00301089100689B
:1041A000C0F30510079044F22C40C5F602000068E9
:1041B00000F001000690069844F23441C5F6020171
:1041C000096889B2C908484300EE100AB8EE400AEF
:1041D0008DED040A0798002800F0F780FFE70898A3
:1041E0000028009009D0FFE7009801286AD0FFE777
:1041F0000098022800F08A80ACE044F20040C5F646
:104200000200006800F020000021B1EB501F34D004
:10421000FFE744F20040C5F602000068C0F3C100A9
:1042200049F20001C0F2D03121FA00F005909DED75
:10423000050AB8EE400A9DED071AB8EE411A80EE65
:10424000010A44F23040C5F6020000686FF35F20B7
:1042500001EE100AB8EE411A9DED042A9FED623A74
:1042600082EE032A31EE021AB7EE002A31EE021A6C
:1042700020EE010A8DED030A23E09DED070AB8EE5A
:10428000400A9FED5B1A81EE000A44F23040C5F609
:10429000020000686FF35F2001EE100AB8EE411AC9
:1042A0009DED042A9FED503A82EE032A31EE021A68
:1042B000B7EE002A31EE021A20EE010A8DED030A54
:1042C000FFE76BE09DED070AB8EE400A9FED471A45
:1042D00081EE000A44F23040C5F6020000686FF338
:1042E0005F2001EE100AB8EE411A9DED042A9FED01
:1042F0003E3A82EE032A31EE021AB7EE002A31EE80
:10430000021A20EE010A8DED030A47E09DED070A2F
:10431000B8EE400A9FED331A81EE000A44F23040B5
:10432000C5F6020000686FF35F2001EE100AB8EED8
:10433000411A9DED042A9FED2C3A82EE032A31EEBC
:10434000021AB7EE002A31EE021A20EE010A8DEDB4
:10435000030A23E09DED070AB8EE400A9FED231AF9
:1043600081EE000A44F23040C5F6020000686FF3A7
:104370005F2001EE100AB8EE411A9DED042A9FED70
:104380001A3A82EE032A31EE021AB7EE002A31EE13
:10439000021A20EE010A8DED030AFFE744F23040D5
:1043A000C5F60200006880B2012101EB502009909F
:1043B0009DED030A9DED091AB8EE411A80EE010A3F
:1043C000BCEEC00A8DED020A02E000200290FFE779
:1043D00005E040F60010C0F23D000290FFE70298B1
:1043E0000AB0704720BCBE4B000000460024744A4F
:1043F0000024744C0000000080B58CB001460A9087
:104400000A980028009105D1FFE701208DF82F00C0
:1044100000F0C9BD0A980068C007002800F0C080FD
:10442000FFE744F21040C5F60200006800F03800D3
:10443000069044F22840C5F60200006805900698F0
:1044400010280AD0FFE7069818281DD1FFE7059825
:1044500000F00300022817D1FFE744F20040C5F640
:104460000200006800F400300021B1EB504F0AD088
:10447000FFE70A984068002805D1FFE701208DF882
:104480002F0000F090BD8AE0FFE70A984068B0F581
:10449000803F09D1FFE744F20040C5F60200016801
:1044A00041F48031016033E00A98406800280DD162
:1044B000FFE744F20040C5F60200016821F48031B4
:1044C0000160016821F48021016020E00A984068C1
:1044D000B0F5A02F0DD1FFE744F20040C5F6020071
:1044E000016841F480210160016841F4803101607C
:1044F0000CE044F20040C5F60200016821F480316E
:104500000160016821F480210160FFE7FFE7FFE718
:10451000FFE70A984068002820D0FFE7FDF7DCFAA3
:104520000990FFE744F20040C5F60200006800F47D
:1045300000300021B1EB504F0FD1FFE7FDF7CCFA6F
:10454000DDF824E0A0EB0E00652805D3FFE703208B
:104550008DF82F0000F027BDE4E71FE0FDF7BCFA5F
:104560000990FFE744F20040C5F60200006800F43D
:1045700000300021B1EB504F0FD0FFE7FDF7ACFA50
:10458000DDF824E0A0EB0E00652805D3FFE703204B
:104590008DF82F0000F007BDE4E7FFE7FFE7FFE736
:1045A0000A9800688007002840F11E81FFE744F266
:1045B0001040C5F60200006800F03800049044F294
:1045C0002840C5F6020000680390049800280AD02D
:1045D000FFE7049818287BD1FFE79DF80C008007BF
:1045E000002875D1FFE744F20040C5F602000068DC
:1045F00000F004000021B1EB900F0AD0FFE70A9809
:10460000C068002805D1FFE701208DF82F0000F0D9
:10461000CABC44F20040C5F60200016821F019014D
:104620000A9AD26811430160FDF756FA0990FFE734
:1046300044F20040C5F60200006800F004000021CA
:10464000B1EB900F0FD1FFE7FDF746FADDF824E05C
:10465000A0EB0E00032805D3FFE703208DF82F0001
:1046600000F0A1BCE4E7FFE7FDF72EFA41F2030EEC
:1046700070451DD8FFE70A98006940280AD1FFE776
:1046800044F20440C5F602000168202262F31131B1
:1046900001600CE044F20440C5F60200016821F418
:1046A0007C310A9A126941EA02310160FFE70CE0AD
:1046B00044F20440C5F60200016821F0FE410A9A66
:1046C000126941EA02610160FFE7FFE7FFE78AE064
:1046D0000A98C06800285ED0FFE744F20040C5F6A3
:1046E0000200016821F019010A9AD26811430160A1
:1046F000FDF7F2F90990FFE744F20040C5F6020029
:10470000006800F004000021B1EB900F0FD1FFE72B
:10471000FDF7E2F9DDF824E0A0EB0E00032805D355
:10472000FFE703208DF82F0000F03DBCE4E7FFE732
:10473000FDF7CAF941F2030E70451DD8FFE70A984C
:10474000006940280AD1FFE744F20440C5F60200A0
:104750000168202262F3113101600CE044F2044050
:10476000C5F60200016821F47C310A9A126941EA17
:1047700002310160FFE70CE044F20440C5F602009C
:10478000016821F0FE410A9A126941EA0261016062
:10479000FFE7FFE726E044F20040C5F602000168AB
:1047A00021F001010160FDF797F90990FFE744F25C
:1047B0000040C5F60200006800F004000021B1EBE3
:1047C000900F0ED0FFE7FDF787F9DDF824E0A0EBAE
:1047D0000E00032804D3FFE703208DF82F00E2E347
:1047E000E5E7FFE7FFE7FFE70A980068C006002853
:1047F00040F1EF80FFE744F21040C5F60200006888
:1048000000F03800029044F22840C5F6020000682B
:104810000190029808280AD0FFE70298182850D182
:10482000FFE7019800F0030001284AD1FFE744F2B6
:104830000040C5F60200006800F480700021B1EB72
:10484000102F09D0FFE70A98C069802804D0FFE73D
:1048500001208DF82F00A6E3FFE7FDF735F941F2BF
:10486000030E70451DD8FFE70A98006A20280AD178
:10487000FFE744F20440C5F602000168102262F32B
:104880009E6101600CE044F20440C5F6020001683C
:1048900021F0F8410A9A126A41EA82610160FFE759
:1048A0000CE044F20C40C5F60200016821F07C5196
:1048B0000A9A126A41EA02610160FFE7FFE7FFE737
:1048C00086E00A98C06900285AD0FFE744F2004009
:1048D000C5F60200016841F080010160FDF7FCF8B7
:1048E0000990FFE744F20040C5F60200006800F4BA
:1048F00080700021B1EB102F0ED1FFE7FDF7ECF82F
:10490000DDF824E0A0EB0E00032804D3FFE703202A
:104910008DF82F0047E3E5E7FFE7FDF7D5F841F213
:10492000030E70451DD8FFE70A98006A20280AD1B7
:10493000FFE744F20440C5F602000168102262F36A
:104940009E6101600CE044F20440C5F6020001687B
:1049500021F0F8410A9A126A41EA82610160FFE798
:104960000CE044F20C40C5F60200016821F07C51D5
:104970000A9A126A41EA02610160FFE7FFE726E056
:1049800044F20040C5F60200016821F08001016098
:10499000FDF7A2F80990FFE744F20040C5F60200D7
:1049A000006800F480700021B1EB102F0ED0FFE7FB
:1049B000FDF792F8DDF824E0A0EB0E00032804D305
:1049C000FFE703208DF82F00EDE2E5E7FFE7FFE7C3
:1049D000FFE70A9800680007002854D5FFE70A9807
:1049E0004069002827D0FFE744F27440C5F6020072
:1049F000016841F001010160FDF76EF80990FFE7E1
:104A000044F27440C5F60200006800F00200002184
:104A1000B1EB500F0ED1FFE7FDF75EF8DDF824E0B3
:104A2000A0EB0E00032804D3FFE703208DF82F002E
:104A3000B9E2E5E726E044F27440C5F602000168F9
:104A400021F001010160FDF747F80990FFE744F20A
:104A50007440C5F60200006800F002000021B1EBCE
:104A6000500F0ED0FFE7FDF737F8DDF824E0A0EB9C
:104A70000E00032804D3FFE703208DF82F0092E2F5
:104A8000E5E7FFE7FFE70A9800688006002854D5AD
:104A9000FFE70A988069002827D0FFE744F200402A
:104AA000C5F60200016841F480510160FDF714F879
:104AB0000990FFE744F20040C5F60200006800F4E8
:104AC00000500021B1EB503F0ED1FFE7FDF704F895
:104AD000DDF824E0A0EB0E00032804D3FFE7032059
:104AE0008DF82F005FE2E5E726E044F20040C5F6CE
:104AF0000200016821F480510160FCF7EDFF09908C
:104B0000FFE744F20040C5F60200006800F40050E0
:104B10000021B1EB503F0ED0FFE7FCF7DDFFDDF8E1
:104B200024E0A0EB0E00032804D3FFE703208DF858
:104B30002F0038E2E5E7FFE7FFE70A980068400743
:104B4000002840F1AF80FFE744F60000C5F6020000
:104B5000016841F480710160FCF7BEFF0990FFE736
:104B600044F60000C5F602000068C00500280ED417
:104B7000FFE7FCF7B1FFDDF824E0A0EB0E006528AD
:104B800004D3FFE703208DF82F000CE2E8E7FFE7EE
:104B90000A988068012809D1FFE744F27040C5F601
:104BA0000200016841F00101016032E00A9880686A
:104BB00000280DD1FFE744F27040C5F602000168FD
:104BC00021F001010160016821F0040101601FE092
:104BD0000A98806805280DD1FFE744F27040C5F6B9
:104BE0000200016841F004010160016841F0010127
:104BF00001600CE044F27040C5F60200016821F04B
:104C000001010160016821F004010160FFE7FFE795
:104C1000FFE7FFE70A988068002821D0FFE7FCF74C
:104C20005BFF0990FFE744F27040C5F602000068A0
:104C300000F002000021B1EB500F10D1FFE7FCF7AC
:104C40004BFFDDF824E0A0EB0E0041F2893E7045F9
:104C500004D3FFE703208DF82F00A4E1E3E720E071
:104C6000FCF73AFF0990FFE744F27040C5F60200F6
:104C7000006800F002000021B1EB500F10D0FFE7F8
:104C8000FCF72AFFDDF824E0A0EB0E0041F2893E9C
:104C9000704504D3FFE703208DF82F0083E1E3E79D
:104CA000FFE7FFE70A98406A002800F07881FFE7F5
:104CB00044F21040C5F60200006800F038001828E1
:104CC00000F0E480FFE70A98406A022840F0B680CE
:104CD000FFE744F20040C5F60200016821F0807150
:104CE0000160FCF7F9FE0990FFE744F20040C5F6C9
:104CF0000200006800F000700021B1EB506F0ED090
:104D0000FFE7FCF7E9FEDDF824E0A0EB0E00032846
:104D100004D3FFE703208DF82F0044E1E5E7FFE728
:104D200044F22840C5F60200016840F2F332914394
:104D30000A9A936AD26A43EA0212114301600A98FE
:104D4000016B426B836BC06B01396FF35F214FF6D0
:104D5000006CCFF6FF7C0CEB422292B21144002291
:104D6000CFF6FF7202EB034202F4FE0211444FF051
:104D70007F4202EB006000F0FE40084444F2304104
:104D8000C5F602010860FFE744F22C40C5F60200B8
:104D9000016821F00101016044F23441C5F60201CD
:104DA0000A684FF6F8739A430A9B9B6C42EAC30267
:104DB0000A60016821F00C010A9A126C114301602B
:104DC000016821F002010A9A526C114301600168E6
:104DD00041F480310160016841F4003101600168F3
:104DE00041F480210160016841F00101016044F259
:104DF0000040C5F60200016841F080710160FCF7D7
:104E00006BFE0990FFE744F20040C5F6020000681F
:104E100000F000700021B1EB506F0ED1FFE7FCF7FE
:104E20005BFEDDF824E0A0EB0E00032804D3FFE7CF
:104E300003208DF82F00B6E0E5E726E044F20040BD
:104E4000C5F60200016821F080710160FCF744FEA4
:104E50000990FFE744F20040C5F60200006800F048
:104E600000700021B1EB506F0ED0FFE7FCF734FE6D
:104E7000DDF824E0A0EB0E00032804D3FFE70320B5
:104E80008DF82F008FE0E5E7FFE787E044F2284048
:104E9000C5F602000068089044F23040C5F60200F2
:104EA000006807900A98406A012837D0FFE7089801
:104EB00000F003000A99896A88422FD1FFE7089819
:104EC00000F47C700A99C96AB1EB101F26D1FFE784
:104ED00007986FF35F200A99096B013988421DD149
:104EE000FFE7BDF81C000A99496B0139B1EB502F5F
:104EF00014D1FFE7079800F4FE000A99896B013985
:104F0000B1EB104F0AD1FFE7079800F0FE400A9975
:104F1000C96B0139B1EB106F04D0FFE701208DF8A8
:104F20002F0040E044F23440C5F60200006880B231
:104F3000C00808900A98806C089988422CD0FFE736
:104F400044F22C40C5F60200016821F00101016025
:104F5000FCF7C2FD0990FFE7FCF7BEFDDDF824E099
:104F6000A0EB0E00002801D1FFE7F5E744F2344042
:104F7000C5F6020001684FF6F87291430A9A926CE6
:104F800041EAC201016044F22C40C5F6020001680A
:104F900041F001010160FFE7FFE7FFE7FFE70020C5
:104FA0008DF82F00FFE79DF82F000CB080BD0000AA
:104FB00080B582B0014601900198009104F034F868
:104FC00002B080BD0000000082B001460190009157
:104FD00002B070470000000082B0014601900091CD
:104FE00002B070470000000082B0014601900091BD
:104FF00002B070470000000087B00A4603460590E3
:10500000049101920093FFE7059890F83C00012875
:1050100004D1FFE702208DF81B0099E005980121DB
:1050200080F83C10FFE7FFE70598022180F83D106B
:1050300005980068406803900598006880680290B1
:10504000059800680021C4F20101884209D0FFE7F9
:105050000598006840F20041C4F2010188420AD17B
:10506000FFE7039820F470000390049840680399C8
:1050700008430390FFE7039820F070000390049822
:1050800000680399084303900398059909684860EC
:10509000059800680021C4F2010188423CD0FFE776
:1050A00005980068B0F1804F36D0FFE7059800689A
:1050B00040F20041C4F2000188422DD0FFE705987C
:1050C000006840F60001C4F20001884224D0FFE7E6
:1050D0000598006840F60041C4F2000188421BD0E8
:1050E000FFE70598006840F20041C4F201018842E0
:1050F00012D0FFE70598006841F60001C4F20001F4
:10510000884209D0FFE70598006844F20001C4F224
:10511000010188420ED1FFE7029820F08000029042
:1051200004988068029908430290029805990968DA
:105130008860FFE70598012180F83D10FFE705989A
:10514000002180F83C10FFE700208DF81B00FFE7EE
:105150009DF81B0007B0704780B584B001460290EF
:1051600002980028019104D1FFE701208DF80F007B
:1051700049E0029890F83D00002808D1FFE7029826
:10518000002180F83C10029800F042F8FFE70298F6
:10519000022180F83D10029850F8041B0090084648
:1051A000009904F0F1F80298012180F84810FFE717
:1051B0000298012180F83E10029880F83F10029872
:1051C00080F84010029880F84110029880F8421050
:1051D000029880F84310FFE7FFE70298012180F86A
:1051E0004410029880F84510029880F84610029802
:1051F00080F84710FFE70298012180F83D10002059
:105200008DF80F00FFE79DF80F0004B080BD00008F
:1052100080B58AB0014609900998006840F60042BE
:10522000C4F200029042059111D1FFE7FFE744F27A
:10523000E840C5F60200016841F00801016000681D
:1052400000F00800089008980490FFE73FE00998F4
:10525000006841F20001C4F20001884211D1FFE769
:10526000FFE744F2E840C5F60200016841F0100192
:105270000160006800F01000079007980390FFE7B6
:1052800024E00998006841F20041C4F2000188421C
:105290001BD1FFE7FFE744F2E840C5F602000168D2
:1052A00041F020010160006800F02000069006989F
:1052B0000290FFE73720002101900091009AFDF74E
:1052C00077F80198FDF768F8FFE7FFE7FFE70AB016
:1052D00080BD00000000000084B0014602900298EA
:1052E00090F83D000128009104D0FFE701208DF8DF
:1052F0000F006BE00298022180F83D1002980068D0
:105300000021C4F2010188423CD0FFE70298006806
:10531000B0F1804F36D0FFE70298006840F20041BC
:10532000C4F2000188422DD0FFE70298006840F6E1
:105330000001C4F20001884224D0FFE7029800680F
:1053400040F60041C4F2000188421BD0FFE70298FA
:10535000006840F20041C4F20101884212D0FFE728
:105360000298006841F60001C4F20001884209D0A9
:10537000FFE70298006844F20001C4F2010188428C
:1053800019D1FFE70298006880680721C0F2010187
:1053900008400190019806280CD0FFE70198B0F56D
:1053A000803F07D0FFE702980068016841F00101E3
:1053B0000160FFE706E002980068016841F0010122
:1053C0000160FFE700208DF80F00FFE79DF80F0058
:1053D00004B070470000000084B0014602900298BB
:1053E00090F83D000128009104D0FFE701208DF8DE
:1053F0000F0071E00298022180F83D1002980068C9
:10540000C16841F00101C160029800680021C4F246
:10541000010188423CD0FFE702980068B0F1804F5C
:1054200036D0FFE70298006840F20041C4F2000164
:1054300088422DD0FFE70298006840F60001C4F2D0
:105440000001884224D0FFE70298006840F600413E
:10545000C4F2000188421BD0FFE70298006840F2C6
:105460000041C4F20101884212D0FFE702980068AF
:1054700041F60001C4F20001884209D0FFE702981A
:10548000006844F20001C4F20101884219D1FFE72B
:105490000298006880680721C0F20101084001906D
:1054A000019806280CD0FFE70198B0F5803F07D09F
:1054B000FFE702980068016841F001010160FFE721
:1054C00006E002980068016841F001010160FFE711
:1054D00000208DF80F00FFE79DF80F0004B0704723
:1054E00082B0014601900091FFE701980068006AD0
:1054F00041F21111084210D1FFE701980068006ADB
:1055000040F24441084207D1FFE701980068016872
:1055100021F001010160FFE7FFE7FFE701980121AA
:1055200080F83D10002002B070470000000000002D
:1055300080B58EB00A4603460C900B9100208DF882
:105540002B0008920793FFE70C9890F83C00012885
:1055500004D1FFE702208DF83700E1E00C9801212B
:1055600080F83C10FFE7FFE70C98022180F83D101F
:105570000C9800688068099009984FF68871CFF6FA
:10558000CE7108400990099820F47F40099009984D
:105590000C99096888600B9800680028069000F054
:1055A000A580FFE70698102800F0A080FFE7069886
:1055B000202800F09B80FFE70698302800F09680B6
:1055C000FFE70698402800F08180FFE70698502802
:1055D0005CD0FFE70698602868D0FFE7069870283F
:1055E0002AD0FFE70698B0F5805F24D0FFE7069841
:1055F000B0F5005F38D0FFE70698B0F5801F75D092
:10560000FFE70698B0F1101F70D0FFE72020C0F22E
:1056100010000699814269D0FFE73020C0F21000E7
:105620000699814262D0FFE74020C0F2100006993F
:1056300081425BD061E064E00C9800680B994A6895
:105640008B68C96805911946059B03F099FF0C9872
:10565000006880680990099840F0770009900998DF
:105660000C99096888604CE00C9800680B994A68AE
:105670008B68C96804911946049B03F081FF0C985C
:105680000068816841F4804181603AE00C980068CC
:105690000B994A68C96803911146039A04F02CFBE0
:1056A0000C980068502103F093FF2AE00C980068E2
:1056B0000B994A68C96802911146029A04F050FB9E
:1056C0000C980068602103F083FF1AE00C980068D2
:1056D0000B994A68C96801911146019A04F00CFBC4
:1056E0000C980068402103F073FF0AE00C980068F2
:1056F0000B99096803F06CFF03E001208DF82B0083
:10570000FFE70C98012180F83D10FFE70C9800217D
:1057100080F83C10FFE79DF82B008DF83700FFE77D
:105720009DF837000EB080BD80B58AB00A460346AA
:1057300008900791089800280392029304D1FFE78C
:1057400001208DF827008EE0089890F83D00002891
:1057500008D1FFE70898002180F83C10089800F075
:1057600087F8FFE70898022180F83D100898006844
:1057700081684BF6F872CFF6FE721140816008988E
:1057800050F8041B01900846019903F0FDFD0898AC
:1057900000688068069008980068806905900898FD
:1057A0000068006A0490079800680699084306900C
:1057B000059840F203318843059007988168806915
:1057C00041EA0020059908430590059840F60C41F0
:1057D0008843059005984FF2F0018843059007989B
:1057E000C168C06941EA00200599084305900798FF
:1057F0000169006A090141EA0030059908430590F2
:10580000049820F022000490049820F0880004906E
:1058100007984168406941EA0010049908430490E0
:105820000698089909688860059808990968886148
:1058300004980899096808620898012180F84810BE
:10584000089880F83E10089880F83F10089880F873
:105850004410089880F84510089880F83D10002002
:105860008DF82700FFE79DF827000AB080BD0000F3
:1058700080B594B0014613900020129011901090C2
:105880000F900E90139800680022C4F2010290421B
:1058900009913ED1FFE7FFE744F2F040C5F6020070
:1058A000016841F001010160006800F001000D9005
:1058B0000D980890FFE7FFE744F2E040C5F60200CC
:1058C000016841F010010160006800F010000C90C8
:1058D0000C980790FFE74FF420600E9002200F9085
:1058E0000020109011900121129141F20001C5F6A3
:1058F00002010EAA069008461146FBF7D1FE1920B8
:1059000005900699069AFCF753FD0598FCF744FDAF
:1059100043E01398006840F20041C4F2000188425D
:105920003AD1FFE7FFE744F2E840C5F6020001681C
:1059300041F002010160006800F002000B900B983A
:105940000490FFE7FFE744F2E040C5F6020001687B
:1059500041F001010160006800F001000A900A981E
:105960000390FFE7C0200E9002200F9000211091BD
:10597000119112900020C5F602000EAA0291114664
:10598000FBF78EFE1D2001900299029AFCF710FD94
:105990000198FCF701FDFFE7FFE714B080BD0000B0
:1059A00082B001460190009102B0704700000000F3
:1059B00080B582B00146019001980068006900F04E
:1059C00002000022B2EB500F009129D0FFE70198AE
:1059D0000068C06800F002000021B1EB500F1ED03B
:1059E000FFE7019800686FF0020101610198012151
:1059F00001770198006880698007002804D0FFE7DC
:105A00000198FFF7CDFF06E0019800F069F90198D1
:105A100000F0BEFAFFE7019800210177FFE7FFE7FA
:105A200001980068006900F004000021B1EB900FBC
:105A300029D0FFE701980068C06800F00400002149
:105A4000B1EB900F1ED0FFE7019800686FF00401E2
:105A5000016101980221017701980068806910F4C2
:105A6000407F04D0FFE70198FFF79AFF06E0019816
:105A700000F036F9019800F08BFAFFE70198002159
:105A80000177FFE7FFE701980068006900F0080070
:105A90000021B1EBD00F29D0FFE701980068C06862
:105AA00000F008000021B1EBD00F1ED0FFE70198F5
:105AB00000686FF0080101610198042101770198E5
:105AC0000068C0698007002804D0FFE70198FFF74D
:105AD00067FF06E0019800F003F9019800F058FA1A
